{
  "contractName": "CryptoMultisender",
  "abi": [
    {
      "inputs": [],
      "stateMutability": "nonpayable",
      "type": "constructor"
    },
    {
      "anonymous": false,
      "inputs": [
        {
          "indexed": true,
          "internalType": "address",
          "name": "affiliate",
          "type": "address"
        },
        {
          "indexed": true,
          "internalType": "string",
          "name": "affiliateCode",
          "type": "string"
        }
      ],
      "name": "AffiliatePartnershipRevoked",
      "type": "event"
    },
    {
      "anonymous": false,
      "inputs": [
        {
          "indexed": true,
          "internalType": "address",
          "name": "to",
          "type": "address"
        },
        {
          "indexed": false,
          "internalType": "uint256",
          "name": "value",
          "type": "uint256"
        }
      ],
      "name": "CommissionPaid",
      "type": "event"
    },
    {
      "anonymous": false,
      "inputs": [
        {
          "indexed": false,
          "internalType": "address",
          "name": "token",
          "type": "address"
        },
        {
          "indexed": false,
          "internalType": "address",
          "name": "sentTo",
          "type": "address"
        },
        {
          "indexed": false,
          "internalType": "uint256",
          "name": "value",
          "type": "uint256"
        }
      ],
      "name": "ERC20TokensWithdrawn",
      "type": "event"
    },
    {
      "anonymous": false,
      "inputs": [
        {
          "indexed": true,
          "internalType": "address",
          "name": "by",
          "type": "address"
        },
        {
          "indexed": false,
          "internalType": "uint256",
          "name": "totalTransfers",
          "type": "uint256"
        },
        {
          "indexed": false,
          "internalType": "uint256",
          "name": "ethValue",
          "type": "uint256"
        }
      ],
      "name": "EthAirdrop",
      "type": "event"
    },
    {
      "anonymous": false,
      "inputs": [
        {
          "indexed": true,
          "internalType": "address",
          "name": "newAffiliate",
          "type": "address"
        },
        {
          "indexed": true,
          "internalType": "string",
          "name": "affiliateCode",
          "type": "string"
        }
      ],
      "name": "NewAffiliatePartnership",
      "type": "event"
    },
    {
      "anonymous": false,
      "inputs": [
        {
          "indexed": true,
          "internalType": "address",
          "name": "premiumMember",
          "type": "address"
        }
      ],
      "name": "NewPremiumMembership",
      "type": "event"
    },
    {
      "anonymous": false,
      "inputs": [
        {
          "indexed": true,
          "internalType": "address",
          "name": "by",
          "type": "address"
        },
        {
          "indexed": true,
          "internalType": "address",
          "name": "nftAddress",
          "type": "address"
        },
        {
          "indexed": false,
          "internalType": "uint256",
          "name": "totalTransfers",
          "type": "uint256"
        }
      ],
      "name": "NftAirdrop",
      "type": "event"
    },
    {
      "anonymous": false,
      "inputs": [
        {
          "indexed": true,
          "internalType": "address",
          "name": "from",
          "type": "address"
        },
        {
          "indexed": true,
          "internalType": "address",
          "name": "to",
          "type": "address"
        }
      ],
      "name": "OwnershipTransferred",
      "type": "event"
    },
    {
      "anonymous": false,
      "inputs": [
        {
          "indexed": false,
          "internalType": "uint256",
          "name": "from",
          "type": "uint256"
        },
        {
          "indexed": false,
          "internalType": "uint256",
          "name": "to",
          "type": "uint256"
        }
      ],
      "name": "RateChanged",
      "type": "event"
    },
    {
      "anonymous": false,
      "inputs": [
        {
          "indexed": true,
          "internalType": "address",
          "name": "to",
          "type": "address"
        },
        {
          "indexed": false,
          "internalType": "uint256",
          "name": "totalWei",
          "type": "uint256"
        }
      ],
      "name": "RefundIssued",
      "type": "event"
    },
    {
      "anonymous": false,
      "inputs": [
        {
          "indexed": true,
          "internalType": "address",
          "name": "by",
          "type": "address"
        },
        {
          "indexed": true,
          "internalType": "address",
          "name": "tokenAddress",
          "type": "address"
        },
        {
          "indexed": false,
          "internalType": "uint256",
          "name": "totalTransfers",
          "type": "uint256"
        }
      ],
      "name": "TokenAirdrop",
      "type": "event"
    },
    {
      "stateMutability": "payable",
      "type": "fallback",
      "payable": true
    },
    {
      "inputs": [
        {
          "internalType": "string",
          "name": "",
          "type": "string"
        }
      ],
      "name": "affiliateCodeExists",
      "outputs": [
        {
          "internalType": "bool",
          "name": "",
          "type": "bool"
        }
      ],
      "stateMutability": "view",
      "type": "function",
      "constant": true
    },
    {
      "inputs": [
        {
          "internalType": "address",
          "name": "",
          "type": "address"
        }
      ],
      "name": "affiliateCodeOfAddr",
      "outputs": [
        {
          "internalType": "string",
          "name": "",
          "type": "string"
        }
      ],
      "stateMutability": "view",
      "type": "function",
      "constant": true
    },
    {
      "inputs": [
        {
          "internalType": "string",
          "name": "",
          "type": "string"
        }
      ],
      "name": "affiliateCodeToAddr",
      "outputs": [
        {
          "internalType": "address",
          "name": "",
          "type": "address"
        }
      ],
      "stateMutability": "view",
      "type": "function",
      "constant": true
    },
    {
      "inputs": [
        {
          "internalType": "string",
          "name": "",
          "type": "string"
        }
      ],
      "name": "commissionPercentage",
      "outputs": [
        {
          "internalType": "uint256",
          "name": "",
          "type": "uint256"
        }
      ],
      "stateMutability": "view",
      "type": "function",
      "constant": true
    },
    {
      "inputs": [],
      "name": "dropUnitPrice",
      "outputs": [
        {
          "internalType": "uint256",
          "name": "",
          "type": "uint256"
        }
      ],
      "stateMutability": "view",
      "type": "function",
      "constant": true
    },
    {
      "inputs": [],
      "name": "getOwner",
      "outputs": [
        {
          "internalType": "address",
          "name": "",
          "type": "address"
        }
      ],
      "stateMutability": "view",
      "type": "function",
      "constant": true
    },
    {
      "inputs": [
        {
          "internalType": "address",
          "name": "",
          "type": "address"
        }
      ],
      "name": "isAffiliate",
      "outputs": [
        {
          "internalType": "bool",
          "name": "",
          "type": "bool"
        }
      ],
      "stateMutability": "view",
      "type": "function",
      "constant": true
    },
    {
      "inputs": [
        {
          "internalType": "address",
          "name": "",
          "type": "address"
        }
      ],
      "name": "isAffiliatedWith",
      "outputs": [
        {
          "internalType": "string",
          "name": "",
          "type": "string"
        }
      ],
      "stateMutability": "view",
      "type": "function",
      "constant": true
    },
    {
      "inputs": [
        {
          "internalType": "address",
          "name": "",
          "type": "address"
        }
      ],
      "name": "isGrantedListedToken",
      "outputs": [
        {
          "internalType": "bool",
          "name": "",
          "type": "bool"
        }
      ],
      "stateMutability": "view",
      "type": "function",
      "constant": true
    },
    {
      "inputs": [
        {
          "internalType": "address",
          "name": "",
          "type": "address"
        }
      ],
      "name": "isGrantedPremiumMember",
      "outputs": [
        {
          "internalType": "bool",
          "name": "",
          "type": "bool"
        }
      ],
      "stateMutability": "view",
      "type": "function",
      "constant": true
    },
    {
      "inputs": [
        {
          "internalType": "address",
          "name": "",
          "type": "address"
        }
      ],
      "name": "isListedToken",
      "outputs": [
        {
          "internalType": "bool",
          "name": "",
          "type": "bool"
        }
      ],
      "stateMutability": "view",
      "type": "function",
      "constant": true
    },
    {
      "inputs": [],
      "name": "lifetimeMembershipFee",
      "outputs": [
        {
          "internalType": "uint256",
          "name": "",
          "type": "uint256"
        }
      ],
      "stateMutability": "view",
      "type": "function",
      "constant": true
    },
    {
      "inputs": [
        {
          "internalType": "address",
          "name": "",
          "type": "address"
        }
      ],
      "name": "membershipExpiryTime",
      "outputs": [
        {
          "internalType": "uint256",
          "name": "",
          "type": "uint256"
        }
      ],
      "stateMutability": "view",
      "type": "function",
      "constant": true
    },
    {
      "inputs": [],
      "name": "oneDayMembershipFee",
      "outputs": [
        {
          "internalType": "uint256",
          "name": "",
          "type": "uint256"
        }
      ],
      "stateMutability": "view",
      "type": "function",
      "constant": true
    },
    {
      "inputs": [],
      "name": "oneMonthMembershipFee",
      "outputs": [
        {
          "internalType": "uint256",
          "name": "",
          "type": "uint256"
        }
      ],
      "stateMutability": "view",
      "type": "function",
      "constant": true
    },
    {
      "inputs": [],
      "name": "owner",
      "outputs": [
        {
          "internalType": "address",
          "name": "",
          "type": "address"
        }
      ],
      "stateMutability": "view",
      "type": "function",
      "constant": true
    },
    {
      "inputs": [
        {
          "internalType": "address",
          "name": "",
          "type": "address"
        }
      ],
      "name": "premiumMembershipDiscount",
      "outputs": [
        {
          "internalType": "uint256",
          "name": "",
          "type": "uint256"
        }
      ],
      "stateMutability": "view",
      "type": "function",
      "constant": true
    },
    {
      "inputs": [],
      "name": "rate",
      "outputs": [
        {
          "internalType": "uint256",
          "name": "",
          "type": "uint256"
        }
      ],
      "stateMutability": "view",
      "type": "function",
      "constant": true
    },
    {
      "inputs": [],
      "name": "sevenDayMembershipFee",
      "outputs": [
        {
          "internalType": "uint256",
          "name": "",
          "type": "uint256"
        }
      ],
      "stateMutability": "view",
      "type": "function",
      "constant": true
    },
    {
      "inputs": [],
      "name": "tokenListingFee",
      "outputs": [
        {
          "internalType": "uint256",
          "name": "",
          "type": "uint256"
        }
      ],
      "stateMutability": "view",
      "type": "function",
      "constant": true
    },
    {
      "inputs": [
        {
          "internalType": "address",
          "name": "",
          "type": "address"
        }
      ],
      "name": "tokenListingFeeDiscount",
      "outputs": [
        {
          "internalType": "uint256",
          "name": "",
          "type": "uint256"
        }
      ],
      "stateMutability": "view",
      "type": "function",
      "constant": true
    },
    {
      "inputs": [
        {
          "internalType": "address",
          "name": "",
          "type": "address"
        }
      ],
      "name": "tokenTrialDrops",
      "outputs": [
        {
          "internalType": "uint256",
          "name": "",
          "type": "uint256"
        }
      ],
      "stateMutability": "view",
      "type": "function",
      "constant": true
    },
    {
      "inputs": [
        {
          "internalType": "address",
          "name": "_newOwner",
          "type": "address"
        }
      ],
      "name": "transferOwnership",
      "outputs": [],
      "stateMutability": "nonpayable",
      "type": "function"
    },
    {
      "inputs": [
        {
          "internalType": "address",
          "name": "",
          "type": "address"
        }
      ],
      "name": "userTrialDrops",
      "outputs": [
        {
          "internalType": "uint256",
          "name": "",
          "type": "uint256"
        }
      ],
      "stateMutability": "view",
      "type": "function",
      "constant": true
    },
    {
      "stateMutability": "payable",
      "type": "receive",
      "payable": true
    },
    {
      "inputs": [
        {
          "internalType": "uint256",
          "name": "_oneDayFee",
          "type": "uint256"
        },
        {
          "internalType": "uint256",
          "name": "_sevenDayFee",
          "type": "uint256"
        },
        {
          "internalType": "uint256",
          "name": "_oneMonthFee",
          "type": "uint256"
        },
        {
          "internalType": "uint256",
          "name": "_lifetimeFee",
          "type": "uint256"
        }
      ],
      "name": "setMembershipFees",
      "outputs": [
        {
          "internalType": "bool",
          "name": "success",
          "type": "bool"
        }
      ],
      "stateMutability": "nonpayable",
      "type": "function"
    },
    {
      "inputs": [
        {
          "internalType": "address",
          "name": "_addr",
          "type": "address"
        }
      ],
      "name": "checkIsPremiumMember",
      "outputs": [
        {
          "internalType": "bool",
          "name": "isMember",
          "type": "bool"
        }
      ],
      "stateMutability": "view",
      "type": "function",
      "constant": true
    },
    {
      "inputs": [
        {
          "internalType": "address",
          "name": "_addr",
          "type": "address"
        }
      ],
      "name": "grantPremiumMembership",
      "outputs": [
        {
          "internalType": "bool",
          "name": "success",
          "type": "bool"
        }
      ],
      "stateMutability": "nonpayable",
      "type": "function"
    },
    {
      "inputs": [
        {
          "internalType": "address",
          "name": "_addr",
          "type": "address"
        }
      ],
      "name": "revokeGrantedPremiumMembership",
      "outputs": [
        {
          "internalType": "bool",
          "name": "success",
          "type": "bool"
        }
      ],
      "stateMutability": "nonpayable",
      "type": "function"
    },
    {
      "inputs": [
        {
          "internalType": "address",
          "name": "_addr",
          "type": "address"
        },
        {
          "internalType": "uint256",
          "name": "_discount",
          "type": "uint256"
        }
      ],
      "name": "setPremiumMembershipDiscount",
      "outputs": [
        {
          "internalType": "bool",
          "name": "success",
          "type": "bool"
        }
      ],
      "stateMutability": "nonpayable",
      "type": "function"
    },
    {
      "inputs": [
        {
          "internalType": "address",
          "name": "_addr",
          "type": "address"
        },
        {
          "internalType": "uint256",
          "name": "_fee",
          "type": "uint256"
        }
      ],
      "name": "getPremiumMembershipFeeOfUser",
      "outputs": [
        {
          "internalType": "uint256",
          "name": "fee",
          "type": "uint256"
        }
      ],
      "stateMutability": "view",
      "type": "function",
      "constant": true
    },
    {
      "inputs": [
        {
          "internalType": "string",
          "name": "_afCode",
          "type": "string"
        }
      ],
      "name": "becomeLifetimeMember",
      "outputs": [
        {
          "internalType": "bool",
          "name": "success",
          "type": "bool"
        }
      ],
      "stateMutability": "payable",
      "type": "function",
      "payable": true
    },
    {
      "inputs": [
        {
          "internalType": "string",
          "name": "_afCode",
          "type": "string"
        }
      ],
      "name": "becomeOneDayMember",
      "outputs": [
        {
          "internalType": "bool",
          "name": "success",
          "type": "bool"
        }
      ],
      "stateMutability": "payable",
      "type": "function",
      "payable": true
    },
    {
      "inputs": [
        {
          "internalType": "string",
          "name": "_afCode",
          "type": "string"
        }
      ],
      "name": "becomeOneWeekMember",
      "outputs": [
        {
          "internalType": "bool",
          "name": "success",
          "type": "bool"
        }
      ],
      "stateMutability": "payable",
      "type": "function",
      "payable": true
    },
    {
      "inputs": [
        {
          "internalType": "string",
          "name": "_afCode",
          "type": "string"
        }
      ],
      "name": "becomeOneMonthMember",
      "outputs": [
        {
          "internalType": "bool",
          "name": "success",
          "type": "bool"
        }
      ],
      "stateMutability": "payable",
      "type": "function",
      "payable": true
    },
    {
      "inputs": [
        {
          "internalType": "address",
          "name": "_tokenAddr",
          "type": "address"
        }
      ],
      "name": "checkIsListedToken",
      "outputs": [
        {
          "internalType": "bool",
          "name": "isListed",
          "type": "bool"
        }
      ],
      "stateMutability": "view",
      "type": "function",
      "constant": true
    },
    {
      "inputs": [
        {
          "internalType": "address",
          "name": "_tokenAddr",
          "type": "address"
        },
        {
          "internalType": "uint256",
          "name": "_discount",
          "type": "uint256"
        }
      ],
      "name": "setTokenListingFeeDiscount",
      "outputs": [
        {
          "internalType": "bool",
          "name": "success",
          "type": "bool"
        }
      ],
      "stateMutability": "nonpayable",
      "type": "function"
    },
    {
      "inputs": [
        {
          "internalType": "address",
          "name": "_tokenAddr",
          "type": "address"
        }
      ],
      "name": "getListingFeeForToken",
      "outputs": [
        {
          "internalType": "uint256",
          "name": "fee",
          "type": "uint256"
        }
      ],
      "stateMutability": "view",
      "type": "function",
      "constant": true
    },
    {
      "inputs": [
        {
          "internalType": "address",
          "name": "_tokenAddr",
          "type": "address"
        },
        {
          "internalType": "string",
          "name": "_afCode",
          "type": "string"
        }
      ],
      "name": "purchaseTokenListing",
      "outputs": [
        {
          "internalType": "bool",
          "name": "success",
          "type": "bool"
        }
      ],
      "stateMutability": "payable",
      "type": "function",
      "payable": true
    },
    {
      "inputs": [
        {
          "internalType": "address",
          "name": "_tokenAddr",
          "type": "address"
        }
      ],
      "name": "revokeGrantedTokenListing",
      "outputs": [
        {
          "internalType": "bool",
          "name": "success",
          "type": "bool"
        }
      ],
      "stateMutability": "nonpayable",
      "type": "function"
    },
    {
      "inputs": [
        {
          "internalType": "address",
          "name": "_tokenAddr",
          "type": "address"
        }
      ],
      "name": "grantTokenListing",
      "outputs": [
        {
          "internalType": "bool",
          "name": "success",
          "type": "bool"
        }
      ],
      "stateMutability": "nonpayable",
      "type": "function"
    },
    {
      "inputs": [
        {
          "internalType": "uint256",
          "name": "_newFee",
          "type": "uint256"
        }
      ],
      "name": "setTokenListingFee",
      "outputs": [
        {
          "internalType": "bool",
          "name": "success",
          "type": "bool"
        }
      ],
      "stateMutability": "nonpayable",
      "type": "function"
    },
    {
      "inputs": [
        {
          "internalType": "address",
          "name": "_addr",
          "type": "address"
        },
        {
          "internalType": "string",
          "name": "_code",
          "type": "string"
        },
        {
          "internalType": "uint256",
          "name": "_percentage",
          "type": "uint256"
        }
      ],
      "name": "addAffiliate",
      "outputs": [
        {
          "internalType": "bool",
          "name": "success",
          "type": "bool"
        }
      ],
      "stateMutability": "nonpayable",
      "type": "function"
    },
    {
      "inputs": [
        {
          "internalType": "address",
          "name": "_addressOfAffiliate",
          "type": "address"
        },
        {
          "internalType": "uint256",
          "name": "_percentage",
          "type": "uint256"
        }
      ],
      "name": "changeAffiliatePercentage",
      "outputs": [
        {
          "internalType": "bool",
          "name": "success",
          "type": "bool"
        }
      ],
      "stateMutability": "nonpayable",
      "type": "function"
    },
    {
      "inputs": [
        {
          "internalType": "address",
          "name": "_addr",
          "type": "address"
        }
      ],
      "name": "removeAffiliate",
      "outputs": [
        {
          "internalType": "bool",
          "name": "success",
          "type": "bool"
        }
      ],
      "stateMutability": "nonpayable",
      "type": "function"
    },
    {
      "inputs": [
        {
          "internalType": "address",
          "name": "_addressOfToken",
          "type": "address"
        }
      ],
      "name": "tokenHasFreeTrial",
      "outputs": [
        {
          "internalType": "bool",
          "name": "hasFreeTrial",
          "type": "bool"
        }
      ],
      "stateMutability": "view",
      "type": "function",
      "constant": true
    },
    {
      "inputs": [
        {
          "internalType": "address",
          "name": "_addressOfUser",
          "type": "address"
        }
      ],
      "name": "userHasFreeTrial",
      "outputs": [
        {
          "internalType": "bool",
          "name": "hasFreeTrial",
          "type": "bool"
        }
      ],
      "stateMutability": "view",
      "type": "function",
      "constant": true
    },
    {
      "inputs": [
        {
          "internalType": "address",
          "name": "_addressOfToken",
          "type": "address"
        }
      ],
      "name": "getRemainingTokenTrialDrops",
      "outputs": [
        {
          "internalType": "uint256",
          "name": "remainingTrialDrops",
          "type": "uint256"
        }
      ],
      "stateMutability": "view",
      "type": "function",
      "constant": true
    },
    {
      "inputs": [
        {
          "internalType": "address",
          "name": "_addressOfUser",
          "type": "address"
        }
      ],
      "name": "getRemainingUserTrialDrops",
      "outputs": [
        {
          "internalType": "uint256",
          "name": "remainingTrialDrops",
          "type": "uint256"
        }
      ],
      "stateMutability": "view",
      "type": "function",
      "constant": true
    },
    {
      "inputs": [
        {
          "internalType": "uint256",
          "name": "_newRate",
          "type": "uint256"
        }
      ],
      "name": "setRate",
      "outputs": [
        {
          "internalType": "bool",
          "name": "success",
          "type": "bool"
        }
      ],
      "stateMutability": "nonpayable",
      "type": "function"
    },
    {
      "inputs": [
        {
          "internalType": "address",
          "name": "_addr",
          "type": "address"
        },
        {
          "internalType": "address",
          "name": "_addressOfToken",
          "type": "address"
        }
      ],
      "name": "getTokenAllowance",
      "outputs": [
        {
          "internalType": "uint256",
          "name": "allowance",
          "type": "uint256"
        }
      ],
      "stateMutability": "view",
      "type": "function",
      "constant": true
    },
    {
      "inputs": [
        {
          "internalType": "address[]",
          "name": "_recipients",
          "type": "address[]"
        },
        {
          "internalType": "uint256[]",
          "name": "_values",
          "type": "uint256[]"
        },
        {
          "internalType": "uint256",
          "name": "_totalToSend",
          "type": "uint256"
        },
        {
          "internalType": "string",
          "name": "_afCode",
          "type": "string"
        }
      ],
      "name": "airdropNativeCurrency",
      "outputs": [
        {
          "internalType": "bool",
          "name": "success",
          "type": "bool"
        }
      ],
      "stateMutability": "payable",
      "type": "function",
      "payable": true
    },
    {
      "inputs": [
        {
          "internalType": "address",
          "name": "_addressOfToken",
          "type": "address"
        },
        {
          "internalType": "address[]",
          "name": "_recipients",
          "type": "address[]"
        },
        {
          "internalType": "uint256[]",
          "name": "_values",
          "type": "uint256[]"
        },
        {
          "internalType": "uint256",
          "name": "_totalToSend",
          "type": "uint256"
        },
        {
          "internalType": "bool",
          "name": "_isDeflationary",
          "type": "bool"
        },
        {
          "internalType": "bool",
          "name": "_optimized",
          "type": "bool"
        },
        {
          "internalType": "string",
          "name": "_afCode",
          "type": "string"
        }
      ],
      "name": "erc20Airdrop",
      "outputs": [
        {
          "internalType": "bool",
          "name": "success",
          "type": "bool"
        }
      ],
      "stateMutability": "payable",
      "type": "function",
      "payable": true
    },
    {
      "inputs": [
        {
          "internalType": "address",
          "name": "_addressOfNFT",
          "type": "address"
        },
        {
          "internalType": "address[]",
          "name": "_recipients",
          "type": "address[]"
        },
        {
          "internalType": "uint256[]",
          "name": "_tokenIds",
          "type": "uint256[]"
        },
        {
          "internalType": "bool",
          "name": "_optimized",
          "type": "bool"
        },
        {
          "internalType": "string",
          "name": "_afCode",
          "type": "string"
        }
      ],
      "name": "erc721Airdrop",
      "outputs": [
        {
          "internalType": "bool",
          "name": "success",
          "type": "bool"
        }
      ],
      "stateMutability": "payable",
      "type": "function",
      "payable": true
    },
    {
      "inputs": [
        {
          "internalType": "address",
          "name": "_addressOfNFT",
          "type": "address"
        },
        {
          "internalType": "address[]",
          "name": "_recipients",
          "type": "address[]"
        },
        {
          "internalType": "uint256[]",
          "name": "_ids",
          "type": "uint256[]"
        },
        {
          "internalType": "uint256[]",
          "name": "_amounts",
          "type": "uint256[]"
        },
        {
          "internalType": "bool",
          "name": "_optimized",
          "type": "bool"
        },
        {
          "internalType": "string",
          "name": "_afCode",
          "type": "string"
        }
      ],
      "name": "erc1155Airdrop",
      "outputs": [
        {
          "internalType": "bool",
          "name": "success",
          "type": "bool"
        }
      ],
      "stateMutability": "payable",
      "type": "function",
      "payable": true
    },
    {
      "inputs": [],
      "name": "withdrawFunds",
      "outputs": [
        {
          "internalType": "bool",
          "name": "success",
          "type": "bool"
        }
      ],
      "stateMutability": "nonpayable",
      "type": "function"
    },
    {
      "inputs": [
        {
          "internalType": "address",
          "name": "_addressOfToken",
          "type": "address"
        },
        {
          "internalType": "address",
          "name": "_recipient",
          "type": "address"
        },
        {
          "internalType": "uint256",
          "name": "_value",
          "type": "uint256"
        }
      ],
      "name": "withdrawERC20Tokens",
      "outputs": [
        {
          "internalType": "bool",
          "name": "success",
          "type": "bool"
        }
      ],
      "stateMutability": "nonpayable",
      "type": "function"
    }
  ],
  "bytecode": "0x608060405234801561001057600080fd5b50600080546001600160a01b03191633179055610bb860145566012f2a36ecd555601555670c7d713b49da0000600f55671158e460913d0000601055671bc16d674ec800006011556722b1c8c1227a0000601255674563918244f400006013556140ae8061007f6000396000f3fe60806040526004361061036f5760003560e01c80636cca7d3c116101c6578063b1867685116100f7578063e24f6a9711610095578063f2fde38b1161006f578063f2fde38b14610a53578063f519983514610a75578063f86af85114610aa2578063fec5c0c614610ab557600080fd5b8063e24f6a97146109fd578063e5a8ec5b14610a1d578063ea7ee01014610a3357600080fd5b8063be6630c8116100d1578063be6630c814610977578063ceb10f0b146109a7578063d34937db146109c7578063df3b0ad1146109e757600080fd5b8063b186768514610921578063bb12db5c14610941578063bcdd1e131461095757600080fd5b80638da5cb5b11610164578063a39a2b761161013e578063a39a2b76146108b8578063a7296ee9146108ce578063a7ced8e2146108e1578063ac5b2bbc1461090157600080fd5b80638da5cb5b146108585780638faea9a7146108785780638ffd58ad1461089857600080fd5b8063893d20e8116101a0578063893d20e8146107cd578063896bac23146107eb5780638a53a1301461080b5780638ad95cf11461083857600080fd5b80636cca7d3c1461076d5780636dd776491461079a57806375f1a95a146107ad57600080fd5b806339cb9ba8116102a05780634a4a2feb1161023e578063583a239011610218578063583a2390146106b1578063590925e2146106c4578063593d98b11461071d578063638c5da91461073d57600080fd5b80634a4a2feb146106415780634a4df5591461066e5780634fa851861461068157600080fd5b80633d2375f91161027a5780633d2375f9146105a6578063428b52f8146105e157806343a92b411461060e5780634930df8f1461062e57600080fd5b806339cb9ba81461055d5780633aaff47f146105705780633b9ff8431461058657600080fd5b80631e93a9f21161030d5780632a769eb4116102e75780632a769eb4146104f45780632c4e722e1461051457806334fcf4371461052a5780633671caa01461054a57600080fd5b80631e93a9f2146104a957806323a0fb02146104bf57806324600fc3146104df57600080fd5b80630e160255116103495780630e1602551461040157806317077fb71461043957806319acc3671461045957806319d30a401461048957600080fd5b806306d7d80f1461037e578063088ea102146103a65780630ad92c31146103e157600080fd5b3661037957600080fd5b600080fd5b61039161038c36600461351a565b610ad5565b60405190151581526020015b60405180910390f35b3480156103b257600080fd5b506103d36103c1366004613566565b60076020526000908152604090205481565b60405190815260200161039d565b3480156103ed57600080fd5b506103916103fc366004613566565b610aee565b34801561040d57600080fd5b506103d361041c36600461351a565b8051602081830181018051600e8252928201919093012091525481565b34801561044557600080fd5b506103d3610454366004613566565b610b9f565b34801561046557600080fd5b50610391610474366004613566565b60056020526000908152604090205460ff1681565b34801561049557600080fd5b506103916104a4366004613566565b610bfd565b3480156104b557600080fd5b506103d360135481565b3480156104cb57600080fd5b506103916104da366004613566565b610c3e565b3480156104eb57600080fd5b50610391610c5c565b34801561050057600080fd5b506103d361050f366004613581565b610cc9565b34801561052057600080fd5b506103d360145481565b34801561053657600080fd5b506103916105453660046135ab565b610d24565b6103916105583660046136ce565b610dca565b61039161056b36600461379b565b6111d1565b34801561057c57600080fd5b506103d360125481565b34801561059257600080fd5b506103916105a1366004613566565b611501565b3480156105b257600080fd5b506103916105c136600461351a565b8051602081830181018051600b8252928201919093012091525460ff1681565b3480156105ed57600080fd5b506103d36105fc366004613566565b60036020526000908152604090205481565b34801561061a57600080fd5b50610391610629366004613566565b611662565b61039161063c36600461351a565b6116fd565b34801561064d57600080fd5b5061066161065c366004613566565b61170d565b60405161039d9190613879565b61039161067c3660046138ac565b6117a7565b34801561068d57600080fd5b5061039161069c366004613566565b60096020526000908152604090205460ff1681565b6103916106bf366004613978565b611de9565b3480156106d057600080fd5b506107056106df36600461351a565b8051602081830181018051600a825292820191909301209152546001600160a01b031681565b6040516001600160a01b03909116815260200161039d565b34801561072957600080fd5b50610391610738366004613566565b612010565b34801561074957600080fd5b50610391610758366004613566565b60066020526000908152604090205460ff1681565b34801561077957600080fd5b506103d3610788366004613566565b60016020526000908152604090205481565b6103916107a836600461351a565b61202e565b3480156107b957600080fd5b506103916107c8366004613581565b61203e565b3480156107d957600080fd5b506000546001600160a01b0316610705565b3480156107f757600080fd5b50610391610806366004613a0a565b6120d5565b34801561081757600080fd5b506103d3610826366004613566565b60026020526000908152604090205481565b34801561084457600080fd5b506103916108533660046135ab565b612146565b34801561086457600080fd5b50600054610705906001600160a01b031681565b34801561088457600080fd5b50610391610893366004613566565b61217a565b3480156108a457600080fd5b506103d36108b3366004613566565b6121bb565b3480156108c457600080fd5b506103d360155481565b6103916108dc36600461351a565b612200565b3480156108ed57600080fd5b506103916108fc366004613581565b612211565b34801561090d57600080fd5b506103d361091c366004613566565b61225d565b34801561092d57600080fd5b5061066161093c366004613566565b612293565b34801561094d57600080fd5b506103d360105481565b34801561096357600080fd5b50610391610972366004613a3c565b6122ac565b34801561098357600080fd5b50610391610992366004613566565b60086020526000908152604090205460ff1681565b3480156109b357600080fd5b506103916109c2366004613581565b612393565b3480156109d357600080fd5b506103916109e2366004613566565b6123df565b3480156109f357600080fd5b506103d360115481565b348015610a0957600080fd5b50610391610a18366004613a78565b612497565b348015610a2957600080fd5b506103d3600f5481565b348015610a3f57600080fd5b506103d3610a4e366004613acf565b61276e565b348015610a5f57600080fd5b50610a73610a6e366004613566565b6127eb565b005b348015610a8157600080fd5b506103d3610a90366004613566565b60046020526000908152604090205481565b610391610ab0366004613b02565b61289f565b348015610ac157600080fd5b50610391610ad0366004613566565b6129a3565b6000610ae5601f60115484612a79565b50600192915050565b600080546001600160a01b03163314610b225760405162461bcd60e51b8152600401610b1990613b50565b60405180910390fd5b610b2b8261217a565b15610b725760405162461bcd60e51b8152602060048201526017602482015276151bdad95b881a5cc8185b1c9958591e481b1a5cdd1959604a1b6044820152606401610b19565b506001600160a01b0381166000908152600860205260409020805460ff191660019081179091555b919050565b6001600160a01b03811660009081526007602052604081205415610bf5576001600160a01b038216600090815260076020526040902054601354606491610be591613bae565b610bef9190613bcd565b92915050565b505060135490565b6001600160a01b03811660009081526004602052604081205442111580610bef5750506001600160a01b031660009081526005602052604090205460ff1690565b6001600160a01b031660009081526001602052604090205460641190565b600080546001600160a01b03163314610c875760405162461bcd60e51b8152600401610b1990613b50565b600080546040516001600160a01b03909116914780156108fc02929091818181858888f19350505050158015610cc1573d6000803e3d6000fd5b506001905090565b6001600160a01b03821660009081526003602052604081205415610d1e576001600160a01b038316600090815260036020526040902054606490610d0d9084613bae565b610d179190613bcd565b9050610bef565b50919050565b600080546001600160a01b03163314610d4f5760405162461bcd60e51b8152600401610b1990613b50565b6014548214158015610d615750600082115b610d6a57600080fd5b60145460408051918252602082018490527f4ac9052a820bf4f8c02d7588587cae835573b5b99ea7ad4ca002f17f319f7186910160405180910390a16014829055670de0b6b3a7640000610dbe8382613bcd565b60155550600192915050565b60008451865114610ded5760405162461bcd60e51b8152600401610b1990613bef565b8351865114610e745760405162461bcd60e51b815260206004820152604760248201527f546f74616c206e756d626572206f6620726563697069656e747320616e64207460448201527f6f74616c206e756d626572206f6620616d6f756e747320617265206e6f74207460648201526668652073616d6560c81b608482015260a401610b19565b6000610e7f83612bb3565b60155488519192508991600091610e9591613bae565b90506000610ea233610bfd565b80610eb15750610eb18b61217a565b90506000610ebe8c610c3e565b8015610ece5750610ece33612010565b90508234101580610edc5750805b80610ee45750815b610f005760405162461bcd60e51b8152600401610b1990613c5c565b8080610f095750815b8015610f155750600034115b15610f4c5760405133903480156108fc02916000818181858888f19350505050158015610f46573d6000803e3d6000fd5b50610f55565b610f558361301f565b8715610fc4576040516322e31d0560e11b81526001600160a01b038516906345c63a0a90610f8d9033908f908f908f90600401613d17565b600060405180830381600087803b158015610fa757600080fd5b505af1158015610fbb573d6000803e3d6000fd5b505050506110c0565b60005b8b518110156110be57846001600160a01b031663f242432a338e8481518110610ff257610ff2613d6c565b60200260200101518e858151811061100c5761100c613d6c565b60200260200101518e868151811061102657611026613d6c565b60209081029190910101516040516001600160e01b031960e087901b1681526001600160a01b0394851660048201529390921660248401526044830152606482015260a06084820152600060a482015260c401600060405180830381600087803b15801561109357600080fd5b505af11580156110a7573d6000803e3d6000fd5b5050505080806110b690613d82565b915050610fc7565b505b6110c98c610c3e565b1561110d578a516001600160a01b038d166000908152600160205260409020546110f39190613d9b565b6001600160a01b038d166000908152600160205260409020555b61111633612010565b15611148578a51336000908152600260205260409020546111379190613d9b565b336000908152600260205260409020555b80158015611154575081155b15611171576111716015548c5161116b9190613bae565b86613069565b8b6001600160a01b0316336001600160a01b03167f1063145c965d286a343f0a3e8139199e3c86cab6ac1adb1d604a135295f43c768d516040516111b791815260200190565b60405180910390a35060019b9a5050505050505050505050565b600083518551146111f45760405162461bcd60e51b8152600401610b1990613bef565b60006111ff83612bb3565b6015548751919250889160009161121591613bae565b9050600061122233610bfd565b8061123157506112318a61217a565b9050600061123e8b610c3e565b801561124e575061124e33612010565b9050823410158061125c5750805b806112645750815b6112805760405162461bcd60e51b8152600401610b1990613c5c565b80806112895750815b80156112955750600034115b156112cc5760405133903480156108fc02916000818181858888f193505050501580156112c6573d6000803e3d6000fd5b506112d5565b6112d58361301f565b8715611342576040516304b1cddf60e31b81526001600160a01b0385169063258e6ef89061130b9033908e908e90600401613db3565b600060405180830381600087803b15801561132557600080fd5b505af1158015611339573d6000803e3d6000fd5b505050506113f7565b60005b8a518110156113f557846001600160a01b03166323b872dd338d848151811061137057611370613d6c565b60200260200101518d858151811061138a5761138a613d6c565b60200260200101516040518463ffffffff1660e01b81526004016113b093929190613df3565b600060405180830381600087803b1580156113ca57600080fd5b505af11580156113de573d6000803e3d6000fd5b5050505080806113ed90613d82565b915050611345565b505b6114008b610c3e565b156114445789516001600160a01b038c1660009081526001602052604090205461142a9190613d9b565b6001600160a01b038c166000908152600160205260409020555b61144d33612010565b1561147f5789513360009081526002602052604090205461146e9190613d9b565b336000908152600260205260409020555b8015801561148b575081155b156114a2576114a26015548b5161116b9190613bae565b8a6001600160a01b0316336001600160a01b03167f1063145c965d286a343f0a3e8139199e3c86cab6ac1adb1d604a135295f43c768c516040516114e891815260200190565b60405180910390a35060019a9950505050505050505050565b600080546001600160a01b0316331461152c5760405162461bcd60e51b8152600401610b1990613b50565b6001600160a01b03821660009081526009602052604090205460ff1661155157600080fd5b6001600160a01b0382166000908152600960209081526040808320805460ff19169055600c9091528082209051600a9161158a91613ee3565b908152604080516020928190038301812080546001600160a01b0319166001600160a01b039586161790559285166000908152600c90925290206115cd91613ee3565b604051908190038120906001600160a01b038416907f4ddc7b8659a2faf8698c810ab0219aa981bfccb47c036d3cc7ae8a32c15dc4ec90600090a3604080518082018252601e81527f4e6f206c6f6e67657220616e20616666696c6961746520706172746e6572000060208083019182526001600160a01b0386166000908152600c909152929092209051610ae592906133d3565b600080546001600160a01b0316331461168d5760405162461bcd60e51b8152600401610b1990613b50565b6116968261217a565b6116d85760405162461bcd60e51b815260206004820152601360248201527224b9903737ba103634b9ba32b2103a37b5b2b760691b6044820152606401610b19565b506001600160a01b03166000908152600860205260409020805460ff19169055600190565b6000610ae5600760105484612a79565b600c602052600090815260409020805461172690613e17565b80601f016020809104026020016040519081016040528092919081815260200182805461175290613e17565b801561179f5780601f106117745761010080835404028352916020019161179f565b820191906000526020600020905b81548152906001019060200180831161178257829003601f168201915b505050505081565b6000806117b383612bb3565b875189519192508a91146117d95760405162461bcd60e51b8152600401610b1990613eef565b60006015548a516117ea9190613bae565b905060006117f733610bfd565b8061180657506118068c61217a565b905060006118138d610c3e565b8015611823575061182333612010565b9050823410158061183857506118388d610c3e565b80611847575061184733612010565b8061184f5750815b61186b5760405162461bcd60e51b8152600401610b1990613c5c565b80806118745750815b80156118805750600034115b156118b75760405133903480156108fc02916000818181858888f193505050501580156118b1573d6000803e3d6000fd5b506118c0565b6118c08361301f565b871561198d576040516323b872dd60e01b81526001600160a01b038516906323b872dd906118f690339030908f90600401613df3565b600060405180830381600087803b15801561191057600080fd5b505af1158015611924573d6000803e3d6000fd5b5050604051633ae4b60360e21b81526001600160a01b038716925063eb92d80c9150611956908f908f90600401613f42565b600060405180830381600087803b15801561197057600080fd5b505af1158015611984573d6000803e3d6000fd5b50505050611cdd565b88611c28576040516323b872dd60e01b81526001600160a01b038516906323b872dd906119c290339030908f90600401613df3565b600060405180830381600087803b1580156119dc57600080fd5b505af11580156119f0573d6000803e3d6000fd5b5050505060005b8c51811015611aca57846001600160a01b031663a9059cbb8e8381518110611a2157611a21613d6c565b60200260200101518e8481518110611a3b57611a3b613d6c565b60200260200101516040518363ffffffff1660e01b8152600401611a749291906001600160a01b03929092168252602082015260400190565b6020604051808303816000875af1158015611a93573d6000803e3d6000fd5b505050506040513d601f19601f82011682018060405250810190611ab79190613f70565b5080611ac281613d82565b9150506119f7565b506040516370a0823160e01b81523060048201526000906001600160a01b038616906370a08231906024016020604051808303816000875af1158015611b14573d6000803e3d6000fd5b505050506040513d601f19601f82011682018060405250810190611b389190613f8d565b1115611c23576040516370a0823160e01b81523060048201526001600160a01b0385169063a9059cbb90339083906370a08231906024016020604051808303816000875af1158015611b8e573d6000803e3d6000fd5b505050506040513d601f19601f82011682018060405250810190611bb29190613f8d565b6040516001600160e01b031960e085901b1681526001600160a01b03909216600483015260248201526044016020604051808303816000875af1158015611bfd573d6000803e3d6000fd5b505050506040513d601f19601f82011682018060405250810190611c219190613f70565b505b611cdd565b60005b8c51811015611cdb57846001600160a01b03166323b872dd338f8481518110611c5657611c56613d6c565b60200260200101518f8581518110611c7057611c70613d6c565b60200260200101516040518463ffffffff1660e01b8152600401611c9693929190613df3565b600060405180830381600087803b158015611cb057600080fd5b505af1158015611cc4573d6000803e3d6000fd5b505050508080611cd390613d82565b915050611c2b565b505b611ce68d610c3e565b15611d2a578b516001600160a01b038e16600090815260016020526040902054611d109190613d9b565b6001600160a01b038e166000908152600160205260409020555b611d3333612010565b15611d65578b5133600090815260026020526040902054611d549190613d9b565b336000908152600260205260409020555b80158015611d71575081155b15611d8857611d886015548d5161116b9190613bae565b8c6001600160a01b0316336001600160a01b03167f39015fe519110ce3ccad418b153817407dc5312684839c8700af7436a80a07af8e51604051611dce91815260200190565b60405180910390a35060019c9b505050505050505050505050565b60008351855114611e0c5760405162461bcd60e51b8152600401610b1990613eef565b60155485518491600091611e209190613bae565b90506000611e2e8284613d9b565b90506000611e3b33612010565b90506000611e4833610bfd565b1515600115151490508234101580611e5d5750805b80611e655750815b611e815760405162461bcd60e51b8152600401610b1990613c5c565b611e8a87612bb3565b965080158015611e98575081155b15611ea757611ea78488613069565b8080611eb05750815b8015611ebb57508734115b15611efc57336108fc611ece8a34613fa6565b6040518115909202916000818181858888f19350505050158015611ef6573d6000803e3d6000fd5b50611f05565b611f058361301f565b60005b8a51811015611f8f578a8181518110611f2357611f23613d6c565b60200260200101516001600160a01b03166108fc8b8381518110611f4957611f49613d6c565b60200260200101519081150290604051600060405180830381858888f19350505050158015611f7c573d6000803e3d6000fd5b5080611f8781613d82565b915050611f08565b508115611fc357895133600090815260026020526040902054611fb29190613d9b565b336000908152600260205260409020555b8951604080519182526020820187905233917f96280f1b9a54271a5ff3d2bc027d857d9386da43de7540d42b8b73180a15864a910160405180910390a25060019998505050505050505050565b6001600160a01b031660009081526002602052604090205460641190565b6000610ae56001600f5484612a79565b600080546001600160a01b031633146120695760405162461bcd60e51b8152600401610b1990613b50565b6001600160a01b03831660009081526009602052604090205460ff1661208e57600080fd5b6001600160a01b0383166000908152600c60205260409081902090518390600e906120ba908490613ee3565b90815260405190819003602001902055506001905092915050565b600080546001600160a01b031633146121005760405162461bcd60e51b8152600401610b1990613b50565b60008511801561210f57508385105b801561211a57508284105b801561212557508183105b61212e57600080fd5b50600f93909355601091909155601155601255600190565b600080546001600160a01b031633146121715760405162461bcd60e51b8152600401610b1990613b50565b50601355600190565b6001600160a01b03811660009081526006602052604081205460ff1680610bef5750506001600160a01b031660009081526008602052604090205460ff1690565b60006121c682610c3e565b156121f8576001600160a01b0382166000908152600160205260409020546064906121f19082613fa6565b9392505050565b506000919050565b6000610ae5618e9460125484612a79565b600080546001600160a01b0316331461223c5760405162461bcd60e51b8152600401610b1990613b50565b506001600160a01b0391909116600090815260076020526040902055600190565b600061226882612010565b156121f8576001600160a01b0382166000908152600260205260409020546064906121f19082613fa6565b600d602052600090815260409020805461172690613e17565b600080546001600160a01b031633146122d75760405162461bcd60e51b8152600401610b1990613b50565b60405163a9059cbb60e01b81526001600160a01b0384811660048301526024820184905285919082169063a9059cbb906044016020604051808303816000875af1158015612329573d6000803e3d6000fd5b505050506040513d601f19601f8201168201806040525081019061234d9190613f70565b507ee763f7778b8ceef7270c89b7d1df1008b0e482da39c43831417733af96fb0d85858560405161238093929190613df3565b60405180910390a1506001949350505050565b600080546001600160a01b031633146123be5760405162461bcd60e51b8152600401610b1990613b50565b506001600160a01b0391909116600090815260036020526040902055600190565b600080546001600160a01b0316331461240a5760405162461bcd60e51b8152600401610b1990613b50565b6001600160a01b03821660009081526005602052604090205460ff166124725760405162461bcd60e51b815260206004820152601860248201527f4e6f742061206772616e746564206d656d6265727368697000000000000000006044820152606401610b19565b506001600160a01b03166000908152600560205260409020805460ff19169055600190565b600080546001600160a01b031633146124c25760405162461bcd60e51b8152600401610b1990613b50565b6001600160a01b03841660009081526009602052604090205460ff161561252b5760405162461bcd60e51b815260206004820181905260248201527f4164647265737320697320616c726561647920616e20616666696c696174652e6044820152606401610b19565b6001600160a01b0384166125815760405162461bcd60e51b815260206004820152601860248201527f307830302061646472657373206e6f7420616c6c6f77656400000000000000006044820152606401610b19565b600b836040516125919190613fbd565b9081526040519081900360200190205460ff16156125f15760405162461bcd60e51b815260206004820152601e60248201527f416666696c6961746520636f646520616c7265616479206578697374732100006044820152606401610b19565b606482111580156126025750600082115b61264e5760405162461bcd60e51b815260206004820181905260248201527f50657263656e74616765206d757374206265203e2030202626203c3d203130306044820152606401610b19565b6001600b846040516126609190613fbd565b908152604080519182900360209081018320805494151560ff199586161790556001600160a01b038816600090815260099091522080549092166001179091558490600a906126b0908690613fbd565b908152604080516020928190038301902080546001600160a01b0319166001600160a01b039485161790559186166000908152600c82529190912084516126f9928601906133d3565b5081600e8460405161270b9190613fbd565b90815260405190819003602001812091909155612729908490613fbd565b604051908190038120906001600160a01b038616907ff30f92c3d1eddb3772622c3b7d6a3985a8de818f7eebd5cef6650ee86d5ddbce90600090a35060019392505050565b604051636eb1769f60e11b81526001600160a01b038381166004830152306024830152600091839182169063dd62ed3e90604401602060405180830381865afa1580156127bf573d6000803e3d6000fd5b505050506040513d601f19601f820116820180604052508101906127e39190613f8d565b949350505050565b6000546001600160a01b031633146128155760405162461bcd60e51b8152600401610b1990613b50565b6001600160a01b0381161580159061283b57506000546001600160a01b03828116911614155b61284457600080fd5b600080546040516001600160a01b03808516939216917f8be0079c531659141344cd1fd0a4f28419497f9722a3daafe3b4186f6b6457e091a3600080546001600160a01b0319166001600160a01b0392909216919091179055565b60006128aa8361217a565b156128f15760405162461bcd60e51b8152602060048201526017602482015276151bdad95b881a5cc8185b1c9958591e481b1a5cdd1959604a1b6044820152606401610b19565b6128fa82612bb3565b9150600061290784610b9f565b9050803410156129635760405162461bcd60e51b815260206004820152602160248201527f4e6f7420656e6f7567682066756e64732073656e7420666f72206c697374696e6044820152606760f81b6064820152608401610b19565b6001600160a01b0384166000908152600660205260409020805460ff1916600117905561298f8161301f565b6129998184613069565b5060019392505050565b600080546001600160a01b031633146129ce5760405162461bcd60e51b8152600401610b1990613b50565b6129d782610bfd565b1515600103612a285760405162461bcd60e51b815260206004820152601f60248201527f497320616c7265616479207072656d69756d4d656d626572206d656d626572006044820152606401610b19565b6001600160a01b038216600081815260056020526040808220805460ff19166001179055517fc6b9fca7b2e1cbd5b69b197ea298ab7dc0c58d469fc42acebdd4d38acb0095159190a2506001919050565b6000612a8433610bfd565b1515600103612ad55760405162461bcd60e51b815260206004820152601f60248201527f497320616c7265616479207072656d69756d4d656d626572206d656d626572006044820152606401610b19565b6000612ae13385610cc9565b905080341015612af082613244565b612af934613244565b604051602001612b0a929190613fd9565b60405160208183030381529060405290612b375760405162461bcd60e51b8152600401610b199190613879565b50612b458562015180613bae565b612b4f9042613d9b565b33600090815260046020526040902055612b6883612bb3565b9250612b738161301f565b612b7d8184613069565b60405133907fc6b9fca7b2e1cbd5b69b197ea298ab7dc0c58d469fc42acebdd4d38acb00951590600090a2506001949350505050565b336000908152600d602052604090208054606091612c7491612bd490613e17565b80601f0160208091040260200160405190810160405280929190818152602001828054612c0090613e17565b8015612c4d5780601f10612c2257610100808354040283529160200191612c4d565b820191906000526020600020905b815481529060010190602001808311612c3057829003601f168201915b5050505050604051806040016040528060048152602001631d9bda5960e21b815250613370565b80612cbc575060096000600a84604051612c8e9190613fbd565b9081526040805160209281900383019020546001600160a01b0316835290820192909252016000205460ff16155b15612d1b5760408051808201825260048152631d9bda5960e21b6020808301918252336000908152600d909152929092209051612cf992906133d3565b50506040805180820190915260048152631d9bda5960e21b6020820152919050565b612d348260405180602001604052806000815250613370565b158015612dee5750336000908152600d602052604090208054612dee9190612d5b90613e17565b80601f0160208091040260200160405190810160405280929190818152602001828054612d8790613e17565b8015612dd45780601f10612da957610100808354040283529160200191612dd4565b820191906000526020600020905b815481529060010190602001808311612db757829003601f168201915b505050505060405180602001604052806000815250613370565b8015612e195750600b82604051612e059190613fbd565b9081526040519081900360200190205460ff165b15612e9857336001600160a01b0316600a83604051612e389190613fbd565b908152604051908190036020019020546001600160a01b031603612e765750506040805180820190915260048152631d9bda5960e21b602082015290565b336000908152600d602090815260409091208351612e96928501906133d3565b505b612eb18260405180602001604052806000815250613370565b8015612ed95750336000908152600d602052604090208054612ed79190612d5b90613e17565b155b15612f7957336000908152600d602052604090208054612ef890613e17565b80601f0160208091040260200160405190810160405280929190818152602001828054612f2490613e17565b8015612f715780601f10612f4657610100808354040283529160200191612f71565b820191906000526020600020905b815481529060010190602001808311612f5457829003601f168201915b505050505091505b612f928260405180602001604052806000815250613370565b80612fbd5750600b82604051612fa89190613fbd565b9081526040519081900360200190205460ff16155b1561301b5760408051808201825260048152631d9bda5960e21b6020808301918252336000908152600d909152929092209051612ffa92906133d3565b50604051806040016040528060048152602001631d9bda5960e21b81525091505b5090565b803411156130665760006130338234613fa6565b604051909150339082156108fc029083906000818181858888f19350505050158015613063573d6000803e3d6000fd5b50505b50565b61308f81604051806040016040528060048152602001631d9bda5960e21b815250613370565b1580156130d8575060096000600a836040516130ab9190613fbd565b9081526040805160209281900383019020546001600160a01b0316835290820192909252016000205460ff165b1561320b5760006064600e836040516130f19190613fbd565b9081526020016040518091039020548461310b9190613bae565b6131159190613bcd565b6000549091506001600160a01b03166108fc6131318386613fa6565b6040518115909202916000818181858888f19350505050158015613159573d6000803e3d6000fd5b50600a8260405161316a9190613fbd565b908152604051908190036020018120546001600160a01b03169082156108fc029083906000818181858888f193505050501580156131ac573d6000803e3d6000fd5b50600a826040516131bd9190613fbd565b90815260405160209181900382018120548382526001600160a01b0316917f885e6f6235626292940f78c947a331f4c7c1d7f50a48b38092cf546bc9c7907a910160405180910390a2505050565b600080546040516001600160a01b039091169184156108fc02918591818181858888f19350505050158015613063573d6000803e3d6000fd5b60608160000361326b5750506040805180820190915260018152600360fc1b602082015290565b8160005b8115613295578061327f81613d82565b915061328e9050600a83613bcd565b915061326f565b60008167ffffffffffffffff8111156132b0576132b0613463565b6040519080825280601f01601f1916602001820160405280156132da576020820181803683370190505b509050815b8515613367576132f0600182613fa6565b905060006132ff600a88613bcd565b61330a90600a613bae565b6133149088613fa6565b61331f906030614053565b905060008160f81b90508084848151811061333c5761333c613d6c565b60200101906001600160f81b031916908160001a90535061335e600a89613bcd565b975050506132df565b50949350505050565b600080836040516020016133849190613fbd565b6040516020818303038152906040528051906020012090506000836040516020016133af9190613fbd565b60408051601f19818403018152919052805160209091012091909114949350505050565b8280546133df90613e17565b90600052602060002090601f0160209004810192826134015760008555613447565b82601f1061341a57805160ff1916838001178555613447565b82800160010185558215613447579182015b8281111561344757825182559160200191906001019061342c565b5061301b9291505b8082111561301b576000815560010161344f565b634e487b7160e01b600052604160045260246000fd5b604051601f8201601f1916810167ffffffffffffffff811182821017156134a2576134a2613463565b604052919050565b600082601f8301126134bb57600080fd5b813567ffffffffffffffff8111156134d5576134d5613463565b6134e8601f8201601f1916602001613479565b8181528460208386010111156134fd57600080fd5b816020850160208301376000918101602001919091529392505050565b60006020828403121561352c57600080fd5b813567ffffffffffffffff81111561354357600080fd5b6127e3848285016134aa565b80356001600160a01b0381168114610b9a57600080fd5b60006020828403121561357857600080fd5b6121f18261354f565b6000806040838503121561359457600080fd5b61359d8361354f565b946020939093013593505050565b6000602082840312156135bd57600080fd5b5035919050565b600067ffffffffffffffff8211156135de576135de613463565b5060051b60200190565b600082601f8301126135f957600080fd5b8135602061360e613609836135c4565b613479565b82815260059290921b8401810191818101908684111561362d57600080fd5b8286015b8481101561364f576136428161354f565b8352918301918301613631565b509695505050505050565b600082601f83011261366b57600080fd5b8135602061367b613609836135c4565b82815260059290921b8401810191818101908684111561369a57600080fd5b8286015b8481101561364f578035835291830191830161369e565b801515811461306657600080fd5b8035610b9a816136b5565b60008060008060008060c087890312156136e757600080fd5b6136f08761354f565b9550602087013567ffffffffffffffff8082111561370d57600080fd5b6137198a838b016135e8565b9650604089013591508082111561372f57600080fd5b61373b8a838b0161365a565b9550606089013591508082111561375157600080fd5b61375d8a838b0161365a565b945061376b60808a016136c3565b935060a089013591508082111561378157600080fd5b5061378e89828a016134aa565b9150509295509295509295565b600080600080600060a086880312156137b357600080fd5b6137bc8661354f565b9450602086013567ffffffffffffffff808211156137d957600080fd5b6137e589838a016135e8565b955060408801359150808211156137fb57600080fd5b61380789838a0161365a565b945060608801359150613819826136b5565b9092506080870135908082111561382f57600080fd5b5061383c888289016134aa565b9150509295509295909350565b60005b8381101561386457818101518382015260200161384c565b83811115613873576000848401525b50505050565b6020815260008251806020840152613898816040850160208701613849565b601f01601f19169190910160400192915050565b600080600080600080600060e0888a0312156138c757600080fd5b6138d08861354f565b9650602088013567ffffffffffffffff808211156138ed57600080fd5b6138f98b838c016135e8565b975060408a013591508082111561390f57600080fd5b61391b8b838c0161365a565b965060608a0135955060808a01359150613934826136b5565b90935060a089013590613946826136b5565b90925060c0890135908082111561395c57600080fd5b506139698a828b016134aa565b91505092959891949750929550565b6000806000806080858703121561398e57600080fd5b843567ffffffffffffffff808211156139a657600080fd5b6139b2888389016135e8565b955060208701359150808211156139c857600080fd5b6139d48883890161365a565b94506040870135935060608701359150808211156139f157600080fd5b506139fe878288016134aa565b91505092959194509250565b60008060008060808587031215613a2057600080fd5b5050823594602084013594506040840135936060013592509050565b600080600060608486031215613a5157600080fd5b613a5a8461354f565b9250613a686020850161354f565b9150604084013590509250925092565b600080600060608486031215613a8d57600080fd5b613a968461354f565b9250602084013567ffffffffffffffff811115613ab257600080fd5b613abe868287016134aa565b925050604084013590509250925092565b60008060408385031215613ae257600080fd5b613aeb8361354f565b9150613af96020840161354f565b90509250929050565b60008060408385031215613b1557600080fd5b613b1e8361354f565b9150602083013567ffffffffffffffff811115613b3a57600080fd5b613b46858286016134aa565b9150509250929050565b60208082526028908201527f46756e6374696f6e207265737472696374656420746f206f776e6572206f662060408201526718dbdb9d1c9858dd60c21b606082015260800190565b634e487b7160e01b600052601160045260246000fd5b6000816000190483118215151615613bc857613bc8613b98565b500290565b600082613bea57634e487b7160e01b600052601260045260246000fd5b500490565b60208082526047908201527f546f74616c206e756d626572206f6620726563697069656e747320616e64207460408201527f6f74616c206e756d626572206f66204e46542049447320617265206e6f74207460608201526668652073616d6560c81b608082015260a00190565b60208082526027908201527f4e6f7420656e6f7567682066756e64732073656e742077697468207472616e73604082015266616374696f6e2160c81b606082015260800190565b600081518084526020808501945080840160005b83811015613cdc5781516001600160a01b031687529582019590820190600101613cb7565b509495945050505050565b600081518084526020808501945080840160005b83811015613cdc57815187529582019590820190600101613cfb565b6001600160a01b0385168152608060208201819052600090613d3b90830186613ca3565b8281036040840152613d4d8186613ce7565b90508281036060840152613d618185613ce7565b979650505050505050565b634e487b7160e01b600052603260045260246000fd5b600060018201613d9457613d94613b98565b5060010190565b60008219821115613dae57613dae613b98565b500190565b6001600160a01b0384168152606060208201819052600090613dd790830185613ca3565b8281036040840152613de98185613ce7565b9695505050505050565b6001600160a01b039384168152919092166020820152604081019190915260600190565b600181811c90821680613e2b57607f821691505b602082108103610d1e57634e487b7160e01b600052602260045260246000fd5b8054600090600181811c9080831680613e6557607f831692505b60208084108203613e8657634e487b7160e01b600052602260045260246000fd5b818015613e9a5760018114613eab57613ed7565b60ff19861689528489019650613ed7565b876000528160002060005b86811015613ecf5781548b820152908501908301613eb6565b505084890196505b50505050505092915050565b60006121f18284613e4b565b60208082526033908201527f546f74616c206e756d626572206f6620726563697069656e747320616e642076604082015272185b1d595cc8185c99481b9bdd08195c5d585b606a1b606082015260800190565b604081526000613f556040830185613ca3565b8281036020840152613f678185613ce7565b95945050505050565b600060208284031215613f8257600080fd5b81516121f1816136b5565b600060208284031215613f9f57600080fd5b5051919050565b600082821015613fb857613fb8613b98565b500390565b60008251613fcf818460208701613849565b9190910192915050565b750383932b6b4bab6a6b2b6b132b9103332b29034b99d160551b81526000835161400a816016850160208801613849565b7f2e204e6f7420656e6f7567682066756e64732073656e742e2000000000000000601691840191820152835161404781602f840160208801613849565b01602f01949350505050565b600060ff821660ff84168060ff0382111561407057614070613b98565b01939250505056fea26469706673582212207e75ff8e5e0b96068a17d670282358d0faf19cfe2524b7c9cf6713af0204298c64736f6c634300080d0033",
  "immutableReferences": {},
  "source": "pragma solidity ^0.8.0;\n \n\ncontract Ownable {\n    \n    address public owner;\n    \n    event OwnershipTransferred(address indexed from, address indexed to);\n    \n    /**\n     * Constructor assigns ownership to the address used to deploy the contract.\n     * */\n    constructor() {\n        owner = msg.sender;\n    }\n\n    function getOwner() public view returns(address) {\n        return owner;\n    }\n\n    /**\n     * Any function with this modifier in its method signature can only be executed by\n     * the owner of the contract. Any attempt made by any other account to invoke the \n     * functions with this modifier will result in a loss of gas and the contract's state\n     * will remain untampered.\n     * */\n    modifier onlyOwner {\n        require(msg.sender == owner, \"Function restricted to owner of contract\");\n        _;\n    }\n\n    /**\n     * Allows for the transfer of ownership to another address;\n     * \n     * @param _newOwner The address to be assigned new ownership.\n     * */\n    function transferOwnership(address _newOwner) public onlyOwner {\n        require(\n            _newOwner != address(0)\n            && _newOwner != owner \n        );\n        emit OwnershipTransferred(owner, _newOwner);\n        owner = _newOwner;\n    }\n}\n\n\n/**\n * Contract acts as an interface between the Crypto Multisender contract and all ERC20 compliant\n * tokens. \n * */\nabstract contract ERC20Interface {\n    function transferFrom(address _from, address _to, uint256 _value) public virtual;\n    function balanceOf(address who)  public virtual returns (uint256);\n    function allowance(address owner, address spender)  public view virtual returns (uint256);\n    function transfer(address to, uint256 value) public virtual returns(bool);\n    function gasOptimizedAirdrop(address[] calldata _addrs, uint256[] calldata _values) external virtual; \n}\n\n/**\n * Contract acts as an interface between the NFT Crypto Multisender contract and all ERC721 compliant\n * tokens. \n * */\nabstract contract ERC721Interface {\n    function transferFrom(address _from, address _to, uint256 _tokenId) public virtual;\n    function balanceOf(address who)  public virtual returns (uint256);\n    function isApprovedForAll(address _owner, address _operator) public view virtual returns(bool);\n    function setApprovalForAll(address _operator, bool approved) public virtual;\n    function gasOptimizedAirdrop(address _invoker, address[] calldata _addrs, uint256[] calldata _tokenIds) external virtual;\n}\n\n\n/**\n * Contract acts as an interface between the NFT Crypto Multisender contract and all ERC1155 compliant\n * tokens. \n * */\nabstract contract ERC1155Interface {\n    function safeTransferFrom(address _from, address _to, uint256 _tokenId, uint256 _amount, bytes memory data) public virtual;\n    function balanceOf(address _who, uint256 _id)  public virtual returns (uint256);\n    function isApprovedForAll(address _owner, address _operator) public view virtual returns(bool);\n    function setApprovalForAll(address _operator, bool approved) public virtual;\n    function gasOptimizedAirdrop(address _invoker, address[] calldata _addrs, uint256[] calldata _tokenIds, uint256[] calldata _amounts) external virtual;\n}\n\n\n\ncontract CryptoMultisender is Ownable {\n \n    mapping (address => uint256) public tokenTrialDrops;\n    mapping (address => uint256) public userTrialDrops;\n\n    mapping (address => uint256) public premiumMembershipDiscount;\n    mapping (address => uint256) public membershipExpiryTime;\n\n    mapping (address => bool) public isGrantedPremiumMember;\n\n    mapping (address => bool) public isListedToken;\n    mapping (address => uint256) public tokenListingFeeDiscount;\n\n    mapping (address => bool) public isGrantedListedToken;\n\n    mapping (address => bool) public isAffiliate;\n    mapping (string => address) public affiliateCodeToAddr;\n    mapping (string => bool) public affiliateCodeExists;\n    mapping (address => string) public affiliateCodeOfAddr;\n    mapping (address => string) public isAffiliatedWith;\n    mapping (string => uint256) public commissionPercentage;\n\n    uint256 public oneDayMembershipFee;\n    uint256 public sevenDayMembershipFee;\n    uint256 public oneMonthMembershipFee;\n    uint256 public lifetimeMembershipFee;\n    uint256 public tokenListingFee;\n    uint256 public rate;\n    uint256 public dropUnitPrice;\n\n    event TokenAirdrop(address indexed by, address indexed tokenAddress, uint256 totalTransfers);\n    event EthAirdrop(address indexed by, uint256 totalTransfers, uint256 ethValue);\n    event NftAirdrop(address indexed by, address indexed nftAddress, uint256 totalTransfers);\n    event RateChanged(uint256 from, uint256 to);\n    event RefundIssued(address indexed to, uint256 totalWei);\n    event ERC20TokensWithdrawn(address token, address sentTo, uint256 value);\n    event CommissionPaid(address indexed to, uint256 value);\n    event NewPremiumMembership(address indexed premiumMember);\n    event NewAffiliatePartnership(address indexed newAffiliate, string indexed affiliateCode);\n    event AffiliatePartnershipRevoked(address indexed affiliate, string indexed affiliateCode);\n    \n    constructor() {\n        rate = 3000;\n        dropUnitPrice = 333333333333333; \n        oneDayMembershipFee = 9e17;\n        sevenDayMembershipFee = 125e16;\n        oneMonthMembershipFee = 2e18;\n        lifetimeMembershipFee = 25e17;\n        tokenListingFee = 5e18;\n    }\n\n    /**\n     * Allows the owner of this contract to change the fees for users to become premium members.\n     * \n     * @param _oneDayFee Fee for single day membership.\n     * @param _sevenDayFee Fee for one week membership.\n     * @param _oneMonthFee Fee for one month membership.\n     * @param _lifetimeFee Fee for lifetime membership.\n     * \n     * @return success True if the fee is changed successfully. False otherwise.\n     * */\n    function setMembershipFees(uint256 _oneDayFee, uint256 _sevenDayFee, uint256 _oneMonthFee, uint256 _lifetimeFee) public onlyOwner returns(bool success) {\n        require(_oneDayFee>0 && _oneDayFee<_sevenDayFee && _sevenDayFee<_oneMonthFee && _oneMonthFee<_lifetimeFee);\n        oneDayMembershipFee = _oneDayFee;\n        sevenDayMembershipFee = _sevenDayFee;\n        oneMonthMembershipFee = _oneMonthFee;\n        lifetimeMembershipFee = _lifetimeFee;\n        return true;\n    }\n\n    /**\n     * Allows for the conversion of an unsigned integer to a string value. \n     * \n     * @param _i The value of the unsigned integer\n     * \n     * @return _uintAsString The string value of the unsigned integer.\n     * */\n    function uint2str(uint _i) internal pure returns (string memory _uintAsString) {\n        if (_i == 0) {\n            return \"0\";\n        }\n        uint j = _i;\n        uint len;\n        while (j != 0) {\n            len++;\n            j /= 10;\n        }\n        bytes memory bstr = new bytes(len);\n        uint k = len;\n        while (_i != 0) {\n            k = k-1;\n            uint8 temp = (48 + uint8(_i - _i / 10 * 10));\n            bytes1 b1 = bytes1(temp);\n            bstr[k] = b1;\n            _i /= 10;\n        }\n        return string(bstr);\n    }\n\n    /**\n    * Used to give change to users who accidentally send too much ETH to payable functions. \n    *\n    * @param _price The service fee the user has to pay for function execution. \n    **/\n    function giveChange(uint256 _price) internal {\n        if(msg.value > _price) {\n            uint256 change = msg.value - _price;\n            payable(msg.sender).transfer(change);\n        }\n    }\n    \n    /**\n    * Ensures that the correct affiliate code is used and also ensures that affiliate partners\n    * are not able to 'jack' commissions from existing users who they are not affiliated with. \n    *\n    * @param _afCode The affiliate code provided by the user.\n    *\n    * @return code The correct affiliate code or void.\n    **/\n    function processAffiliateCode(string memory _afCode) internal returns(string memory code) {\n        if(stringsAreEqual(isAffiliatedWith[msg.sender], \"void\") || !isAffiliate[affiliateCodeToAddr[_afCode]]) {\n            isAffiliatedWith[msg.sender] = \"void\";\n            return \"void\";\n        }\n        if(!stringsAreEqual(_afCode, \"\") && stringsAreEqual(isAffiliatedWith[msg.sender],\"\") \n                                                                && affiliateCodeExists[_afCode]) {\n            if(affiliateCodeToAddr[_afCode] == msg.sender) {\n                return \"void\";\n            }\n            isAffiliatedWith[msg.sender] = _afCode;\n        }\n        if(stringsAreEqual(_afCode,\"\") && !stringsAreEqual(isAffiliatedWith[msg.sender],\"\")) {\n            _afCode = isAffiliatedWith[msg.sender];\n        } \n        if(stringsAreEqual(_afCode,\"\") || !affiliateCodeExists[_afCode]) {\n            isAffiliatedWith[msg.sender] = \"void\";\n            _afCode = \"void\";\n        }\n        return _afCode;\n    }\n\n    /**\n     * Allows users to check if a user is a premium member or not. \n     * \n     * @param _addr The address of the user. \n     * \n     * @return isMember True if the user is a premium member, false otherwise.\n     * */\n    function checkIsPremiumMember(address _addr) public view returns(bool isMember) {\n        return membershipExpiryTime[_addr] >= block.timestamp || isGrantedPremiumMember[_addr];\n    }\n\n    /**\n    * Allows the owner of this contract to grant users with premium membership.\n    *\n    * @param _addr The address of the user who is being granted premium membership.\n    *\n    * @return success True if premium membership is granted successfully. False otherwise. \n    **/\n    function grantPremiumMembership(address _addr) public onlyOwner returns(bool success) {\n        require(checkIsPremiumMember(_addr) != true, \"Is already premiumMember member\");\n        isGrantedPremiumMember[_addr] = true;\n        emit NewPremiumMembership(_addr);\n        return true; \n    }\n\n    /**\n    * Allows the owner of this contract to revoke a granted membership.\n    *\n    * @param _addr The address of the user whos membership is being revoked.\n    *\n    * @return success True if membership is revoked successfully. False otherwise. \n    **/\n    function revokeGrantedPremiumMembership(address _addr) public onlyOwner returns(bool success) {\n        require(isGrantedPremiumMember[_addr], \"Not a granted membership\");\n        isGrantedPremiumMember[_addr] = false;\n        return true;\n    }\n\n    /**\n     * Allows the owner of the contract to grant a premium membership discount for a specified user.\n     * \n     * @param _addr The address of the user.\n     * @param _discount The discount being granted.\n     * \n     * @return success True if function executes successfully, false otherwise.\n     * */\n    function setPremiumMembershipDiscount(address _addr, uint256 _discount) public onlyOwner returns(bool success) {\n        premiumMembershipDiscount[_addr] = _discount;\n        return true;\n    }\n\n    /**\n     * Allows users to check VIP membership fees for a specific address. This is useful for validating if a discount\n     * has been granted for the specified user. \n     * \n     * @param _addr The address of the user.\n     * @param _fee The default fee. \n     * \n     * @return fee The membership fee for the specified user. \n     * \n     * */\n    function getPremiumMembershipFeeOfUser(address _addr, uint256 _fee) public view returns(uint256 fee) {\n        if(premiumMembershipDiscount[_addr] > 0) {\n            return _fee * premiumMembershipDiscount[_addr] / 100;\n        }\n        return _fee;\n    }\n\n    /**\n     * This function is invoked internally the functions for purchasing memberships.\n     * \n     * @param _days The number of days that the membership will be valid for. \n     * @param _fee The fee that is to be paid. \n     * @param _afCode If a user has been refferred by an affiliate partner, they can provide \n     * an affiliate code so the partner gets commission.\n     * \n     * @return success True if function executes successfully, false otherwise.\n     * */\n    function assignMembership(uint256 _days, uint256 _fee, string memory _afCode) internal returns(bool success) {\n        require(checkIsPremiumMember(msg.sender) != true, \"Is already premiumMember member\");\n        uint256 fee = getPremiumMembershipFeeOfUser(msg.sender, _fee);\n        require(\n            msg.value >= fee,\n            string(abi.encodePacked(\n                \"premiumMember fee is: \", uint2str(fee), \". Not enough funds sent. \", uint2str(msg.value)\n            ))\n        );\n        membershipExpiryTime[msg.sender] = block.timestamp + (_days * 1 days);\n        _afCode = processAffiliateCode(_afCode);\n        giveChange(fee);\n        distributeCommission(fee, _afCode);\n        emit NewPremiumMembership(msg.sender);\n        return true; \n    }\n\n    /**\n    * Allows users to become lifetime members.\n    *\n    * @param _afCode If a user has been refferred by an affiliate partner, they can provide \n    * an affiliate code so the partner gets commission.\n    *\n    * @return success True if user successfully becomes premium member. False otherwise. \n    **/\n    function becomeLifetimeMember(string memory _afCode) public payable returns(bool success) {\n        assignMembership(36500, lifetimeMembershipFee, _afCode);\n        return true;\n    }\n\n\n    /**\n    * Allows users to become members for 1 day.\n    *\n    * @param _afCode If a user has been refferred by an affiliate partner, they can provide \n    * an affiliate code so the partner gets commission.\n    *\n    * @return success True if user successfully becomes premium member. False otherwise. \n    **/\n    function becomeOneDayMember(string memory _afCode) public payable returns(bool success) {\n        assignMembership(1, oneDayMembershipFee, _afCode);\n        return true;\n    }\n\n\n    /**\n    * Allows users to become members for 7 days.\n    *\n    * @param _afCode If a user has been refferred by an affiliate partner, they can provide \n    * an affiliate code so the partner gets commission.\n    *\n    * @return success True if user successfully becomes premium member. False otherwise. \n    **/\n    function becomeOneWeekMember(string memory _afCode) public payable returns(bool success) {\n        assignMembership(7, sevenDayMembershipFee, _afCode);\n        return true;\n    }\n\n\n    /**\n    * Allows users to become members for 1 month\n    *\n    * @param _afCode If a user has been refferred by an affiliate partner, they can provide \n    * an affiliate code so the partner gets commission.\n    *\n    * @return success True if user successfully becomes premium member. False otherwise. \n    **/\n    function becomeOneMonthMember(string memory _afCode) public payable returns(bool success) {\n        assignMembership(31, oneMonthMembershipFee, _afCode);\n        return true;\n    }\n\n\n    /**\n     * Allows users to check whether or not a token is listed.\n     * \n     * @param _tokenAddr The address of the token to query.\n     * \n     * @return isListed True if the token is listed, false otherwise. \n     * */\n    function checkIsListedToken(address _tokenAddr) public view returns(bool isListed) {\n        return isListedToken[_tokenAddr] || isGrantedListedToken[_tokenAddr];\n    }\n\n\n    /**\n     * Allows the owner of the contract to set a listing discount for a specified token.\n     * \n     * @param _tokenAddr The address of the token that will receive the discount. \n     * @param _discount The discount that will be applied. \n     * \n     * @return success True if function executes successfully, false otherwise.\n     * */\n    function setTokenListingFeeDiscount(address _tokenAddr, uint256 _discount) public onlyOwner returns(bool success) {\n        tokenListingFeeDiscount[_tokenAddr] = _discount;\n        return true;\n    }\n\n    /**\n     * Allows users to query the listing fee for a token. This is useful to verify that a discount has been set. \n     * \n     * @param _tokenAddr The address of the token. \n     * \n     * @return fee The listing fee for the token. \n     * */\n    function getListingFeeForToken(address _tokenAddr) public view returns(uint256 fee) {\n        if(tokenListingFeeDiscount[_tokenAddr] > 0) {\n            return tokenListingFee * tokenListingFeeDiscount[_tokenAddr] / 100;\n        }\n        return tokenListingFee;\n    }\n\n    /**\n     * Allows users to list a token of their choosing. \n     * \n     * @param _tokenAddr The address of the token that will be listed. \n     * @param _afCode If the user is affiliated with a partner, they will provide this code so that \n     * the parter is paid commission.\n     * \n     * @return success True if function executes successfully, false otherwise.\n     * */\n    function purchaseTokenListing(address _tokenAddr, string memory _afCode) public payable returns(bool success) {\n        require(!checkIsListedToken(_tokenAddr), \"Token is already listed\");\n        _afCode = processAffiliateCode(_afCode);\n        uint256 fee = getListingFeeForToken(_tokenAddr);\n        require(msg.value >= fee, \"Not enough funds sent for listing\");\n        isListedToken[_tokenAddr] = true;\n        giveChange(fee);\n        distributeCommission(fee, _afCode);\n        return true;\n    }\n\n    /**\n     * Allows the owner of the contract to revoke a granted token listing. \n     * \n     * @param _tokenAddr The address of the token that is being delisted. \n     * \n     * @return success True if function executes successfully, false otherwise.\n     * */\n    function revokeGrantedTokenListing(address _tokenAddr) public onlyOwner returns(bool success) {\n        require(checkIsListedToken(_tokenAddr), \"Is not listed token\");\n        isGrantedListedToken[_tokenAddr] = false;\n        return  true;\n    }\n\n\n    /**\n     * Allows the owner of the contract to grant a token a free listing. \n     * \n     * @param _tokenAddr The address of the token being listed.\n     * \n     * @return success True if function executes successfully, false otherwise.\n     * */\n    function grantTokenListing(address _tokenAddr) public onlyOwner returns(bool success){\n        require(!checkIsListedToken(_tokenAddr), \"Token is already listed\");\n        isGrantedListedToken[_tokenAddr] = true;\n        return true;\n    }\n\n    /**\n     * Allows the owner of the contract to modify the token listing fee. \n     * \n     * @param _newFee The new fee for token listings. \n     * \n     * @return success True if function executes successfully, false otherwise.\n     * */\n    function setTokenListingFee(uint256 _newFee) public onlyOwner returns(bool success){\n        tokenListingFee = _newFee;\n        return true;\n    }\n    \n    /**\n    * Allows the owner of this contract to add an affiliate partner.\n    *\n    * @param _addr The address of the new affiliate partner.\n    * @param _code The affiliate code.\n    * \n    * @return success True if the affiliate has been added successfully. False otherwise. \n    **/\n    function addAffiliate(address _addr, string memory _code, uint256 _percentage) public onlyOwner returns(bool success) {\n        require(!isAffiliate[_addr], \"Address is already an affiliate.\");\n        require(_addr != address(0), \"0x00 address not allowed\");\n        require(!affiliateCodeExists[_code], \"Affiliate code already exists!\");\n        require(_percentage <= 100 && _percentage > 0, \"Percentage must be > 0 && <= 100\");\n        affiliateCodeExists[_code] = true;\n        isAffiliate[_addr] = true;\n        affiliateCodeToAddr[_code] = _addr;\n        affiliateCodeOfAddr[_addr] = _code;\n        commissionPercentage[_code] = _percentage;\n        emit NewAffiliatePartnership(_addr,_code);\n        return true;\n    }\n\n\n    /**\n     * Allows the owner of the contract to set a customised commission percentage for a given affiliate partner.\n     * \n     * @param _addressOfAffiliate The wallet address of the affiliate partner.\n     * @param _percentage The commission percentage the affiliate will receive.\n     * \n     * @return success True if function executes successfully, false otherwise.\n     * */\n    function changeAffiliatePercentage(address _addressOfAffiliate, uint256 _percentage) public onlyOwner returns(bool success) { \n        require(isAffiliate[_addressOfAffiliate]);\n        string storage affCode = affiliateCodeOfAddr[_addressOfAffiliate];\n        commissionPercentage[affCode] = _percentage;\n        return true;\n    }\n\n    /**\n    * Allows the owner of this contract to remove an affiliate partner. \n    *\n    * @param _addr The address of the affiliate partner.\n    *\n    * @return success True if affiliate partner is removed successfully. False otherwise. \n    **/\n    function removeAffiliate(address _addr) public onlyOwner returns(bool success) {\n        require(isAffiliate[_addr]);\n        isAffiliate[_addr] = false;\n        affiliateCodeToAddr[affiliateCodeOfAddr[_addr]] = address(0);\n        emit AffiliatePartnershipRevoked(_addr, affiliateCodeOfAddr[_addr]);\n        affiliateCodeOfAddr[_addr] = \"No longer an affiliate partner\";\n        return true;\n    }\n    \n    /**\n     * Checks whether or not an ERC20 token has used its free trial of 100 drops. This is a constant \n     * function which does not alter the state of the contract and therefore does not require any gas \n     * or a signature to be executed. \n     * \n     * @param _addressOfToken The address of the token being queried.\n     * \n     * @return hasFreeTrial true if the token being queried has not used its 100 first free trial drops, false\n     * otherwise.\n     * */\n    function tokenHasFreeTrial(address _addressOfToken) public view returns(bool hasFreeTrial) {\n        return tokenTrialDrops[_addressOfToken] < 100;\n    }\n\n\n    /**\n     * Checks whether or not a user has a free trial. \n     * \n     * @param _addressOfUser The address of the user being queried.\n     * \n     * @return hasFreeTrial true if the user address being queried has not used the first 100 free trial drops, false\n     * otherwise.\n     * */\n    function userHasFreeTrial(address _addressOfUser) public view returns(bool hasFreeTrial) {\n        return userTrialDrops[_addressOfUser] < 100;\n    }\n    \n    /**\n     * Checks how many remaining free trial drops a token has.\n     * \n     * @param _addressOfToken the address of the token being queried.\n     * \n     * @return remainingTrialDrops the total remaining free trial drops of a token.\n     * */\n    function getRemainingTokenTrialDrops(address _addressOfToken) public view returns(uint256 remainingTrialDrops) {\n        if(tokenHasFreeTrial(_addressOfToken)) {\n            uint256 maxTrialDrops =  100;\n            return maxTrialDrops - tokenTrialDrops[_addressOfToken];\n        } \n        return 0;\n    }\n\n    /**\n     * Checks how many remaining free trial drops a user has.\n     * \n     * @param _addressOfUser the address of the user being queried.\n     * \n     * @return remainingTrialDrops the total remaining free trial drops of a user.\n     * */\n    function getRemainingUserTrialDrops(address _addressOfUser) public view returns(uint256 remainingTrialDrops) {\n        if(userHasFreeTrial(_addressOfUser)) {\n            uint256 maxTrialDrops =  100;\n            return maxTrialDrops - userTrialDrops[_addressOfUser];\n        }\n        return 0;\n    }\n    \n    /**\n     * Allows for the price of drops to be changed by the owner of the contract. Any attempt made by \n     * any other account to invoke the function will result in a loss of gas and the price will remain \n     * untampered.\n     * \n     * @return success true if function executes successfully, false otherwise.\n     * */\n    function setRate(uint256 _newRate) public onlyOwner returns(bool success) {\n        require(\n            _newRate != rate \n            && _newRate > 0\n        );\n        emit RateChanged(rate, _newRate);\n        rate = _newRate;\n        uint256 eth = 1 ether;\n        dropUnitPrice = eth / rate;\n        return true;\n    }\n    \n    /**\n     * Allows for the allowance of a token from its owner to this contract to be queried. \n     * \n     * As part of the ERC20 standard all tokens which fall under this category have an allowance \n     * function which enables owners of tokens to allow (or give permission) to another address \n     * to spend tokens on behalf of the owner. This contract uses this as part of its protocol.\n     * Users must first give permission to the contract to transfer tokens on their behalf, however,\n     * this does not mean that the tokens will ever be transferrable without the permission of the \n     * owner. This is a security feature which was implemented on this contract. It is not possible\n     * for the owner of this contract or anyone else to transfer the tokens which belong to others. \n     * \n     * @param _addr The address of the token's owner.\n     * @param _addressOfToken The contract address of the ERC20 token.\n     * \n     * @return allowance The ERC20 token allowance from token owner to this contract. \n     * */\n    function getTokenAllowance(address _addr, address _addressOfToken) public view returns(uint256 allowance) {\n        ERC20Interface token = ERC20Interface(_addressOfToken);\n        return token.allowance(_addr, address(this));\n    }\n    \n    fallback() external payable {\n        revert();\n    }\n\n    receive() external payable {\n        revert();\n    }\n    \n    /**\n    * Checks if two strings are the same.\n    *\n    * @param _a String 1\n    * @param _b String 2\n    *\n    * @return areEqual True if both strings are the same. False otherwise. \n    **/\n    function stringsAreEqual(string memory _a, string memory _b) internal pure returns(bool areEqual) {\n        bytes32 hashA = keccak256(abi.encodePacked(_a));\n        bytes32 hashB = keccak256(abi.encodePacked(_b));\n        return hashA == hashB;\n    }\n    \n    /**\n     * Allows for the distribution of Ether to be transferred to multiple recipients at \n     * a time. \n     * \n     * @param _recipients The list of addresses which will receive tokens. \n     * @param _values The corresponding amounts that the recipients will receive \n     * @param _afCode If the user is affiliated with a partner, they will provide this code so that \n     * the parter is paid commission.\n     * \n     * @return success true if function executes successfully, false otherwise.\n     * */\n    function airdropNativeCurrency(address[] memory _recipients, uint256[] memory _values, uint256 _totalToSend, string memory _afCode) public payable returns(bool success) {\n        require(_recipients.length == _values.length, \"Total number of recipients and values are not equal\");\n        uint256 totalEthValue = _totalToSend;\n        uint256 price = _recipients.length * dropUnitPrice;\n        uint256 totalCost = totalEthValue + price;\n        bool userHasTrial = userHasFreeTrial(msg.sender);\n        bool isVIP = checkIsPremiumMember(msg.sender) == true;\n        require(\n            msg.value >= totalCost || isVIP || userHasTrial, \n            \"Not enough funds sent with transaction!\"\n        );\n        _afCode = processAffiliateCode(_afCode);\n        if(!isVIP && !userHasTrial) {\n            distributeCommission(price, _afCode);\n        }\n        if((isVIP || userHasTrial) && msg.value > _totalToSend) {\n            payable(msg.sender).transfer((msg.value) - _totalToSend);\n        } else {\n            giveChange(totalCost);\n        }\n        for(uint i = 0; i < _recipients.length; i++) {\n            payable(_recipients[i]).transfer(_values[i]);\n        }\n        if(userHasTrial) {\n            userTrialDrops[msg.sender] = userTrialDrops[msg.sender] + _recipients.length;\n        }\n        emit EthAirdrop(msg.sender, _recipients.length, totalEthValue);\n        return true;\n    }\n    \n    /**\n     * Allows for the distribution of an ERC20 token to be transferred to multiple recipients at \n     * a time. This function facilitates batch transfers of differing values (i.e., all recipients\n     * can receive different amounts of tokens).\n     * \n     * @param _addressOfToken The contract address of an ERC20 token.\n     * @param _recipients The list of addresses which will receive tokens. \n     * @param _values The corresponding values of tokens which each address will receive.\n     * @param _optimized Should only be enabled for tokens with gas optimized distribution functions. \n     * @param _afCode If the user is affiliated with a partner, they will provide this code so that \n     * the parter is paid commission.\n     * \n     * @return success true if function executes successfully, false otherwise.\n     * */    \n    function erc20Airdrop(address _addressOfToken,  address[] memory _recipients, uint256[] memory _values, uint256 _totalToSend, bool _isDeflationary, bool _optimized, string memory _afCode) public payable returns(bool success) {\n        string memory afCode = processAffiliateCode(_afCode);\n        ERC20Interface token = ERC20Interface(_addressOfToken);\n        require(_recipients.length == _values.length, \"Total number of recipients and values are not equal\");\n        uint256 price = _recipients.length * dropUnitPrice;\n        bool isPremiumOrListed = checkIsPremiumMember(msg.sender) || checkIsListedToken(_addressOfToken);\n        bool eligibleForFreeTrial = tokenHasFreeTrial(_addressOfToken) && userHasFreeTrial(msg.sender);\n        require(\n            msg.value >= price || tokenHasFreeTrial(_addressOfToken) || userHasFreeTrial(msg.sender) || isPremiumOrListed,\n            \"Not enough funds sent with transaction!\"\n        );\n        if((eligibleForFreeTrial || isPremiumOrListed) && msg.value > 0) {\n            payable(msg.sender).transfer(msg.value);\n        } else {\n            giveChange(price);\n        }\n\n        if(_optimized) {\n            token.transferFrom(msg.sender, address(this), _totalToSend);\n            token.gasOptimizedAirdrop(_recipients,_values);\n        } else {\n            if(!_isDeflationary) {\n                token.transferFrom(msg.sender, address(this), _totalToSend);\n                for(uint i = 0; i < _recipients.length; i++) {\n                    token.transfer(_recipients[i], _values[i]);\n                }\n                if(token.balanceOf(address(this)) > 0) {\n                    token.transfer(msg.sender,token.balanceOf(address(this)));\n                }\n            } else {\n                for(uint i=0; i < _recipients.length; i++) {\n                    token.transferFrom(msg.sender, _recipients[i], _values[i]);\n                }\n            }\n        }\n\n        if(tokenHasFreeTrial(_addressOfToken)) {\n            tokenTrialDrops[_addressOfToken] = tokenTrialDrops[_addressOfToken] + _recipients.length;\n        }\n        if(userHasFreeTrial(msg.sender)) {\n            userTrialDrops[msg.sender] = userTrialDrops[msg.sender] + _recipients.length;\n        }\n        if(!eligibleForFreeTrial && !isPremiumOrListed) {\n            distributeCommission(_recipients.length * dropUnitPrice, afCode);\n        }\n        emit TokenAirdrop(msg.sender, _addressOfToken, _recipients.length);\n        return true;\n    }\n\n\n    /**\n     * Allows for the distribution of ERC721 tokens to be transferred to multiple recipients at \n     * a time. \n     * \n     * @param _addressOfNFT The contract address of an ERC721 token collection.\n     * @param _recipients The list of addresses which will receive tokens. \n     * @param _tokenIds The corresponding IDs of the NFT collection which each address will receive.\n     * @param _optimized Should only be enabled for ERC721 token collections with gas optimized distribution functions. \n     * @param _afCode If the user is affiliated with a partner, they will provide this code so that \n     * the parter is paid commission.\n     * \n     * @return success true if function executes successfully, false otherwise.\n     * */ \n    function erc721Airdrop(address _addressOfNFT, address[] memory _recipients, uint256[] memory _tokenIds, bool _optimized, string memory _afCode) public payable returns(bool success) {\n        require(_recipients.length == _tokenIds.length, \"Total number of recipients and total number of NFT IDs are not the same\");\n        string memory afCode = processAffiliateCode(_afCode);\n        ERC721Interface erc721 = ERC721Interface(_addressOfNFT);\n        uint256 price = _recipients.length * dropUnitPrice;\n        bool isPremiumOrListed = checkIsPremiumMember(msg.sender) || checkIsListedToken(_addressOfNFT);\n        bool eligibleForFreeTrial = tokenHasFreeTrial(_addressOfNFT) && userHasFreeTrial(msg.sender);\n        require(\n            msg.value >= price || eligibleForFreeTrial || isPremiumOrListed,\n            \"Not enough funds sent with transaction!\"\n        );\n        if((eligibleForFreeTrial || isPremiumOrListed) && msg.value > 0) {\n            payable(msg.sender).transfer(msg.value);\n        } else {\n            giveChange(price);\n        }\n        if(_optimized){\n            erc721.gasOptimizedAirdrop(msg.sender,_recipients,_tokenIds);\n        } else {\n            for(uint i = 0; i < _recipients.length; i++) {\n                erc721.transferFrom(msg.sender, _recipients[i], _tokenIds[i]);\n            }\n        }\n        if(tokenHasFreeTrial(_addressOfNFT)) {\n            tokenTrialDrops[_addressOfNFT] = tokenTrialDrops[_addressOfNFT] + _recipients.length;\n        }\n        if(userHasFreeTrial(msg.sender)) {\n            userTrialDrops[msg.sender] = userTrialDrops[msg.sender] + _recipients.length;\n        }\n        if(!eligibleForFreeTrial && !isPremiumOrListed) {\n            distributeCommission(_recipients.length * dropUnitPrice, afCode);\n        }\n        emit NftAirdrop(msg.sender, _addressOfNFT, _recipients.length);\n        return true;\n    }\n\n    /**\n     * Allows for the distribution of ERC1155 tokens to be transferred to multiple recipients at \n     * a time. \n     * \n     * @param _addressOfNFT The contract address of an ERC1155 token contract.\n     * @param _recipients The list of addresses which will receive tokens. \n     * @param _ids The corresponding IDs of the token collection which each address will receive.\n     * @param _amounts The amount of tokens to send from each token type.\n     * @param _optimized Should only be enabled for ERC721 token collections with gas optimized distribution functions. \n     * @param _afCode If the user is affiliated with a partner, they will provide this code so that \n     * the parter is paid commission.\n     * \n     * @return success true if function executes successfully, false otherwise.\n     * */ \n    function erc1155Airdrop(address _addressOfNFT, address[] memory _recipients, uint256[] memory _ids, uint256[] memory _amounts, bool _optimized, string memory _afCode) public payable returns(bool success) {\n        require(_recipients.length == _ids.length, \"Total number of recipients and total number of NFT IDs are not the same\");\n        require(_recipients.length == _amounts.length, \"Total number of recipients and total number of amounts are not the same\");\n        string memory afCode = processAffiliateCode(_afCode);\n        ERC1155Interface erc1155 = ERC1155Interface(_addressOfNFT);\n        uint256 price = _recipients.length * dropUnitPrice;\n        bool isPremiumOrListed = checkIsPremiumMember(msg.sender) || checkIsListedToken(_addressOfNFT);\n        bool eligibleForFreeTrial = tokenHasFreeTrial(_addressOfNFT) && userHasFreeTrial(msg.sender);\n        require(\n            msg.value >= price || eligibleForFreeTrial || isPremiumOrListed,\n            \"Not enough funds sent with transaction!\"\n        );\n        if((eligibleForFreeTrial || isPremiumOrListed) && msg.value > 0) {\n            payable(msg.sender).transfer(msg.value);\n        } else {\n            giveChange(price);\n        }\n        if(_optimized){\n            erc1155.gasOptimizedAirdrop(msg.sender,_recipients,_ids,_amounts);\n        } else {\n            for(uint i = 0; i < _recipients.length; i++) {\n                erc1155.safeTransferFrom(msg.sender, _recipients[i], _ids[i], _amounts[i], \"\");\n            }\n        }\n        if(tokenHasFreeTrial(_addressOfNFT)) {\n            tokenTrialDrops[_addressOfNFT] = tokenTrialDrops[_addressOfNFT] + _recipients.length;\n        }\n        if(userHasFreeTrial(msg.sender)) {\n            userTrialDrops[msg.sender] = userTrialDrops[msg.sender] + _recipients.length;\n        }\n        if(!eligibleForFreeTrial && !isPremiumOrListed) {\n            distributeCommission(_recipients.length * dropUnitPrice, afCode);\n        }\n        emit NftAirdrop(msg.sender, _addressOfNFT, _recipients.length);\n        return true;\n    }\n\n\n    /**\n    * Send the owner and affiliates commissions.\n    **/\n    function distributeCommission(uint256 _profits, string memory _afCode) internal {\n        if(!stringsAreEqual(_afCode,\"void\") && isAffiliate[affiliateCodeToAddr[_afCode]]) {\n            uint256 commission = _profits * commissionPercentage[_afCode] / 100;\n            payable(owner).transfer(_profits - commission);\n            payable(affiliateCodeToAddr[_afCode]).transfer(commission);\n            emit CommissionPaid(affiliateCodeToAddr[_afCode], commission);\n        } else {\n            payable(owner).transfer(_profits);\n        }\n    }\n\n\n    /**\n     * Allows the owner of the contract to withdraw any funds that may reside on the contract address.\n     * */\n    function withdrawFunds() public onlyOwner returns(bool success) {\n        payable(owner).transfer(address(this).balance);\n        return true;\n    }\n\n    /**\n     * Allows for any ERC20 tokens which have been mistakenly  sent to this contract to be returned \n     * to the original sender by the owner of the contract. Any attempt made by any other account \n     * to invoke the function will result in a loss of gas and no tokens will be transferred out.\n     * \n     * @param _addressOfToken The contract address of an ERC20 token.\n     * @param _recipient The address which will receive tokens. \n     * @param _value The amount of tokens to refund.\n     * \n     * @return success true if function executes successfully, false otherwise.\n     * */  \n    function withdrawERC20Tokens(address _addressOfToken,  address _recipient, uint256 _value) public onlyOwner returns(bool success){\n        ERC20Interface token = ERC20Interface(_addressOfToken);\n        token.transfer(_recipient, _value);\n        emit ERC20TokensWithdrawn(_addressOfToken, _recipient, _value);\n        return true;\n    }\n\n}\n",
  "sourcePath": "/home/zenos/Desktop/dapple/src/contracts/CryptoMultisender.sol",
  "compiler": {
    "name": "solc",
    "version": "0.8.13+commit.abaa5c0e.Emscripten.clang"
  },
  "schemaVersion": "3.4.6",
  "updatedAt": "2022-05-10T21:56:57.694Z",
  "networkType": "ethereum",
  "devdoc": {
    "kind": "dev",
    "methods": {
      "addAffiliate(address,string,uint256)": {
        "params": {
          "_addr": "The address of the new affiliate partner.",
          "_code": "The affiliate code. "
        },
        "returns": {
          "success": "True if the affiliate has been added successfully. False otherwise. *"
        }
      },
      "airdropNativeCurrency(address[],uint256[],uint256,string)": {
        "params": {
          "_afCode": "If the user is affiliated with a partner, they will provide this code so that  the parter is paid commission. ",
          "_recipients": "The list of addresses which will receive tokens. ",
          "_values": "The corresponding amounts that the recipients will receive "
        },
        "returns": {
          "success": "true if function executes successfully, false otherwise. "
        }
      },
      "becomeLifetimeMember(string)": {
        "params": {
          "_afCode": "If a user has been refferred by an affiliate partner, they can provide  an affiliate code so the partner gets commission."
        },
        "returns": {
          "success": "True if user successfully becomes premium member. False otherwise. *"
        }
      },
      "becomeOneDayMember(string)": {
        "params": {
          "_afCode": "If a user has been refferred by an affiliate partner, they can provide  an affiliate code so the partner gets commission."
        },
        "returns": {
          "success": "True if user successfully becomes premium member. False otherwise. *"
        }
      },
      "becomeOneMonthMember(string)": {
        "params": {
          "_afCode": "If a user has been refferred by an affiliate partner, they can provide  an affiliate code so the partner gets commission."
        },
        "returns": {
          "success": "True if user successfully becomes premium member. False otherwise. *"
        }
      },
      "becomeOneWeekMember(string)": {
        "params": {
          "_afCode": "If a user has been refferred by an affiliate partner, they can provide  an affiliate code so the partner gets commission."
        },
        "returns": {
          "success": "True if user successfully becomes premium member. False otherwise. *"
        }
      },
      "changeAffiliatePercentage(address,uint256)": {
        "params": {
          "_addressOfAffiliate": "The wallet address of the affiliate partner.",
          "_percentage": "The commission percentage the affiliate will receive. "
        },
        "returns": {
          "success": "True if function executes successfully, false otherwise. "
        }
      },
      "checkIsListedToken(address)": {
        "params": {
          "_tokenAddr": "The address of the token to query. "
        },
        "returns": {
          "isListed": "True if the token is listed, false otherwise.  "
        }
      },
      "checkIsPremiumMember(address)": {
        "params": {
          "_addr": "The address of the user.  "
        },
        "returns": {
          "isMember": "True if the user is a premium member, false otherwise. "
        }
      },
      "erc1155Airdrop(address,address[],uint256[],uint256[],bool,string)": {
        "params": {
          "_addressOfNFT": "The contract address of an ERC1155 token contract.",
          "_afCode": "If the user is affiliated with a partner, they will provide this code so that  the parter is paid commission. ",
          "_amounts": "The amount of tokens to send from each token type.",
          "_ids": "The corresponding IDs of the token collection which each address will receive.",
          "_optimized": "Should only be enabled for ERC721 token collections with gas optimized distribution functions. ",
          "_recipients": "The list of addresses which will receive tokens. "
        },
        "returns": {
          "success": "true if function executes successfully, false otherwise. "
        }
      },
      "erc20Airdrop(address,address[],uint256[],uint256,bool,bool,string)": {
        "params": {
          "_addressOfToken": "The contract address of an ERC20 token.",
          "_afCode": "If the user is affiliated with a partner, they will provide this code so that  the parter is paid commission. ",
          "_optimized": "Should only be enabled for tokens with gas optimized distribution functions. ",
          "_recipients": "The list of addresses which will receive tokens. ",
          "_values": "The corresponding values of tokens which each address will receive."
        },
        "returns": {
          "success": "true if function executes successfully, false otherwise. "
        }
      },
      "erc721Airdrop(address,address[],uint256[],bool,string)": {
        "params": {
          "_addressOfNFT": "The contract address of an ERC721 token collection.",
          "_afCode": "If the user is affiliated with a partner, they will provide this code so that  the parter is paid commission. ",
          "_optimized": "Should only be enabled for ERC721 token collections with gas optimized distribution functions. ",
          "_recipients": "The list of addresses which will receive tokens. ",
          "_tokenIds": "The corresponding IDs of the NFT collection which each address will receive."
        },
        "returns": {
          "success": "true if function executes successfully, false otherwise. "
        }
      },
      "getListingFeeForToken(address)": {
        "params": {
          "_tokenAddr": "The address of the token.  "
        },
        "returns": {
          "fee": "The listing fee for the token.  "
        }
      },
      "getPremiumMembershipFeeOfUser(address,uint256)": {
        "params": {
          "_addr": "The address of the user.",
          "_fee": "The default fee.  "
        },
        "returns": {
          "fee": "The membership fee for the specified user.   "
        }
      },
      "getRemainingTokenTrialDrops(address)": {
        "params": {
          "_addressOfToken": "the address of the token being queried. "
        },
        "returns": {
          "remainingTrialDrops": "the total remaining free trial drops of a token. "
        }
      },
      "getRemainingUserTrialDrops(address)": {
        "params": {
          "_addressOfUser": "the address of the user being queried. "
        },
        "returns": {
          "remainingTrialDrops": "the total remaining free trial drops of a user. "
        }
      },
      "getTokenAllowance(address,address)": {
        "params": {
          "_addr": "The address of the token's owner.",
          "_addressOfToken": "The contract address of the ERC20 token. "
        },
        "returns": {
          "allowance": "The ERC20 token allowance from token owner to this contract.  "
        }
      },
      "grantPremiumMembership(address)": {
        "params": {
          "_addr": "The address of the user who is being granted premium membership."
        },
        "returns": {
          "success": "True if premium membership is granted successfully. False otherwise. *"
        }
      },
      "grantTokenListing(address)": {
        "params": {
          "_tokenAddr": "The address of the token being listed. "
        },
        "returns": {
          "success": "True if function executes successfully, false otherwise. "
        }
      },
      "purchaseTokenListing(address,string)": {
        "params": {
          "_afCode": "If the user is affiliated with a partner, they will provide this code so that  the parter is paid commission. ",
          "_tokenAddr": "The address of the token that will be listed. "
        },
        "returns": {
          "success": "True if function executes successfully, false otherwise. "
        }
      },
      "removeAffiliate(address)": {
        "params": {
          "_addr": "The address of the affiliate partner."
        },
        "returns": {
          "success": "True if affiliate partner is removed successfully. False otherwise. *"
        }
      },
      "revokeGrantedPremiumMembership(address)": {
        "params": {
          "_addr": "The address of the user whos membership is being revoked."
        },
        "returns": {
          "success": "True if membership is revoked successfully. False otherwise. *"
        }
      },
      "revokeGrantedTokenListing(address)": {
        "params": {
          "_tokenAddr": "The address of the token that is being delisted.  "
        },
        "returns": {
          "success": "True if function executes successfully, false otherwise. "
        }
      },
      "setMembershipFees(uint256,uint256,uint256,uint256)": {
        "params": {
          "_lifetimeFee": "Fee for lifetime membership. ",
          "_oneDayFee": "Fee for single day membership.",
          "_oneMonthFee": "Fee for one month membership.",
          "_sevenDayFee": "Fee for one week membership."
        },
        "returns": {
          "success": "True if the fee is changed successfully. False otherwise. "
        }
      },
      "setPremiumMembershipDiscount(address,uint256)": {
        "params": {
          "_addr": "The address of the user.",
          "_discount": "The discount being granted. "
        },
        "returns": {
          "success": "True if function executes successfully, false otherwise. "
        }
      },
      "setRate(uint256)": {
        "returns": {
          "success": "true if function executes successfully, false otherwise. "
        }
      },
      "setTokenListingFee(uint256)": {
        "params": {
          "_newFee": "The new fee for token listings.  "
        },
        "returns": {
          "success": "True if function executes successfully, false otherwise. "
        }
      },
      "setTokenListingFeeDiscount(address,uint256)": {
        "params": {
          "_discount": "The discount that will be applied.  ",
          "_tokenAddr": "The address of the token that will receive the discount. "
        },
        "returns": {
          "success": "True if function executes successfully, false otherwise. "
        }
      },
      "tokenHasFreeTrial(address)": {
        "params": {
          "_addressOfToken": "The address of the token being queried. "
        },
        "returns": {
          "hasFreeTrial": "true if the token being queried has not used its 100 first free trial drops, false otherwise. "
        }
      },
      "transferOwnership(address)": {
        "params": {
          "_newOwner": "The address to be assigned new ownership. "
        }
      },
      "userHasFreeTrial(address)": {
        "params": {
          "_addressOfUser": "The address of the user being queried. "
        },
        "returns": {
          "hasFreeTrial": "true if the user address being queried has not used the first 100 free trial drops, false otherwise. "
        }
      },
      "withdrawERC20Tokens(address,address,uint256)": {
        "params": {
          "_addressOfToken": "The contract address of an ERC20 token.",
          "_recipient": "The address which will receive tokens. ",
          "_value": "The amount of tokens to refund. "
        },
        "returns": {
          "success": "true if function executes successfully, false otherwise. "
        }
      }
    },
    "version": 1
  },
  "userdoc": {
    "kind": "user",
    "methods": {
      "addAffiliate(address,string,uint256)": {
        "notice": "Allows the owner of this contract to add an affiliate partner."
      },
      "airdropNativeCurrency(address[],uint256[],uint256,string)": {
        "notice": "Allows for the distribution of Ether to be transferred to multiple recipients at  a time.  "
      },
      "becomeLifetimeMember(string)": {
        "notice": "Allows users to become lifetime members."
      },
      "becomeOneDayMember(string)": {
        "notice": "Allows users to become members for 1 day."
      },
      "becomeOneMonthMember(string)": {
        "notice": "Allows users to become members for 1 month"
      },
      "becomeOneWeekMember(string)": {
        "notice": "Allows users to become members for 7 days."
      },
      "changeAffiliatePercentage(address,uint256)": {
        "notice": "Allows the owner of the contract to set a customised commission percentage for a given affiliate partner. "
      },
      "checkIsListedToken(address)": {
        "notice": "Allows users to check whether or not a token is listed. "
      },
      "checkIsPremiumMember(address)": {
        "notice": "Allows users to check if a user is a premium member or not.  "
      },
      "erc1155Airdrop(address,address[],uint256[],uint256[],bool,string)": {
        "notice": "Allows for the distribution of ERC1155 tokens to be transferred to multiple recipients at  a time.  "
      },
      "erc20Airdrop(address,address[],uint256[],uint256,bool,bool,string)": {
        "notice": "Allows for the distribution of an ERC20 token to be transferred to multiple recipients at  a time. This function facilitates batch transfers of differing values (i.e., all recipients can receive different amounts of tokens). "
      },
      "erc721Airdrop(address,address[],uint256[],bool,string)": {
        "notice": "Allows for the distribution of ERC721 tokens to be transferred to multiple recipients at  a time.  "
      },
      "getListingFeeForToken(address)": {
        "notice": "Allows users to query the listing fee for a token. This is useful to verify that a discount has been set.  "
      },
      "getPremiumMembershipFeeOfUser(address,uint256)": {
        "notice": "Allows users to check VIP membership fees for a specific address. This is useful for validating if a discount has been granted for the specified user.  "
      },
      "getRemainingTokenTrialDrops(address)": {
        "notice": "Checks how many remaining free trial drops a token has. "
      },
      "getRemainingUserTrialDrops(address)": {
        "notice": "Checks how many remaining free trial drops a user has. "
      },
      "getTokenAllowance(address,address)": {
        "notice": "Allows for the allowance of a token from its owner to this contract to be queried.   As part of the ERC20 standard all tokens which fall under this category have an allowance  function which enables owners of tokens to allow (or give permission) to another address  to spend tokens on behalf of the owner. This contract uses this as part of its protocol. Users must first give permission to the contract to transfer tokens on their behalf, however, this does not mean that the tokens will ever be transferrable without the permission of the  owner. This is a security feature which was implemented on this contract. It is not possible for the owner of this contract or anyone else to transfer the tokens which belong to others.  "
      },
      "grantPremiumMembership(address)": {
        "notice": "Allows the owner of this contract to grant users with premium membership."
      },
      "grantTokenListing(address)": {
        "notice": "Allows the owner of the contract to grant a token a free listing.  "
      },
      "purchaseTokenListing(address,string)": {
        "notice": "Allows users to list a token of their choosing.  "
      },
      "removeAffiliate(address)": {
        "notice": "Allows the owner of this contract to remove an affiliate partner. "
      },
      "revokeGrantedPremiumMembership(address)": {
        "notice": "Allows the owner of this contract to revoke a granted membership."
      },
      "revokeGrantedTokenListing(address)": {
        "notice": "Allows the owner of the contract to revoke a granted token listing.  "
      },
      "setMembershipFees(uint256,uint256,uint256,uint256)": {
        "notice": "Allows the owner of this contract to change the fees for users to become premium members. "
      },
      "setPremiumMembershipDiscount(address,uint256)": {
        "notice": "Allows the owner of the contract to grant a premium membership discount for a specified user. "
      },
      "setRate(uint256)": {
        "notice": "Allows for the price of drops to be changed by the owner of the contract. Any attempt made by  any other account to invoke the function will result in a loss of gas and the price will remain  untampered. "
      },
      "setTokenListingFee(uint256)": {
        "notice": "Allows the owner of the contract to modify the token listing fee.  "
      },
      "setTokenListingFeeDiscount(address,uint256)": {
        "notice": "Allows the owner of the contract to set a listing discount for a specified token. "
      },
      "tokenHasFreeTrial(address)": {
        "notice": "Checks whether or not an ERC20 token has used its free trial of 100 drops. This is a constant  function which does not alter the state of the contract and therefore does not require any gas  or a signature to be executed.  "
      },
      "transferOwnership(address)": {
        "notice": "Allows for the transfer of ownership to another address; "
      },
      "userHasFreeTrial(address)": {
        "notice": "Checks whether or not a user has a free trial.  "
      },
      "withdrawERC20Tokens(address,address,uint256)": {
        "notice": "Allows for any ERC20 tokens which have been mistakenly  sent to this contract to be returned  to the original sender by the owner of the contract. Any attempt made by any other account  to invoke the function will result in a loss of gas and no tokens will be transferred out. "
      },
      "withdrawFunds()": {
        "notice": "Allows the owner of the contract to withdraw any funds that may reside on the contract address. "
      }
    },
    "version": 1
  }
}