{
  "contractName": "DeflationaryToken",
  "abi": [
    {
      "inputs": [
        {
          "internalType": "string",
          "name": "_name",
          "type": "string"
        },
        {
          "internalType": "string",
          "name": "_symbol",
          "type": "string"
        },
        {
          "internalType": "uint256",
          "name": "_decimals",
          "type": "uint256"
        },
        {
          "internalType": "uint256",
          "name": "_supply",
          "type": "uint256"
        },
        {
          "internalType": "uint256",
          "name": "_txFee",
          "type": "uint256"
        },
        {
          "internalType": "uint256",
          "name": "_burnFee",
          "type": "uint256"
        },
        {
          "internalType": "address",
          "name": "_FeeAddress",
          "type": "address"
        },
        {
          "internalType": "address",
          "name": "tokenOwner",
          "type": "address"
        }
      ],
      "stateMutability": "payable",
      "type": "constructor",
      "payable": true
    },
    {
      "anonymous": false,
      "inputs": [
        {
          "indexed": true,
          "internalType": "address",
          "name": "owner",
          "type": "address"
        },
        {
          "indexed": true,
          "internalType": "address",
          "name": "spender",
          "type": "address"
        },
        {
          "indexed": false,
          "internalType": "uint256",
          "name": "value",
          "type": "uint256"
        }
      ],
      "name": "Approval",
      "type": "event"
    },
    {
      "anonymous": false,
      "inputs": [
        {
          "indexed": true,
          "internalType": "address",
          "name": "blackListed",
          "type": "address"
        },
        {
          "indexed": false,
          "internalType": "bool",
          "name": "value",
          "type": "bool"
        }
      ],
      "name": "Blacklist",
      "type": "event"
    },
    {
      "anonymous": false,
      "inputs": [
        {
          "indexed": true,
          "internalType": "address",
          "name": "burner",
          "type": "address"
        },
        {
          "indexed": false,
          "internalType": "uint256",
          "name": "value",
          "type": "uint256"
        }
      ],
      "name": "Burn",
      "type": "event"
    },
    {
      "anonymous": false,
      "inputs": [
        {
          "indexed": true,
          "internalType": "address",
          "name": "from",
          "type": "address"
        },
        {
          "indexed": true,
          "internalType": "address",
          "name": "to",
          "type": "address"
        },
        {
          "indexed": false,
          "internalType": "uint256",
          "name": "value",
          "type": "uint256"
        }
      ],
      "name": "Mint",
      "type": "event"
    },
    {
      "anonymous": false,
      "inputs": [
        {
          "indexed": true,
          "internalType": "address",
          "name": "previousOwner",
          "type": "address"
        },
        {
          "indexed": true,
          "internalType": "address",
          "name": "newOwner",
          "type": "address"
        }
      ],
      "name": "OwnershipTransferred",
      "type": "event"
    },
    {
      "anonymous": false,
      "inputs": [],
      "name": "Pause",
      "type": "event"
    },
    {
      "anonymous": false,
      "inputs": [
        {
          "indexed": true,
          "internalType": "address",
          "name": "from",
          "type": "address"
        },
        {
          "indexed": true,
          "internalType": "address",
          "name": "to",
          "type": "address"
        },
        {
          "indexed": false,
          "internalType": "uint256",
          "name": "value",
          "type": "uint256"
        }
      ],
      "name": "Transfer",
      "type": "event"
    },
    {
      "anonymous": false,
      "inputs": [],
      "name": "Unpause",
      "type": "event"
    },
    {
      "inputs": [],
      "name": "FeeAddress",
      "outputs": [
        {
          "internalType": "address",
          "name": "",
          "type": "address"
        }
      ],
      "stateMutability": "view",
      "type": "function",
      "constant": true
    },
    {
      "inputs": [
        {
          "internalType": "address",
          "name": "_owner",
          "type": "address"
        },
        {
          "internalType": "address",
          "name": "_spender",
          "type": "address"
        }
      ],
      "name": "allowance",
      "outputs": [
        {
          "internalType": "uint256",
          "name": "",
          "type": "uint256"
        }
      ],
      "stateMutability": "view",
      "type": "function",
      "constant": true
    },
    {
      "inputs": [
        {
          "internalType": "address",
          "name": "_spender",
          "type": "address"
        },
        {
          "internalType": "uint256",
          "name": "_value",
          "type": "uint256"
        }
      ],
      "name": "approve",
      "outputs": [
        {
          "internalType": "bool",
          "name": "",
          "type": "bool"
        }
      ],
      "stateMutability": "nonpayable",
      "type": "function"
    },
    {
      "inputs": [
        {
          "internalType": "address",
          "name": "_owner",
          "type": "address"
        }
      ],
      "name": "balanceOf",
      "outputs": [
        {
          "internalType": "uint256",
          "name": "balance",
          "type": "uint256"
        }
      ],
      "stateMutability": "view",
      "type": "function",
      "constant": true
    },
    {
      "inputs": [
        {
          "internalType": "address",
          "name": "listAddress",
          "type": "address"
        },
        {
          "internalType": "bool",
          "name": "isBlackListed",
          "type": "bool"
        }
      ],
      "name": "blackListAddress",
      "outputs": [
        {
          "internalType": "bool",
          "name": "success",
          "type": "bool"
        }
      ],
      "stateMutability": "nonpayable",
      "type": "function"
    },
    {
      "inputs": [],
      "name": "burnFee",
      "outputs": [
        {
          "internalType": "uint256",
          "name": "",
          "type": "uint256"
        }
      ],
      "stateMutability": "view",
      "type": "function",
      "constant": true
    },
    {
      "inputs": [],
      "name": "decimals",
      "outputs": [
        {
          "internalType": "uint256",
          "name": "",
          "type": "uint256"
        }
      ],
      "stateMutability": "view",
      "type": "function",
      "constant": true
    },
    {
      "inputs": [
        {
          "internalType": "address",
          "name": "_spender",
          "type": "address"
        },
        {
          "internalType": "uint256",
          "name": "_subtractedValue",
          "type": "uint256"
        }
      ],
      "name": "decreaseApproval",
      "outputs": [
        {
          "internalType": "bool",
          "name": "success",
          "type": "bool"
        }
      ],
      "stateMutability": "nonpayable",
      "type": "function"
    },
    {
      "inputs": [
        {
          "internalType": "address",
          "name": "_spender",
          "type": "address"
        },
        {
          "internalType": "uint256",
          "name": "_addedValue",
          "type": "uint256"
        }
      ],
      "name": "increaseApproval",
      "outputs": [
        {
          "internalType": "bool",
          "name": "success",
          "type": "bool"
        }
      ],
      "stateMutability": "nonpayable",
      "type": "function"
    },
    {
      "inputs": [],
      "name": "name",
      "outputs": [
        {
          "internalType": "string",
          "name": "",
          "type": "string"
        }
      ],
      "stateMutability": "view",
      "type": "function",
      "constant": true
    },
    {
      "inputs": [],
      "name": "owner",
      "outputs": [
        {
          "internalType": "address",
          "name": "",
          "type": "address"
        }
      ],
      "stateMutability": "view",
      "type": "function",
      "constant": true
    },
    {
      "inputs": [],
      "name": "pause",
      "outputs": [],
      "stateMutability": "nonpayable",
      "type": "function"
    },
    {
      "inputs": [],
      "name": "paused",
      "outputs": [
        {
          "internalType": "bool",
          "name": "",
          "type": "bool"
        }
      ],
      "stateMutability": "view",
      "type": "function",
      "constant": true
    },
    {
      "inputs": [],
      "name": "symbol",
      "outputs": [
        {
          "internalType": "string",
          "name": "",
          "type": "string"
        }
      ],
      "stateMutability": "view",
      "type": "function",
      "constant": true
    },
    {
      "inputs": [],
      "name": "totalSupply",
      "outputs": [
        {
          "internalType": "uint256",
          "name": "",
          "type": "uint256"
        }
      ],
      "stateMutability": "view",
      "type": "function",
      "constant": true
    },
    {
      "inputs": [
        {
          "internalType": "address",
          "name": "_to",
          "type": "address"
        },
        {
          "internalType": "uint256",
          "name": "_value",
          "type": "uint256"
        }
      ],
      "name": "transfer",
      "outputs": [
        {
          "internalType": "bool",
          "name": "",
          "type": "bool"
        }
      ],
      "stateMutability": "nonpayable",
      "type": "function"
    },
    {
      "inputs": [
        {
          "internalType": "address",
          "name": "_from",
          "type": "address"
        },
        {
          "internalType": "address",
          "name": "_to",
          "type": "address"
        },
        {
          "internalType": "uint256",
          "name": "_value",
          "type": "uint256"
        }
      ],
      "name": "transferFrom",
      "outputs": [
        {
          "internalType": "bool",
          "name": "",
          "type": "bool"
        }
      ],
      "stateMutability": "nonpayable",
      "type": "function"
    },
    {
      "inputs": [
        {
          "internalType": "address",
          "name": "newOwner",
          "type": "address"
        }
      ],
      "name": "transferOwnership",
      "outputs": [],
      "stateMutability": "nonpayable",
      "type": "function"
    },
    {
      "inputs": [],
      "name": "txFee",
      "outputs": [
        {
          "internalType": "uint256",
          "name": "",
          "type": "uint256"
        }
      ],
      "stateMutability": "view",
      "type": "function",
      "constant": true
    },
    {
      "inputs": [],
      "name": "unpause",
      "outputs": [],
      "stateMutability": "nonpayable",
      "type": "function"
    },
    {
      "inputs": [
        {
          "internalType": "uint256",
          "name": "_value",
          "type": "uint256"
        }
      ],
      "name": "burn",
      "outputs": [],
      "stateMutability": "nonpayable",
      "type": "function"
    },
    {
      "inputs": [
        {
          "internalType": "uint256",
          "name": "_txFee",
          "type": "uint256"
        },
        {
          "internalType": "uint256",
          "name": "_burnFee",
          "type": "uint256"
        },
        {
          "internalType": "address",
          "name": "_FeeAddress",
          "type": "address"
        }
      ],
      "name": "updateFee",
      "outputs": [],
      "stateMutability": "nonpayable",
      "type": "function"
    },
    {
      "inputs": [
        {
          "internalType": "address",
          "name": "account",
          "type": "address"
        },
        {
          "internalType": "uint256",
          "name": "amount",
          "type": "uint256"
        }
      ],
      "name": "mint",
      "outputs": [],
      "stateMutability": "nonpayable",
      "type": "function"
    }
  ],
  "bytecode": "0x608060408190526007805460ff60a01b19169055620017593881900390819083398101604081905262000032916200029d565b8751620000479060089060208b01906200010d565b5086516200005d9060099060208a01906200010d565b50600a8681556200007090879062000468565b6200007c90866200047d565b60008181556001600160a01b03838116808352600660209081526040808520869055600780546001600160a01b0319908116851790915560018b905560028a905560038054909116948916949094179093559151938452927fddf252ad1be2c89b69c2b068fc378daa952ba7f163c4a11628f55a4df523b3ef910160405180910390a35050505050505050620004db565b8280546200011b906200049f565b90600052602060002090601f0160209004810192826200013f57600085556200018a565b82601f106200015a57805160ff19168380011785556200018a565b828001600101855582156200018a579182015b828111156200018a5782518255916020019190600101906200016d565b50620001989291506200019c565b5090565b5b808211156200019857600081556001016200019d565b634e487b7160e01b600052604160045260246000fd5b600082601f830112620001db57600080fd5b81516001600160401b0380821115620001f857620001f8620001b3565b604051601f8301601f19908116603f01168101908282118183101715620002235762000223620001b3565b816040528381526020925086838588010111156200024057600080fd5b600091505b8382101562000264578582018301518183018401529082019062000245565b83821115620002765760008385830101525b9695505050505050565b80516001600160a01b03811681146200029857600080fd5b919050565b600080600080600080600080610100898b031215620002bb57600080fd5b88516001600160401b0380821115620002d357600080fd5b620002e18c838d01620001c9565b995060208b0151915080821115620002f857600080fd5b50620003078b828c01620001c9565b97505060408901519550606089015194506080890151935060a089015192506200033460c08a0162000280565b91506200034460e08a0162000280565b90509295985092959890939650565b634e487b7160e01b600052601160045260246000fd5b600181815b80851115620003aa5781600019048211156200038e576200038e62000353565b808516156200039c57918102915b93841c93908002906200036e565b509250929050565b600082620003c35750600162000462565b81620003d25750600062000462565b8160018114620003eb5760028114620003f65762000416565b600191505062000462565b60ff8411156200040a576200040a62000353565b50506001821b62000462565b5060208310610133831016604e8410600b84101617156200043b575081810a62000462565b62000447838362000369565b80600019048211156200045e576200045e62000353565b0290505b92915050565b6000620004768383620003b2565b9392505050565b60008160001904831182151516156200049a576200049a62000353565b500290565b600181811c90821680620004b457607f821691505b602082108103620004d557634e487b7160e01b600052602260045260246000fd5b50919050565b61126e80620004eb6000396000f3fe608060405234801561001057600080fd5b506004361061014d5760003560e01c8063794be707116100c3578063a9059cbb1161007c578063a9059cbb146102ba578063cf820461146102cd578063d73dd623146102d6578063dd62ed3e146102e9578063f2fde38b14610322578063fce589d81461033557600080fd5b8063794be707146102465780637b7e8bac146102595780638456cb5914610284578063875ae9901461028c5780638da5cb5b1461029f57806395d89b41146102b257600080fd5b80633f4ba83a116101155780633f4ba83a146101c657806340c10f19146101d057806342966c68146101e35780635c975abb146101f6578063661884631461020a57806370a082311461021d57600080fd5b806306fdde0314610152578063095ea7b31461017057806318160ddd1461019357806323b872dd146101aa578063313ce567146101bd575b600080fd5b61015a61033e565b6040516101679190610fb2565b60405180910390f35b61018361017e366004611023565b6103cc565b6040519015158152602001610167565b61019c60005481565b604051908152602001610167565b6101836101b836600461104d565b6103f7565b61019c600a5481565b6101ce610424565b005b6101ce6101de366004611023565b610489565b6101ce6101f1366004611089565b61055f565b60075461018390600160a01b900460ff1681565b610183610218366004611023565b61056c565b61019c61022b3660046110a2565b6001600160a01b031660009081526006602052604090205490565b6101836102543660046110bd565b610590565b60035461026c906001600160a01b031681565b6040516001600160a01b039091168152602001610167565b6101ce6105cb565b6101ce61029a3660046110f9565b610637565b60075461026c906001600160a01b031681565b61015a610678565b6101836102c8366004611023565b610685565b61019c60015481565b6101836102e4366004611023565b6106a9565b61019c6102f736600461112e565b6001600160a01b03918216600090815260046020908152604080832093909416825291909152205490565b6101ce6103303660046110a2565b6106cd565b61019c60025481565b6008805461034b90611161565b80601f016020809104026020016040519081016040528092919081815260200182805461037790611161565b80156103c45780601f10610399576101008083540402835291602001916103c4565b820191906000526020600020905b8154815290600101906020018083116103a757829003601f168201915b505050505081565b600754600090600160a01b900460ff16156103e657600080fd5b6103f08383610753565b9392505050565b600754600090600160a01b900460ff161561041157600080fd5b61041c8484846107bf565b949350505050565b6007546001600160a01b0316331461043b57600080fd5b600754600160a01b900460ff1661045157600080fd5b6007805460ff60a01b191690556040517f7805862f689e2f13df9f062ff482ad3ad112aca9e0847911ed832e158c525b3390600090a1565b6007546001600160a01b031633146104a057600080fd5b6000546104ad9082610a84565b60009081556001600160a01b0383168152600660205260409020546104d29082610a84565b6001600160a01b0383166000818152600660205260408082209390935591519091907fab8530f87dc9b59234c4623bf917212bb2536d647574c8e7e5da92c2ede0c9f8906105239085815260200190565b60405180910390a36040518181526001600160a01b03831690600090600080516020611219833981519152906020015b60405180910390a35050565b6105693382610aa3565b50565b600754600090600160a01b900460ff161561058657600080fd5b6103f08383610b7f565b600754600090600160a01b900460ff16156105aa57600080fd5b6007546001600160a01b031633146105c157600080fd5b6103f08383610c68565b6007546001600160a01b031633146105e257600080fd5b600754600160a01b900460ff16156105f957600080fd5b6007805460ff60a01b1916600160a01b1790556040517f6985a02210a168e66602d3235cb6db0e70f92b3ba4d376a33c0f3d9434bff62590600090a1565b6007546001600160a01b0316331461064e57600080fd5b600192909255600255600380546001600160a01b0319166001600160a01b03909216919091179055565b6009805461034b90611161565b600754600090600160a01b900460ff161561069f57600080fd5b6103f08383610cf9565b600754600090600160a01b900460ff16156106c357600080fd5b6103f08383610f04565b6007546001600160a01b031633146106e457600080fd5b6001600160a01b0381166106f757600080fd5b6007546040516001600160a01b038084169216907f8be0079c531659141344cd1fd0a4f28419497f9722a3daafe3b4186f6b6457e090600090a3600780546001600160a01b0319166001600160a01b0392909216919091179055565b3360008181526004602090815260408083206001600160a01b038716808552925280832085905551919290917f8c5be1e5ebec7d5bd14f71427d1e84f3dd0314c0f7b2291e5b200ac8c7c3b925906107ae9086815260200190565b60405180910390a350600192915050565b3360009081526005602052604081205460ff16156107dc57600080fd5b6001600160a01b0383166107ef57600080fd5b6001600160a01b03841660009081526006602052604090205482111561081457600080fd5b6001600160a01b038416600090815260046020908152604080832033845290915290205482111561084457600080fd5b6001600160a01b0384166000908152600660205260409020546108679083610f89565b6001600160a01b0385166000908152600660205260409020556001548290158015906108a157506003546001600160a01b03868116911614155b156109445760006108c160015460646108ba91906111b1565b8390610fa5565b6003546001600160a01b03166000908152600660205260409020549091506108e99082610a84565b600380546001600160a01b0390811660009081526006602090815260409182902094909455915491518481529181169290891691600080516020611219833981519152910160405180910390a36109408482610f89565b9350505b600060025411801561096457506003546001600160a01b03868116911614155b156109cc57600061097d60025460646108ba91906111b1565b60005490915061098d9082610f89565b60009081556040518281526001600160a01b038816906000805160206112198339815191529060200160405180910390a36109c88482610f89565b9350505b6001600160a01b0384166000908152600660205260409020546109ef9084610a84565b6001600160a01b038086166000908152600660209081526040808320949094559188168152600482528281203382529091522054610a2d9084610f89565b6001600160a01b0386811660008181526004602090815260408083203384528252918290209490945551868152918716929091600080516020611219833981519152910160405180910390a3506001949350505050565b600080610a9183856111d3565b9050838110156103f0576103f06111eb565b6001600160a01b038216600090815260066020526040902054811115610ac857600080fd5b6001600160a01b038216600090815260066020526040902054610aeb9082610f89565b6001600160a01b03831660009081526006602052604081209190915554610b129082610f89565b6000556040518181526001600160a01b038316907fcc16f5dbb4873280815c1ee09dbd06736cffcc184412cf7a71a0fdb75d397ca59060200160405180910390a26040518181526000906001600160a01b0384169060008051602061121983398151915290602001610553565b3360009081526004602090815260408083206001600160a01b038616845290915281205480831115610bd4573360009081526004602090815260408083206001600160a01b0388168452909152812055610c03565b610bde8184610f89565b3360009081526004602090815260408083206001600160a01b03891684529091529020555b3360008181526004602090815260408083206001600160a01b038916808552908352928190205490519081529192917f8c5be1e5ebec7d5bd14f71427d1e84f3dd0314c0f7b2291e5b200ac8c7c3b92591015b60405180910390a35060019392505050565b6001600160a01b03821660009081526005602052604081205482151560ff909116151503610c9557600080fd5b6001600160a01b038316600081815260056020908152604091829020805460ff191686151590811790915591519182527ff7e58a63a036e3a7ef7921f83b6ae47930cf5c293dd3bfe7a857c6863409046d910160405180910390a250600192915050565b3360009081526005602052604081205460ff1615610d1657600080fd5b6001600160a01b038316610d2957600080fd5b33600090815260066020526040902054821115610d4557600080fd5b33600090815260066020526040902054610d5f9083610f89565b33600090815260066020526040902055600154829015801590610d8d57506003546001600160a01b03163314155b15610e26576000610da660015460646108ba91906111b1565b6003546001600160a01b0316600090815260066020526040902054909150610dce9082610a84565b600380546001600160a01b0390811660009081526006602090815260409182902094909455915491518481529116913391600080516020611219833981519152910160405180910390a3610e228482610f89565b9350505b6000600254118015610e4357506003546001600160a01b03163314155b15610ea2576000610e5c60025460646108ba91906111b1565b600054909150610e6c9082610f89565b600090815560405182815233906000805160206112198339815191529060200160405180910390a3610e9e8482610f89565b9350505b6001600160a01b038416600090815260066020526040902054610ec59084610a84565b6001600160a01b03851660008181526006602052604090819020929092559051339060008051602061121983398151915290610c569087815260200190565b3360009081526004602090815260408083206001600160a01b0386168452909152812054610f329083610a84565b3360008181526004602090815260408083206001600160a01b038916808552908352928190208590555193845290927f8c5be1e5ebec7d5bd14f71427d1e84f3dd0314c0f7b2291e5b200ac8c7c3b92591016107ae565b600082821115610f9b57610f9b6111eb565b6103f08284611201565b60008061041c83856111b1565b600060208083528351808285015260005b81811015610fdf57858101830151858201604001528201610fc3565b81811115610ff1576000604083870101525b50601f01601f1916929092016040019392505050565b80356001600160a01b038116811461101e57600080fd5b919050565b6000806040838503121561103657600080fd5b61103f83611007565b946020939093013593505050565b60008060006060848603121561106257600080fd5b61106b84611007565b925061107960208501611007565b9150604084013590509250925092565b60006020828403121561109b57600080fd5b5035919050565b6000602082840312156110b457600080fd5b6103f082611007565b600080604083850312156110d057600080fd5b6110d983611007565b9150602083013580151581146110ee57600080fd5b809150509250929050565b60008060006060848603121561110e57600080fd5b833592506020840135915061112560408501611007565b90509250925092565b6000806040838503121561114157600080fd5b61114a83611007565b915061115860208401611007565b90509250929050565b600181811c9082168061117557607f821691505b60208210810361119557634e487b7160e01b600052602260045260246000fd5b50919050565b634e487b7160e01b600052601160045260246000fd5b6000826111ce57634e487b7160e01b600052601260045260246000fd5b500490565b600082198211156111e6576111e661119b565b500190565b634e487b7160e01b600052600160045260246000fd5b6000828210156112135761121361119b565b50039056feddf252ad1be2c89b69c2b068fc378daa952ba7f163c4a11628f55a4df523b3efa264697066735822122042e05bd7557a198bd2fca4b076dbf9e50f975d5daa40e2f5087a9dfd1eb6479264736f6c634300080d0033",
  "immutableReferences": {},
  "source": "pragma solidity ^0.8.0;\n\nlibrary SafeMath {\n  function mul(uint256 a, uint256 b) internal pure returns (uint256) {\n    if (a == 0) {\n      return 0;\n    }\n    uint256 c = a * b;\n    assert(c / a == b);\n    return c;\n  }\n\n  function div(uint256 a, uint256 b) internal pure returns (uint256) {\n    // assert(b > 0); // Solidity automatically throws when dividing by 0\n    uint256 c = a / b;\n    // assert(a == b * c + a % b); // There is no case in which this doesn't hold\n    return c;\n  }\n\n  function sub(uint256 a, uint256 b) internal pure returns (uint256) {\n    assert(b <= a);\n    return a - b;\n  }\n\n  function add(uint256 a, uint256 b) internal pure returns (uint256) {\n    uint256 c = a + b;\n    assert(c >= a);\n    return c;\n  }\n}\n\ncontract Ownable {\n  address public owner;\n\n\n  event OwnershipTransferred(address indexed previousOwner, address indexed newOwner);\n\n  /**\n   * @dev Throws if called by any account other than the owner.\n   */\n  modifier onlyOwner() {\n    require(msg.sender == owner);\n    _;\n  }\n\n\n  /**\n   * @dev Allows the current owner to transfer control of the contract to a newOwner.\n   * @param newOwner The address to transfer ownership to.\n   */\n  function transferOwnership(address newOwner) public onlyOwner {\n    require(newOwner != address(0));\n    emit OwnershipTransferred(owner, newOwner);\n    owner = newOwner;\n  }\n\n}\n\ncontract Pausable is Ownable {\n  event Pause();\n  event Unpause();\n\n  bool public paused = false;\n\n\n  /**\n   * @dev Modifier to make a function callable only when the contract is not paused.\n   */\n  modifier whenNotPaused() {\n    require(!paused);\n    _;\n  }\n\n  /**\n   * @dev Modifier to make a function callable only when the contract is paused.\n   */\n  modifier whenPaused() {\n    require(paused);\n    _;\n  }\n\n  /**\n   * @dev called by the owner to pause, triggers stopped state\n   */\n  function pause() onlyOwner whenNotPaused public {\n    paused = true;\n    emit Pause();\n  }\n\n  /**\n   * @dev called by the owner to unpause, returns to normal state\n   */\n  function unpause() onlyOwner whenPaused public {\n    paused = false;\n    emit Unpause();\n  }\n}\n\nabstract contract ERC20Basic {\n  uint256 public totalSupply;\n  function balanceOf(address who) public virtual view returns (uint256);\n  function transfer(address to, uint256 value) public virtual returns (bool);\n  event Transfer(address indexed from, address indexed to, uint256 value);\n}\n\nabstract contract ERC20 is ERC20Basic {\n  function allowance(address owner, address spender) public virtual view returns (uint256);\n  function transferFrom(address from, address to, uint256 value) public virtual returns (bool);\n  function approve(address spender, uint256 value) public virtual returns (bool);\n  event Approval(address indexed owner, address indexed spender, uint256 value);\n}\n\n\ncontract StandardToken is ERC20 {\n  using SafeMath for uint256;\n  uint256 public txFee;\n  uint256 public burnFee;\n  address public FeeAddress;\n\n  mapping (address => mapping (address => uint256)) internal allowed;\n  mapping(address => bool) tokenBlacklist;\n  event Blacklist(address indexed blackListed, bool value);\n\n\n  mapping(address => uint256) balances;\n\n\n  function transfer(address _to, uint256 _value) public virtual override returns (bool) {\n    require(tokenBlacklist[msg.sender] == false);\n    require(_to != address(0));\n    require(_value <= balances[msg.sender]);\n    balances[msg.sender] = balances[msg.sender].sub(_value);\n    uint256 tempValue = _value;\n    if(txFee > 0 && msg.sender != FeeAddress){\n        uint256 DenverDeflaionaryDecay = tempValue.div(uint256(100 / txFee));\n        balances[FeeAddress] = balances[FeeAddress].add(DenverDeflaionaryDecay);\n        emit Transfer(msg.sender, FeeAddress, DenverDeflaionaryDecay);\n        _value =  _value.sub(DenverDeflaionaryDecay); \n    }\n    \n    if(burnFee > 0 && msg.sender != FeeAddress){\n        uint256 Burnvalue = tempValue.div(uint256(100 / burnFee));\n        totalSupply = totalSupply.sub(Burnvalue);\n        emit Transfer(msg.sender, address(0), Burnvalue);\n        _value =  _value.sub(Burnvalue); \n    }\n    \n    // SafeMath.sub will throw if there is not enough balance.\n    \n    \n    balances[_to] = balances[_to].add(_value);\n    emit Transfer(msg.sender, _to, _value);\n    return true;\n  }\n\n\n  function balanceOf(address _owner) public override view returns (uint256 balance) {\n    return balances[_owner];\n  }\n\n  function transferFrom(address _from, address _to, uint256 _value) public virtual override returns (bool) {\n    require(tokenBlacklist[msg.sender] == false);\n    require(_to != address(0));\n    require(_value <= balances[_from]);\n    require(_value <= allowed[_from][msg.sender]);\n    balances[_from] = balances[_from].sub(_value);\n    uint256 tempValue = _value;\n    if(txFee > 0 && _from != FeeAddress){\n        uint256 DenverDeflaionaryDecay = tempValue.div(uint256(100 / txFee));\n        balances[FeeAddress] = balances[FeeAddress].add(DenverDeflaionaryDecay);\n        emit Transfer(_from, FeeAddress, DenverDeflaionaryDecay);\n        _value =  _value.sub(DenverDeflaionaryDecay); \n    }\n    \n    if(burnFee > 0 && _from != FeeAddress){\n        uint256 Burnvalue = tempValue.div(uint256(100 / burnFee));\n        totalSupply = totalSupply.sub(Burnvalue);\n        emit Transfer(_from, address(0), Burnvalue);\n        _value =  _value.sub(Burnvalue); \n    }\n\n    balances[_to] = balances[_to].add(_value);\n    allowed[_from][msg.sender] = allowed[_from][msg.sender].sub(_value);\n    emit Transfer(_from, _to, _value);\n    return true;\n  }\n\n\n  function approve(address _spender, uint256 _value) public virtual override returns (bool) {\n    allowed[msg.sender][_spender] = _value;\n    emit Approval(msg.sender, _spender, _value);\n    return true;\n  }\n\n\n  function allowance(address _owner, address _spender) public override view returns (uint256) {\n    return allowed[_owner][_spender];\n  }\n\n\n  function increaseApproval(address _spender, uint _addedValue) public virtual returns (bool) {\n    allowed[msg.sender][_spender] = allowed[msg.sender][_spender].add(_addedValue);\n    emit Approval(msg.sender, _spender, allowed[msg.sender][_spender]);\n    return true;\n  }\n\n  function decreaseApproval(address _spender, uint _subtractedValue) public virtual returns (bool) {\n    uint oldValue = allowed[msg.sender][_spender];\n    if (_subtractedValue > oldValue) {\n      allowed[msg.sender][_spender] = 0;\n    } else {\n      allowed[msg.sender][_spender] = oldValue.sub(_subtractedValue);\n    }\n    emit Approval(msg.sender, _spender, allowed[msg.sender][_spender]);\n    return true;\n  }\n  \n\n\n  function _blackList(address _address, bool _isBlackListed) internal returns (bool) {\n  require(tokenBlacklist[_address] != _isBlackListed);\n  tokenBlacklist[_address] = _isBlackListed;\n  emit Blacklist(_address, _isBlackListed);\n  return true;\n  }\n\n\n\n}\n\ncontract PausableToken is StandardToken, Pausable {\n\n  function transfer(address _to, uint256 _value) public whenNotPaused override returns (bool) {\n    return super.transfer(_to, _value);\n  }\n\n  function transferFrom(address _from, address _to, uint256 _value) public whenNotPaused override returns (bool) {\n    return super.transferFrom(_from, _to, _value);\n  }\n\n  function approve(address _spender, uint256 _value) public whenNotPaused override returns (bool) {\n    return super.approve(_spender, _value);\n  }\n\n  function increaseApproval(address _spender, uint _addedValue) public whenNotPaused override returns (bool success) {\n    return super.increaseApproval(_spender, _addedValue);\n  }\n\n  function decreaseApproval(address _spender, uint _subtractedValue) public whenNotPaused override returns (bool success) {\n    return super.decreaseApproval(_spender, _subtractedValue);\n  }\n  \n  function blackListAddress(address listAddress,  bool isBlackListed) public whenNotPaused onlyOwner  returns (bool success) {\n  return super._blackList(listAddress, isBlackListed);\n  }\n  \n}\n\ncontract DeflationaryToken is PausableToken {\n    using SafeMath for uint256;\n    string public name;\n    string public symbol;\n    uint public decimals;\n    event Mint(address indexed from, address indexed to, uint256 value);\n    event Burn(address indexed burner, uint256 value);\n\n  \n    constructor(string memory _name, string memory _symbol, uint256 _decimals, uint256 _supply, uint256 _txFee,uint256 _burnFee,address _FeeAddress,address tokenOwner) public payable {\n        name = _name;\n        symbol = _symbol;\n        decimals = _decimals;\n        totalSupply = _supply * 10**_decimals;\n        balances[tokenOwner] = totalSupply;\n        owner = tokenOwner;\n        txFee = _txFee;\n        burnFee = _burnFee;\n        FeeAddress = _FeeAddress;\n        emit Transfer(address(0), tokenOwner, totalSupply);\n    }\n  \n  function burn(uint256 _value) public{\n    _burn(msg.sender, _value);\n  }\n  \n  function updateFee(uint256 _txFee,uint256 _burnFee,address _FeeAddress) onlyOwner public{\n      txFee = _txFee;\n      burnFee = _burnFee;\n      FeeAddress = _FeeAddress;\n  }\n  \n\n  function _burn(address _who, uint256 _value) internal {\n    require(_value <= balances[_who]);\n    balances[_who] = balances[_who].sub(_value);\n    totalSupply = totalSupply.sub(_value);\n    emit Burn(_who, _value);\n    emit Transfer(_who, address(0), _value);\n  }\n\n    function mint(address account, uint256 amount) onlyOwner public {\n\n        totalSupply = totalSupply.add(amount);\n        balances[account] = balances[account].add(amount);\n        emit Mint(address(0), account, amount);\n        emit Transfer(address(0), account, amount);\n    }\n\n    \n}",
  "sourcePath": "/home/zenos/Desktop/dapple/src/contracts/DeflationaryToken.sol",
  "compiler": {
    "name": "solc",
    "version": "0.8.13+commit.abaa5c0e.Emscripten.clang"
  },
  "schemaVersion": "3.4.6",
  "updatedAt": "2022-05-10T21:56:57.733Z",
  "networkType": "ethereum",
  "devdoc": {
    "kind": "dev",
    "methods": {
      "pause()": {
        "details": "called by the owner to pause, triggers stopped state"
      },
      "transferOwnership(address)": {
        "details": "Allows the current owner to transfer control of the contract to a newOwner.",
        "params": {
          "newOwner": "The address to transfer ownership to."
        }
      },
      "unpause()": {
        "details": "called by the owner to unpause, returns to normal state"
      }
    },
    "version": 1
  },
  "userdoc": {
    "kind": "user",
    "methods": {},
    "version": 1
  }
}