{
  "contractName": "NFTCollectibleERC721",
  "abi": [
    {
      "inputs": [
        {
          "internalType": "string",
          "name": "baseURI",
          "type": "string"
        }
      ],
      "stateMutability": "nonpayable",
      "type": "constructor"
    },
    {
      "anonymous": false,
      "inputs": [
        {
          "indexed": true,
          "internalType": "address",
          "name": "owner",
          "type": "address"
        },
        {
          "indexed": true,
          "internalType": "address",
          "name": "approved",
          "type": "address"
        },
        {
          "indexed": true,
          "internalType": "uint256",
          "name": "tokenId",
          "type": "uint256"
        }
      ],
      "name": "Approval",
      "type": "event"
    },
    {
      "anonymous": false,
      "inputs": [
        {
          "indexed": true,
          "internalType": "address",
          "name": "owner",
          "type": "address"
        },
        {
          "indexed": true,
          "internalType": "address",
          "name": "operator",
          "type": "address"
        },
        {
          "indexed": false,
          "internalType": "bool",
          "name": "approved",
          "type": "bool"
        }
      ],
      "name": "ApprovalForAll",
      "type": "event"
    },
    {
      "anonymous": false,
      "inputs": [
        {
          "indexed": true,
          "internalType": "address",
          "name": "previousOwner",
          "type": "address"
        },
        {
          "indexed": true,
          "internalType": "address",
          "name": "newOwner",
          "type": "address"
        }
      ],
      "name": "OwnershipTransferred",
      "type": "event"
    },
    {
      "anonymous": false,
      "inputs": [
        {
          "indexed": true,
          "internalType": "address",
          "name": "from",
          "type": "address"
        },
        {
          "indexed": true,
          "internalType": "address",
          "name": "to",
          "type": "address"
        },
        {
          "indexed": true,
          "internalType": "uint256",
          "name": "tokenId",
          "type": "uint256"
        }
      ],
      "name": "Transfer",
      "type": "event"
    },
    {
      "inputs": [],
      "name": "MAX_PER_MINT",
      "outputs": [
        {
          "internalType": "uint256",
          "name": "",
          "type": "uint256"
        }
      ],
      "stateMutability": "view",
      "type": "function",
      "constant": true
    },
    {
      "inputs": [],
      "name": "MAX_SUPPLY",
      "outputs": [
        {
          "internalType": "uint256",
          "name": "",
          "type": "uint256"
        }
      ],
      "stateMutability": "view",
      "type": "function",
      "constant": true
    },
    {
      "inputs": [
        {
          "internalType": "address",
          "name": "to",
          "type": "address"
        },
        {
          "internalType": "uint256",
          "name": "tokenId",
          "type": "uint256"
        }
      ],
      "name": "approve",
      "outputs": [],
      "stateMutability": "nonpayable",
      "type": "function"
    },
    {
      "inputs": [
        {
          "internalType": "address",
          "name": "owner",
          "type": "address"
        }
      ],
      "name": "balanceOf",
      "outputs": [
        {
          "internalType": "uint256",
          "name": "",
          "type": "uint256"
        }
      ],
      "stateMutability": "view",
      "type": "function",
      "constant": true
    },
    {
      "inputs": [],
      "name": "baseTokenURI",
      "outputs": [
        {
          "internalType": "string",
          "name": "",
          "type": "string"
        }
      ],
      "stateMutability": "view",
      "type": "function",
      "constant": true
    },
    {
      "inputs": [
        {
          "internalType": "uint256",
          "name": "tokenId",
          "type": "uint256"
        }
      ],
      "name": "getApproved",
      "outputs": [
        {
          "internalType": "address",
          "name": "",
          "type": "address"
        }
      ],
      "stateMutability": "view",
      "type": "function",
      "constant": true
    },
    {
      "inputs": [
        {
          "internalType": "address",
          "name": "owner",
          "type": "address"
        },
        {
          "internalType": "address",
          "name": "operator",
          "type": "address"
        }
      ],
      "name": "isApprovedForAll",
      "outputs": [
        {
          "internalType": "bool",
          "name": "",
          "type": "bool"
        }
      ],
      "stateMutability": "view",
      "type": "function",
      "constant": true
    },
    {
      "inputs": [],
      "name": "name",
      "outputs": [
        {
          "internalType": "string",
          "name": "",
          "type": "string"
        }
      ],
      "stateMutability": "view",
      "type": "function",
      "constant": true
    },
    {
      "inputs": [],
      "name": "owner",
      "outputs": [
        {
          "internalType": "address",
          "name": "",
          "type": "address"
        }
      ],
      "stateMutability": "view",
      "type": "function",
      "constant": true
    },
    {
      "inputs": [
        {
          "internalType": "uint256",
          "name": "tokenId",
          "type": "uint256"
        }
      ],
      "name": "ownerOf",
      "outputs": [
        {
          "internalType": "address",
          "name": "",
          "type": "address"
        }
      ],
      "stateMutability": "view",
      "type": "function",
      "constant": true
    },
    {
      "inputs": [],
      "name": "renounceOwnership",
      "outputs": [],
      "stateMutability": "nonpayable",
      "type": "function"
    },
    {
      "inputs": [
        {
          "internalType": "address",
          "name": "from",
          "type": "address"
        },
        {
          "internalType": "address",
          "name": "to",
          "type": "address"
        },
        {
          "internalType": "uint256",
          "name": "tokenId",
          "type": "uint256"
        }
      ],
      "name": "safeTransferFrom",
      "outputs": [],
      "stateMutability": "nonpayable",
      "type": "function"
    },
    {
      "inputs": [
        {
          "internalType": "address",
          "name": "from",
          "type": "address"
        },
        {
          "internalType": "address",
          "name": "to",
          "type": "address"
        },
        {
          "internalType": "uint256",
          "name": "tokenId",
          "type": "uint256"
        },
        {
          "internalType": "bytes",
          "name": "_data",
          "type": "bytes"
        }
      ],
      "name": "safeTransferFrom",
      "outputs": [],
      "stateMutability": "nonpayable",
      "type": "function"
    },
    {
      "inputs": [
        {
          "internalType": "address",
          "name": "operator",
          "type": "address"
        },
        {
          "internalType": "bool",
          "name": "approved",
          "type": "bool"
        }
      ],
      "name": "setApprovalForAll",
      "outputs": [],
      "stateMutability": "nonpayable",
      "type": "function"
    },
    {
      "inputs": [
        {
          "internalType": "bytes4",
          "name": "interfaceId",
          "type": "bytes4"
        }
      ],
      "name": "supportsInterface",
      "outputs": [
        {
          "internalType": "bool",
          "name": "",
          "type": "bool"
        }
      ],
      "stateMutability": "view",
      "type": "function",
      "constant": true
    },
    {
      "inputs": [],
      "name": "symbol",
      "outputs": [
        {
          "internalType": "string",
          "name": "",
          "type": "string"
        }
      ],
      "stateMutability": "view",
      "type": "function",
      "constant": true
    },
    {
      "inputs": [
        {
          "internalType": "uint256",
          "name": "index",
          "type": "uint256"
        }
      ],
      "name": "tokenByIndex",
      "outputs": [
        {
          "internalType": "uint256",
          "name": "",
          "type": "uint256"
        }
      ],
      "stateMutability": "view",
      "type": "function",
      "constant": true
    },
    {
      "inputs": [
        {
          "internalType": "address",
          "name": "owner",
          "type": "address"
        },
        {
          "internalType": "uint256",
          "name": "index",
          "type": "uint256"
        }
      ],
      "name": "tokenOfOwnerByIndex",
      "outputs": [
        {
          "internalType": "uint256",
          "name": "",
          "type": "uint256"
        }
      ],
      "stateMutability": "view",
      "type": "function",
      "constant": true
    },
    {
      "inputs": [
        {
          "internalType": "uint256",
          "name": "tokenId",
          "type": "uint256"
        }
      ],
      "name": "tokenURI",
      "outputs": [
        {
          "internalType": "string",
          "name": "",
          "type": "string"
        }
      ],
      "stateMutability": "view",
      "type": "function",
      "constant": true
    },
    {
      "inputs": [],
      "name": "totalSupply",
      "outputs": [
        {
          "internalType": "uint256",
          "name": "",
          "type": "uint256"
        }
      ],
      "stateMutability": "view",
      "type": "function",
      "constant": true
    },
    {
      "inputs": [
        {
          "internalType": "address",
          "name": "from",
          "type": "address"
        },
        {
          "internalType": "address",
          "name": "to",
          "type": "address"
        },
        {
          "internalType": "uint256",
          "name": "tokenId",
          "type": "uint256"
        }
      ],
      "name": "transferFrom",
      "outputs": [],
      "stateMutability": "nonpayable",
      "type": "function"
    },
    {
      "inputs": [
        {
          "internalType": "address",
          "name": "newOwner",
          "type": "address"
        }
      ],
      "name": "transferOwnership",
      "outputs": [],
      "stateMutability": "nonpayable",
      "type": "function"
    },
    {
      "inputs": [],
      "name": "reserveNFTs",
      "outputs": [],
      "stateMutability": "nonpayable",
      "type": "function"
    },
    {
      "inputs": [
        {
          "internalType": "string",
          "name": "_baseTokenURI",
          "type": "string"
        }
      ],
      "name": "setBaseURI",
      "outputs": [],
      "stateMutability": "nonpayable",
      "type": "function"
    },
    {
      "inputs": [
        {
          "internalType": "uint256",
          "name": "_count",
          "type": "uint256"
        }
      ],
      "name": "mintNFTs",
      "outputs": [],
      "stateMutability": "nonpayable",
      "type": "function"
    },
    {
      "inputs": [
        {
          "internalType": "address",
          "name": "_owner",
          "type": "address"
        }
      ],
      "name": "tokensOfOwner",
      "outputs": [
        {
          "internalType": "uint256[]",
          "name": "",
          "type": "uint256[]"
        }
      ],
      "stateMutability": "view",
      "type": "function",
      "constant": true
    },
    {
      "inputs": [],
      "name": "withdraw",
      "outputs": [],
      "stateMutability": "payable",
      "type": "function",
      "payable": true
    }
  ],
  "bytecode": "0x60806040523480156200001157600080fd5b50604051620024d1380380620024d1833981016040819052620000349162000256565b604080518082018252600f81526e4e465420436f6c6c65637469626c6560881b6020808301918252835180850190945260048452634e46544360e01b90840152815191929162000087916000916200019a565b5080516200009d9060019060208401906200019a565b505050620000ba620000b4620000cc60201b60201c565b620000d0565b620000c58162000122565b506200036e565b3390565b600a80546001600160a01b038381166001600160a01b0319831681179093556040519116919082907f8be0079c531659141344cd1fd0a4f28419497f9722a3daafe3b4186f6b6457e090600090a35050565b600a546001600160a01b03163314620001815760405162461bcd60e51b815260206004820181905260248201527f4f776e61626c653a2063616c6c6572206973206e6f7420746865206f776e6572604482015260640160405180910390fd5b80516200019690600c9060208401906200019a565b5050565b828054620001a89062000332565b90600052602060002090601f016020900481019282620001cc576000855562000217565b82601f10620001e757805160ff191683800117855562000217565b8280016001018555821562000217579182015b8281111562000217578251825591602001919060010190620001fa565b506200022592915062000229565b5090565b5b808211156200022557600081556001016200022a565b634e487b7160e01b600052604160045260246000fd5b600060208083850312156200026a57600080fd5b82516001600160401b03808211156200028257600080fd5b818501915085601f8301126200029757600080fd5b815181811115620002ac57620002ac62000240565b604051601f8201601f19908116603f01168101908382118183101715620002d757620002d762000240565b816040528281528886848701011115620002f057600080fd5b600093505b82841015620003145784840186015181850187015292850192620002f5565b82841115620003265760008684830101525b98975050505050505050565b600181811c908216806200034757607f821691505b6020821081036200036857634e487b7160e01b600052602260045260246000fd5b50919050565b612153806200037e6000396000f3fe60806040526004361061019c5760003560e01c80634f6ccce7116100ec57806395d89b411161008a578063c87b56dd11610064578063c87b56dd1461045d578063d547cfb71461047d578063e985e9c514610492578063f2fde38b146104db57600080fd5b806395d89b4114610408578063a22cb4651461041d578063b88d4fde1461043d57600080fd5b806370a08231116100c657806370a0823114610388578063715018a6146103a85780638462151c146103bd5780638da5cb5b146103ea57600080fd5b80634f6ccce71461032857806355f804b3146103485780636352211e1461036857600080fd5b806318160ddd1161015957806332cb6b0c1161013357806332cb6b0c146102525780633b4b1381146102e05780633ccfd60b1461030057806342842e0e1461030857600080fd5b806318160ddd1461028b57806323b872dd146102a05780632f745c59146102c057600080fd5b806301ffc9a7146101a157806306fdde03146101d6578063081812fc146101f8578063095ea7b31461023057806309d42b3014610252578063144100c714610276575b600080fd5b3480156101ad57600080fd5b506101c16101bc366004611b78565b6104fb565b60405190151581526020015b60405180910390f35b3480156101e257600080fd5b506101eb610526565b6040516101cd9190611bed565b34801561020457600080fd5b50610218610213366004611c00565b6105b8565b6040516001600160a01b0390911681526020016101cd565b34801561023c57600080fd5b5061025061024b366004611c35565b610652565b005b34801561025e57600080fd5b5061026861c35081565b6040519081526020016101cd565b34801561028257600080fd5b50610250610767565b34801561029757600080fd5b50600854610268565b3480156102ac57600080fd5b506102506102bb366004611c5f565b610823565b3480156102cc57600080fd5b506102686102db366004611c35565b610854565b3480156102ec57600080fd5b506102506102fb366004611c00565b6108ea565b6102506109db565b34801561031457600080fd5b50610250610323366004611c5f565b610ade565b34801561033457600080fd5b50610268610343366004611c00565b610af9565b34801561035457600080fd5b50610250610363366004611d27565b610b8c565b34801561037457600080fd5b50610218610383366004611c00565b610bc9565b34801561039457600080fd5b506102686103a3366004611d70565b610c40565b3480156103b457600080fd5b50610250610cc7565b3480156103c957600080fd5b506103dd6103d8366004611d70565b610cfd565b6040516101cd9190611d8b565b3480156103f657600080fd5b50600a546001600160a01b0316610218565b34801561041457600080fd5b506101eb610d9f565b34801561042957600080fd5b50610250610438366004611dcf565b610dae565b34801561044957600080fd5b50610250610458366004611e0b565b610db9565b34801561046957600080fd5b506101eb610478366004611c00565b610df1565b34801561048957600080fd5b506101eb610ecc565b34801561049e57600080fd5b506101c16104ad366004611e87565b6001600160a01b03918216600090815260056020908152604080832093909416825291909152205460ff1690565b3480156104e757600080fd5b506102506104f6366004611d70565b610f5a565b60006001600160e01b0319821663780e9d6360e01b1480610520575061052082610ff5565b92915050565b60606000805461053590611eba565b80601f016020809104026020016040519081016040528092919081815260200182805461056190611eba565b80156105ae5780601f10610583576101008083540402835291602001916105ae565b820191906000526020600020905b81548152906001019060200180831161059157829003601f168201915b5050505050905090565b6000818152600260205260408120546001600160a01b03166106365760405162461bcd60e51b815260206004820152602c60248201527f4552433732313a20617070726f76656420717565727920666f72206e6f6e657860448201526b34b9ba32b73a103a37b5b2b760a11b60648201526084015b60405180910390fd5b506000908152600460205260409020546001600160a01b031690565b600061065d82610bc9565b9050806001600160a01b0316836001600160a01b0316036106ca5760405162461bcd60e51b815260206004820152602160248201527f4552433732313a20617070726f76616c20746f2063757272656e74206f776e656044820152603960f91b606482015260840161062d565b336001600160a01b03821614806106e657506106e681336104ad565b6107585760405162461bcd60e51b815260206004820152603860248201527f4552433732313a20617070726f76652063616c6c6572206973206e6f74206f7760448201527f6e6572206e6f7220617070726f76656420666f7220616c6c0000000000000000606482015260840161062d565b6107628383611045565b505050565b600a546001600160a01b031633146107915760405162461bcd60e51b815260040161062d90611ef4565b600061079c600b5490565b905061c3506107ac82600a6110b3565b106107f95760405162461bcd60e51b815260206004820152601f60248201527f4e6f7420656e6f756768204e465473206c65667420746f207265736572766500604482015260640161062d565b60005b600a81101561081f5761080d6110bf565b8061081781611f3f565b9150506107fc565b5050565b61082d33826110e4565b6108495760405162461bcd60e51b815260040161062d90611f58565b6107628383836111db565b600061085f83610c40565b82106108c15760405162461bcd60e51b815260206004820152602b60248201527f455243373231456e756d657261626c653a206f776e657220696e646578206f7560448201526a74206f6620626f756e647360a81b606482015260840161062d565b506001600160a01b03919091166000908152600660209081526040808320938352929052205490565b60006108f5600b5490565b905061c35061090482846110b3565b111561094a5760405162461bcd60e51b81526020600482015260156024820152744e6f7420656e6f756768204e465473206c6566742160581b604482015260640161062d565b60008211801561095c575061c3508211155b6109b65760405162461bcd60e51b815260206004820152602560248201527f43616e6e6f74206d696e7420737065636966696564206e756d626572206f662060448201526427232a399760d91b606482015260840161062d565b60005b82811015610762576109c96110bf565b806109d381611f3f565b9150506109b9565b600a546001600160a01b03163314610a055760405162461bcd60e51b815260040161062d90611ef4565b4780610a535760405162461bcd60e51b815260206004820152601960248201527f4e6f206574686572206c65667420746f20776974686472617700000000000000604482015260640161062d565b604051600090339083908381818185875af1925050503d8060008114610a95576040519150601f19603f3d011682016040523d82523d6000602084013e610a9a565b606091505b505090508061081f5760405162461bcd60e51b815260206004820152601060248201526f2a3930b739b332b9103330b4b632b21760811b604482015260640161062d565b61076283838360405180602001604052806000815250610db9565b6000610b0460085490565b8210610b675760405162461bcd60e51b815260206004820152602c60248201527f455243373231456e756d657261626c653a20676c6f62616c20696e646578206f60448201526b7574206f6620626f756e647360a01b606482015260840161062d565b60088281548110610b7a57610b7a611fa9565b90600052602060002001549050919050565b600a546001600160a01b03163314610bb65760405162461bcd60e51b815260040161062d90611ef4565b805161081f90600c906020840190611ac9565b6000818152600260205260408120546001600160a01b0316806105205760405162461bcd60e51b815260206004820152602960248201527f4552433732313a206f776e657220717565727920666f72206e6f6e657869737460448201526832b73a103a37b5b2b760b91b606482015260840161062d565b60006001600160a01b038216610cab5760405162461bcd60e51b815260206004820152602a60248201527f4552433732313a2062616c616e636520717565727920666f7220746865207a65604482015269726f206164647265737360b01b606482015260840161062d565b506001600160a01b031660009081526003602052604090205490565b600a546001600160a01b03163314610cf15760405162461bcd60e51b815260040161062d90611ef4565b610cfb6000611382565b565b60606000610d0a83610c40565b905060008167ffffffffffffffff811115610d2757610d27611c9b565b604051908082528060200260200182016040528015610d50578160200160208202803683370190505b50905060005b82811015610d9757610d688582610854565b828281518110610d7a57610d7a611fa9565b602090810291909101015280610d8f81611f3f565b915050610d56565b509392505050565b60606001805461053590611eba565b61081f3383836113d4565b610dc333836110e4565b610ddf5760405162461bcd60e51b815260040161062d90611f58565b610deb848484846114a2565b50505050565b6000818152600260205260409020546060906001600160a01b0316610e705760405162461bcd60e51b815260206004820152602f60248201527f4552433732314d657461646174613a2055524920717565727920666f72206e6f60448201526e3732bc34b9ba32b73a103a37b5b2b760891b606482015260840161062d565b6000610e7a6114d5565b90506000815111610e9a5760405180602001604052806000815250610ec5565b80610ea4846114e4565b604051602001610eb5929190611fbf565b6040516020818303038152906040525b9392505050565b600c8054610ed990611eba565b80601f0160208091040260200160405190810160405280929190818152602001828054610f0590611eba565b8015610f525780601f10610f2757610100808354040283529160200191610f52565b820191906000526020600020905b815481529060010190602001808311610f3557829003601f168201915b505050505081565b600a546001600160a01b03163314610f845760405162461bcd60e51b815260040161062d90611ef4565b6001600160a01b038116610fe95760405162461bcd60e51b815260206004820152602660248201527f4f776e61626c653a206e6577206f776e657220697320746865207a65726f206160448201526564647265737360d01b606482015260840161062d565b610ff281611382565b50565b60006001600160e01b031982166380ac58cd60e01b148061102657506001600160e01b03198216635b5e139f60e01b145b8061052057506301ffc9a760e01b6001600160e01b0319831614610520565b600081815260046020526040902080546001600160a01b0319166001600160a01b038416908117909155819061107a82610bc9565b6001600160a01b03167f8c5be1e5ebec7d5bd14f71427d1e84f3dd0314c0f7b2291e5b200ac8c7c3b92560405160405180910390a45050565b6000610ec58284611fee565b60006110ca600b5490565b90506110d633826115e5565b610ff2600b80546001019055565b6000818152600260205260408120546001600160a01b031661115d5760405162461bcd60e51b815260206004820152602c60248201527f4552433732313a206f70657261746f7220717565727920666f72206e6f6e657860448201526b34b9ba32b73a103a37b5b2b760a11b606482015260840161062d565b600061116883610bc9565b9050806001600160a01b0316846001600160a01b031614806111a35750836001600160a01b0316611198846105b8565b6001600160a01b0316145b806111d357506001600160a01b0380821660009081526005602090815260408083209388168352929052205460ff165b949350505050565b826001600160a01b03166111ee82610bc9565b6001600160a01b0316146112525760405162461bcd60e51b815260206004820152602560248201527f4552433732313a207472616e736665722066726f6d20696e636f72726563742060448201526437bbb732b960d91b606482015260840161062d565b6001600160a01b0382166112b45760405162461bcd60e51b8152602060048201526024808201527f4552433732313a207472616e7366657220746f20746865207a65726f206164646044820152637265737360e01b606482015260840161062d565b6112bf8383836115ff565b6112ca600082611045565b6001600160a01b03831660009081526003602052604081208054600192906112f3908490612006565b90915550506001600160a01b0382166000908152600360205260408120805460019290611321908490611fee565b909155505060008181526002602052604080822080546001600160a01b0319166001600160a01b0386811691821790925591518493918716917fddf252ad1be2c89b69c2b068fc378daa952ba7f163c4a11628f55a4df523b3ef91a4505050565b600a80546001600160a01b038381166001600160a01b0319831681179093556040519116919082907f8be0079c531659141344cd1fd0a4f28419497f9722a3daafe3b4186f6b6457e090600090a35050565b816001600160a01b0316836001600160a01b0316036114355760405162461bcd60e51b815260206004820152601960248201527f4552433732313a20617070726f766520746f2063616c6c657200000000000000604482015260640161062d565b6001600160a01b03838116600081815260056020908152604080832094871680845294825291829020805460ff191686151590811790915591519182527f17307eab39ab6107e8899845ad3d59bd9653f200f220920489ca2b5937696c31910160405180910390a3505050565b6114ad8484846111db565b6114b9848484846116b7565b610deb5760405162461bcd60e51b815260040161062d9061201d565b6060600c805461053590611eba565b60608160000361150b5750506040805180820190915260018152600360fc1b602082015290565b8160005b8115611535578061151f81611f3f565b915061152e9050600a83612085565b915061150f565b60008167ffffffffffffffff81111561155057611550611c9b565b6040519080825280601f01601f19166020018201604052801561157a576020820181803683370190505b5090505b84156111d35761158f600183612006565b915061159c600a86612099565b6115a7906030611fee565b60f81b8183815181106115bc576115bc611fa9565b60200101906001600160f81b031916908160001a9053506115de600a86612085565b945061157e565b61081f8282604051806020016040528060008152506117b8565b6001600160a01b03831661165a5761165581600880546000838152600960205260408120829055600182018355919091527ff3f7a9fe364faab93b216da50a3214154f22a0a2b415b23a84c8169e8b636ee30155565b61167d565b816001600160a01b0316836001600160a01b03161461167d5761167d83826117eb565b6001600160a01b0382166116945761076281611888565b826001600160a01b0316826001600160a01b031614610762576107628282611937565b60006001600160a01b0384163b156117ad57604051630a85bd0160e11b81526001600160a01b0385169063150b7a02906116fb9033908990889088906004016120ad565b6020604051808303816000875af1925050508015611736575060408051601f3d908101601f19168201909252611733918101906120ea565b60015b611793573d808015611764576040519150601f19603f3d011682016040523d82523d6000602084013e611769565b606091505b50805160000361178b5760405162461bcd60e51b815260040161062d9061201d565b805181602001fd5b6001600160e01b031916630a85bd0160e11b1490506111d3565b506001949350505050565b6117c2838361197b565b6117cf60008484846116b7565b6107625760405162461bcd60e51b815260040161062d9061201d565b600060016117f884610c40565b6118029190612006565b600083815260076020526040902054909150808214611855576001600160a01b03841660009081526006602090815260408083208584528252808320548484528184208190558352600790915290208190555b5060009182526007602090815260408084208490556001600160a01b039094168352600681528383209183525290812055565b60085460009061189a90600190612006565b600083815260096020526040812054600880549394509092849081106118c2576118c2611fa9565b9060005260206000200154905080600883815481106118e3576118e3611fa9565b600091825260208083209091019290925582815260099091526040808220849055858252812055600880548061191b5761191b612107565b6001900381819060005260206000200160009055905550505050565b600061194283610c40565b6001600160a01b039093166000908152600660209081526040808320868452825280832085905593825260079052919091209190915550565b6001600160a01b0382166119d15760405162461bcd60e51b815260206004820181905260248201527f4552433732313a206d696e7420746f20746865207a65726f2061646472657373604482015260640161062d565b6000818152600260205260409020546001600160a01b031615611a365760405162461bcd60e51b815260206004820152601c60248201527f4552433732313a20746f6b656e20616c7265616479206d696e74656400000000604482015260640161062d565b611a42600083836115ff565b6001600160a01b0382166000908152600360205260408120805460019290611a6b908490611fee565b909155505060008181526002602052604080822080546001600160a01b0319166001600160a01b03861690811790915590518392907fddf252ad1be2c89b69c2b068fc378daa952ba7f163c4a11628f55a4df523b3ef908290a45050565b828054611ad590611eba565b90600052602060002090601f016020900481019282611af75760008555611b3d565b82601f10611b1057805160ff1916838001178555611b3d565b82800160010185558215611b3d579182015b82811115611b3d578251825591602001919060010190611b22565b50611b49929150611b4d565b5090565b5b80821115611b495760008155600101611b4e565b6001600160e01b031981168114610ff257600080fd5b600060208284031215611b8a57600080fd5b8135610ec581611b62565b60005b83811015611bb0578181015183820152602001611b98565b83811115610deb5750506000910152565b60008151808452611bd9816020860160208601611b95565b601f01601f19169290920160200192915050565b602081526000610ec56020830184611bc1565b600060208284031215611c1257600080fd5b5035919050565b80356001600160a01b0381168114611c3057600080fd5b919050565b60008060408385031215611c4857600080fd5b611c5183611c19565b946020939093013593505050565b600080600060608486031215611c7457600080fd5b611c7d84611c19565b9250611c8b60208501611c19565b9150604084013590509250925092565b634e487b7160e01b600052604160045260246000fd5b600067ffffffffffffffff80841115611ccc57611ccc611c9b565b604051601f8501601f19908116603f01168101908282118183101715611cf457611cf4611c9b565b81604052809350858152868686011115611d0d57600080fd5b858560208301376000602087830101525050509392505050565b600060208284031215611d3957600080fd5b813567ffffffffffffffff811115611d5057600080fd5b8201601f81018413611d6157600080fd5b6111d384823560208401611cb1565b600060208284031215611d8257600080fd5b610ec582611c19565b6020808252825182820181905260009190848201906040850190845b81811015611dc357835183529284019291840191600101611da7565b50909695505050505050565b60008060408385031215611de257600080fd5b611deb83611c19565b915060208301358015158114611e0057600080fd5b809150509250929050565b60008060008060808587031215611e2157600080fd5b611e2a85611c19565b9350611e3860208601611c19565b925060408501359150606085013567ffffffffffffffff811115611e5b57600080fd5b8501601f81018713611e6c57600080fd5b611e7b87823560208401611cb1565b91505092959194509250565b60008060408385031215611e9a57600080fd5b611ea383611c19565b9150611eb160208401611c19565b90509250929050565b600181811c90821680611ece57607f821691505b602082108103611eee57634e487b7160e01b600052602260045260246000fd5b50919050565b6020808252818101527f4f776e61626c653a2063616c6c6572206973206e6f7420746865206f776e6572604082015260600190565b634e487b7160e01b600052601160045260246000fd5b600060018201611f5157611f51611f29565b5060010190565b60208082526031908201527f4552433732313a207472616e736665722063616c6c6572206973206e6f74206f6040820152701ddb995c881b9bdc88185c1c1c9bdd9959607a1b606082015260800190565b634e487b7160e01b600052603260045260246000fd5b60008351611fd1818460208801611b95565b835190830190611fe5818360208801611b95565b01949350505050565b6000821982111561200157612001611f29565b500190565b60008282101561201857612018611f29565b500390565b60208082526032908201527f4552433732313a207472616e7366657220746f206e6f6e20455243373231526560408201527131b2b4bb32b91034b6b83632b6b2b73a32b960711b606082015260800190565b634e487b7160e01b600052601260045260246000fd5b6000826120945761209461206f565b500490565b6000826120a8576120a861206f565b500690565b6001600160a01b03858116825284166020820152604081018390526080606082018190526000906120e090830184611bc1565b9695505050505050565b6000602082840312156120fc57600080fd5b8151610ec581611b62565b634e487b7160e01b600052603160045260246000fdfea2646970667358221220e9e4037bf04aa8a1b03a38426bd017ad41a251cb79e3d36a283b9841ce13ad2f64736f6c634300080d0033",
  "immutableReferences": {},
  "source": "//SPDX-License-Identifier: MIT\npragma solidity ^0.8.0;\n\nimport \"openzeppelin-solidity/contracts/utils/Counters.sol\";\nimport \"openzeppelin-solidity/contracts/access/Ownable.sol\";\nimport \"openzeppelin-solidity/contracts/utils/math/SafeMath.sol\";\nimport \"openzeppelin-solidity/contracts/token/ERC721/extensions/ERC721Enumerable.sol\";\n\ncontract NFTCollectibleERC721 is ERC721Enumerable, Ownable {\n    using SafeMath for uint256;\n    using Counters for Counters.Counter;\n    \n    Counters.Counter private _tokenIds;\n    \n    uint public constant MAX_SUPPLY = 50000;\n    uint public constant MAX_PER_MINT = 50000;\n    \n    string public baseTokenURI;\n    \n    constructor(string memory baseURI) ERC721(\"NFT Collectible\", \"NFTC\") {\n        setBaseURI(baseURI);\n    }\n    \n    function reserveNFTs() public onlyOwner {\n        uint totalMinted = _tokenIds.current();\n\n        require(totalMinted.add(10) < MAX_SUPPLY, \"Not enough NFTs left to reserve\");\n\n        for (uint i = 0; i < 10; i++) {\n            _mintSingleNFT();\n        }\n    }\n    \n    function _baseURI() internal view virtual override returns (string memory) {\n        return baseTokenURI;\n    }\n    \n    function setBaseURI(string memory _baseTokenURI) public onlyOwner {\n        baseTokenURI = _baseTokenURI;\n    }\n    \n    function mintNFTs(uint _count) public {\n        uint totalMinted = _tokenIds.current();\n\n        require(totalMinted.add(_count) <= MAX_SUPPLY, \"Not enough NFTs left!\");\n        require(_count >0 && _count <= MAX_PER_MINT, \"Cannot mint specified number of NFTs.\");\n\n        for (uint i = 0; i < _count; i++) {\n            _mintSingleNFT();\n        }\n    }\n    \n    function _mintSingleNFT() private {\n        uint newTokenID = _tokenIds.current();\n        _safeMint(msg.sender, newTokenID);\n        _tokenIds.increment();\n    }\n    \n    function tokensOfOwner(address _owner) external view returns (uint[] memory) {\n\n        uint tokenCount = balanceOf(_owner);\n        uint[] memory tokensId = new uint256[](tokenCount);\n\n        for (uint i = 0; i < tokenCount; i++) {\n            tokensId[i] = tokenOfOwnerByIndex(_owner, i);\n        }\n        return tokensId;\n    }\n    \n    function withdraw() public payable onlyOwner {\n        uint balance = address(this).balance;\n        require(balance > 0, \"No ether left to withdraw\");\n\n        (bool success, ) = (msg.sender).call{value: balance}(\"\");\n        require(success, \"Transfer failed.\");\n    }\n    \n}",
  "sourcePath": "/home/zenos/Desktop/dapple/src/contracts/ERC721Token.sol",
  "compiler": {
    "name": "solc",
    "version": "0.8.13+commit.abaa5c0e.Emscripten.clang"
  },
  "schemaVersion": "3.4.6",
  "updatedAt": "2022-05-10T21:56:57.747Z",
  "networkType": "ethereum",
  "devdoc": {
    "kind": "dev",
    "methods": {
      "approve(address,uint256)": {
        "details": "See {IERC721-approve}."
      },
      "balanceOf(address)": {
        "details": "See {IERC721-balanceOf}."
      },
      "getApproved(uint256)": {
        "details": "See {IERC721-getApproved}."
      },
      "isApprovedForAll(address,address)": {
        "details": "See {IERC721-isApprovedForAll}."
      },
      "name()": {
        "details": "See {IERC721Metadata-name}."
      },
      "owner()": {
        "details": "Returns the address of the current owner."
      },
      "ownerOf(uint256)": {
        "details": "See {IERC721-ownerOf}."
      },
      "renounceOwnership()": {
        "details": "Leaves the contract without owner. It will not be possible to call `onlyOwner` functions anymore. Can only be called by the current owner. NOTE: Renouncing ownership will leave the contract without an owner, thereby removing any functionality that is only available to the owner."
      },
      "safeTransferFrom(address,address,uint256)": {
        "details": "See {IERC721-safeTransferFrom}."
      },
      "safeTransferFrom(address,address,uint256,bytes)": {
        "details": "See {IERC721-safeTransferFrom}."
      },
      "setApprovalForAll(address,bool)": {
        "details": "See {IERC721-setApprovalForAll}."
      },
      "supportsInterface(bytes4)": {
        "details": "See {IERC165-supportsInterface}."
      },
      "symbol()": {
        "details": "See {IERC721Metadata-symbol}."
      },
      "tokenByIndex(uint256)": {
        "details": "See {IERC721Enumerable-tokenByIndex}."
      },
      "tokenOfOwnerByIndex(address,uint256)": {
        "details": "See {IERC721Enumerable-tokenOfOwnerByIndex}."
      },
      "tokenURI(uint256)": {
        "details": "See {IERC721Metadata-tokenURI}."
      },
      "totalSupply()": {
        "details": "See {IERC721Enumerable-totalSupply}."
      },
      "transferFrom(address,address,uint256)": {
        "details": "See {IERC721-transferFrom}."
      },
      "transferOwnership(address)": {
        "details": "Transfers ownership of the contract to a new account (`newOwner`). Can only be called by the current owner."
      }
    },
    "version": 1
  },
  "userdoc": {
    "kind": "user",
    "methods": {},
    "version": 1
  }
}