{
  "contractName": "Token",
  "abi": [
    {
      "inputs": [],
      "stateMutability": "nonpayable",
      "type": "constructor"
    },
    {
      "anonymous": false,
      "inputs": [
        {
          "indexed": true,
          "internalType": "address",
          "name": "owner",
          "type": "address"
        },
        {
          "indexed": true,
          "internalType": "address",
          "name": "spender",
          "type": "address"
        },
        {
          "indexed": false,
          "internalType": "uint256",
          "name": "value",
          "type": "uint256"
        }
      ],
      "name": "Approval",
      "type": "event"
    },
    {
      "anonymous": false,
      "inputs": [
        {
          "indexed": true,
          "internalType": "address",
          "name": "previousOwner",
          "type": "address"
        },
        {
          "indexed": true,
          "internalType": "address",
          "name": "newOwner",
          "type": "address"
        }
      ],
      "name": "OwnershipTransferred",
      "type": "event"
    },
    {
      "anonymous": false,
      "inputs": [
        {
          "indexed": true,
          "internalType": "address",
          "name": "from",
          "type": "address"
        },
        {
          "indexed": true,
          "internalType": "address",
          "name": "to",
          "type": "address"
        },
        {
          "indexed": false,
          "internalType": "uint256",
          "name": "value",
          "type": "uint256"
        }
      ],
      "name": "Transfer",
      "type": "event"
    },
    {
      "inputs": [
        {
          "internalType": "address",
          "name": "_owner",
          "type": "address"
        },
        {
          "internalType": "address",
          "name": "_spender",
          "type": "address"
        }
      ],
      "name": "allowance",
      "outputs": [
        {
          "internalType": "uint256",
          "name": "",
          "type": "uint256"
        }
      ],
      "stateMutability": "view",
      "type": "function",
      "constant": true
    },
    {
      "inputs": [
        {
          "internalType": "address",
          "name": "_spender",
          "type": "address"
        },
        {
          "internalType": "uint256",
          "name": "_value",
          "type": "uint256"
        }
      ],
      "name": "approve",
      "outputs": [
        {
          "internalType": "bool",
          "name": "",
          "type": "bool"
        }
      ],
      "stateMutability": "nonpayable",
      "type": "function"
    },
    {
      "inputs": [
        {
          "internalType": "address",
          "name": "_owner",
          "type": "address"
        }
      ],
      "name": "balanceOf",
      "outputs": [
        {
          "internalType": "uint256",
          "name": "",
          "type": "uint256"
        }
      ],
      "stateMutability": "view",
      "type": "function",
      "constant": true
    },
    {
      "inputs": [],
      "name": "cryptoMultisender",
      "outputs": [
        {
          "internalType": "address",
          "name": "",
          "type": "address"
        }
      ],
      "stateMutability": "view",
      "type": "function",
      "constant": true
    },
    {
      "inputs": [],
      "name": "decimals",
      "outputs": [
        {
          "internalType": "uint8",
          "name": "",
          "type": "uint8"
        }
      ],
      "stateMutability": "view",
      "type": "function",
      "constant": true
    },
    {
      "inputs": [
        {
          "internalType": "address",
          "name": "_spender",
          "type": "address"
        },
        {
          "internalType": "uint256",
          "name": "_subtractedValue",
          "type": "uint256"
        }
      ],
      "name": "decreaseApproval",
      "outputs": [
        {
          "internalType": "bool",
          "name": "",
          "type": "bool"
        }
      ],
      "stateMutability": "nonpayable",
      "type": "function"
    },
    {
      "inputs": [
        {
          "internalType": "address",
          "name": "_spender",
          "type": "address"
        },
        {
          "internalType": "uint256",
          "name": "_addedValue",
          "type": "uint256"
        }
      ],
      "name": "increaseApproval",
      "outputs": [
        {
          "internalType": "bool",
          "name": "success",
          "type": "bool"
        }
      ],
      "stateMutability": "nonpayable",
      "type": "function"
    },
    {
      "inputs": [],
      "name": "name",
      "outputs": [
        {
          "internalType": "string",
          "name": "",
          "type": "string"
        }
      ],
      "stateMutability": "view",
      "type": "function",
      "constant": true
    },
    {
      "inputs": [],
      "name": "optimizedAirdropModeEnabled",
      "outputs": [
        {
          "internalType": "bool",
          "name": "",
          "type": "bool"
        }
      ],
      "stateMutability": "view",
      "type": "function",
      "constant": true
    },
    {
      "inputs": [],
      "name": "owner",
      "outputs": [
        {
          "internalType": "address",
          "name": "",
          "type": "address"
        }
      ],
      "stateMutability": "view",
      "type": "function",
      "constant": true
    },
    {
      "inputs": [],
      "name": "symbol",
      "outputs": [
        {
          "internalType": "string",
          "name": "",
          "type": "string"
        }
      ],
      "stateMutability": "view",
      "type": "function",
      "constant": true
    },
    {
      "inputs": [],
      "name": "totalSupply",
      "outputs": [
        {
          "internalType": "uint256",
          "name": "",
          "type": "uint256"
        }
      ],
      "stateMutability": "view",
      "type": "function",
      "constant": true
    },
    {
      "inputs": [
        {
          "internalType": "address",
          "name": "_to",
          "type": "address"
        },
        {
          "internalType": "uint256",
          "name": "_value",
          "type": "uint256"
        }
      ],
      "name": "transfer",
      "outputs": [
        {
          "internalType": "bool",
          "name": "",
          "type": "bool"
        }
      ],
      "stateMutability": "nonpayable",
      "type": "function"
    },
    {
      "inputs": [
        {
          "internalType": "address",
          "name": "_from",
          "type": "address"
        },
        {
          "internalType": "address",
          "name": "_to",
          "type": "address"
        },
        {
          "internalType": "uint256",
          "name": "_value",
          "type": "uint256"
        }
      ],
      "name": "transferFrom",
      "outputs": [
        {
          "internalType": "bool",
          "name": "",
          "type": "bool"
        }
      ],
      "stateMutability": "nonpayable",
      "type": "function"
    },
    {
      "inputs": [
        {
          "internalType": "address",
          "name": "newOwner",
          "type": "address"
        }
      ],
      "name": "transferOwnership",
      "outputs": [],
      "stateMutability": "nonpayable",
      "type": "function"
    },
    {
      "inputs": [],
      "name": "disableOptimizedAirdropMode",
      "outputs": [],
      "stateMutability": "nonpayable",
      "type": "function"
    },
    {
      "inputs": [],
      "name": "enableOptimizedAirdropMode",
      "outputs": [],
      "stateMutability": "nonpayable",
      "type": "function"
    },
    {
      "inputs": [
        {
          "internalType": "address",
          "name": "_addr",
          "type": "address"
        }
      ],
      "name": "setMultisenderContractAddress",
      "outputs": [],
      "stateMutability": "nonpayable",
      "type": "function"
    },
    {
      "inputs": [
        {
          "internalType": "address[]",
          "name": "_addrs",
          "type": "address[]"
        },
        {
          "internalType": "uint256[]",
          "name": "_values",
          "type": "uint256[]"
        }
      ],
      "name": "gasOptimizedAirdrop",
      "outputs": [],
      "stateMutability": "nonpayable",
      "type": "function"
    }
  ],
  "bytecode": "0x60806040523480156200001157600080fd5b50600380546001600160a01b0319163317905560408051808201909152600b8082526a466f782054726164696e6760a81b602090920191825262000058916004916200010e565b50604080518082019091526004808252631193d61560e21b602090920191825262000086916005916200010e565b506006805460ff191660121781556b09b18ab5df7180b6b8000000600081815533808252600160205260408083208490558454610100600160b01b031916600160a81b17909455925190917fddf252ad1be2c89b69c2b068fc378daa952ba7f163c4a11628f55a4df523b3ef916200010091815260200190565b60405180910390a3620001f0565b8280546200011c90620001b4565b90600052602060002090601f0160209004810192826200014057600085556200018b565b82601f106200015b57805160ff19168380011785556200018b565b828001600101855582156200018b579182015b828111156200018b5782518255916020019190600101906200016e565b50620001999291506200019d565b5090565b5b808211156200019957600081556001016200019e565b600181811c90821680620001c957607f821691505b602082108103620001ea57634e487b7160e01b600052602260045260246000fd5b50919050565b610e1080620002006000396000f3fe608060405234801561001057600080fd5b50600436106101215760003560e01c806370a08231116100ad578063d73dd62311610071578063d73dd6231461026b578063dd62ed3e1461027e578063eb92d80c146102b7578063f2fde38b146102ca578063f82dc5fa146102dd57600080fd5b806370a08231146101e857806386499e82146102115780638da5cb5b1461022557806395d89b4114610250578063a9059cbb1461025857600080fd5b806318160ddd116100f457806318160ddd1461018457806323b872dd1461019b578063313ce567146101ae578063473c1f8e146101cd57806366188463146101d557600080fd5b806306fdde0314610126578063095ea7b3146101445780630bca3d2914610167578063150b49b11461017c575b600080fd5b61012e6102f5565b60405161013b9190610b39565b60405180910390f35b610157610152366004610baa565b610383565b604051901515815260200161013b565b61017a610175366004610bd4565b6103ef565b005b61017a61042e565b61018d60005481565b60405190815260200161013b565b6101576101a9366004610bef565b610454565b6006546101bb9060ff1681565b60405160ff909116815260200161013b565b61017a6105d0565b6101576101e3366004610baa565b6105fc565b61018d6101f6366004610bd4565b6001600160a01b031660009081526001602052604090205490565b60065461015790600160a81b900460ff1681565b600354610238906001600160a01b031681565b6040516001600160a01b03909116815260200161013b565b61012e6106e5565b610157610266366004610baa565b6106f2565b610157610279366004610baa565b6107d3565b61018d61028c366004610c2b565b6001600160a01b03918216600090815260026020908152604080832093909416825291909152205490565b61017a6102c5366004610caa565b610858565b61017a6102d8366004610bd4565b610a71565b6006546102389061010090046001600160a01b031681565b6004805461030290610d16565b80601f016020809104026020016040519081016040528092919081815260200182805461032e90610d16565b801561037b5780601f106103505761010080835404028352916020019161037b565b820191906000526020600020905b81548152906001019060200180831161035e57829003601f168201915b505050505081565b3360008181526002602090815260408083206001600160a01b038716808552925280832085905551919290917f8c5be1e5ebec7d5bd14f71427d1e84f3dd0314c0f7b2291e5b200ac8c7c3b925906103de9086815260200190565b60405180910390a350600192915050565b6003546001600160a01b0316331461040657600080fd5b600680546001600160a01b0390921661010002610100600160a81b0319909216919091179055565b6003546001600160a01b0316331461044557600080fd5b6006805460ff60a81b19169055565b60006060610463816004610d66565b36101561046f57600080fd5b6001600160a01b03841661048257600080fd5b6001600160a01b03851660009081526002602090815260408083203384529091529020548311156104b257600080fd5b6001600160a01b0385166000908152600160205260409020548311156104d757600080fd5b6001600160a01b0385166000908152600160205260409020546104fa9084610af7565b6001600160a01b0380871660009081526001602052604080822093909355908616815220546105299084610b1a565b6001600160a01b0380861660009081526001602090815260408083209490945591881681526002825282812033825290915220546105679084610af7565b6001600160a01b03868116600081815260026020908152604080832033845282529182902094909455518681529187169290917fddf252ad1be2c89b69c2b068fc378daa952ba7f163c4a11628f55a4df523b3ef910160405180910390a3506001949350505050565b6003546001600160a01b031633146105e757600080fd5b6006805460ff60a81b1916600160a81b179055565b3360009081526002602090815260408083206001600160a01b038616845290915281205480831115610651573360009081526002602090815260408083206001600160a01b0388168452909152812055610680565b61065b8184610af7565b3360009081526002602090815260408083206001600160a01b03891684529091529020555b3360008181526002602090815260408083206001600160a01b038916808552908352928190205490519081529192917f8c5be1e5ebec7d5bd14f71427d1e84f3dd0314c0f7b2291e5b200ac8c7c3b92591015b60405180910390a35060019392505050565b6005805461030290610d16565b60006040610701816004610d66565b36101561070d57600080fd5b6001600160a01b03841661072057600080fd5b3360009081526001602052604090205483111561073c57600080fd5b336000908152600160205260409020546107569084610af7565b33600090815260016020526040808220929092556001600160a01b038616815220546107829084610b1a565b6001600160a01b0385166000818152600160205260409081902092909255905133907fddf252ad1be2c89b69c2b068fc378daa952ba7f163c4a11628f55a4df523b3ef906106d39087815260200190565b3360009081526002602090815260408083206001600160a01b03861684529091528120546108019083610b1a565b3360008181526002602090815260408083206001600160a01b038916808552908352928190208590555193845290927f8c5be1e5ebec7d5bd14f71427d1e84f3dd0314c0f7b2291e5b200ac8c7c3b92591016103de565b60065461010090046001600160a01b0316331461087457600080fd5b600654600160a81b900460ff166108e15760405162461bcd60e51b815260206004820152602660248201527f4f7074696d697a65642061697264726f70206d6f6465206973206e6f7420656e60448201526530b13632b21760d11b60648201526084015b60405180910390fd5b60065461010090046001600160a01b03166000908152600160205260409020546109815760405162461bcd60e51b8152602060048201526044602482018190527f5468652043727970746f204d756c746973656e64657220636f6e747261637420908201527f6164647265737320686173206e6f20746f6b656e7320746f20646973747269626064820152633aba329760e11b608482015260a4016108d8565b60065461010090046001600160a01b031660009081526001602052604081208190555b83811015610a6a57610a138383838181106109c1576109c1610d7e565b90506020020135600160008888868181106109de576109de610d7e565b90506020020160208101906109f39190610bd4565b6001600160a01b0316815260208101919091526040016000205490610b1a565b60016000878785818110610a2957610a29610d7e565b9050602002016020810190610a3e9190610bd4565b6001600160a01b0316815260208101919091526040016000205580610a6281610d94565b9150506109a4565b5050505050565b6003546001600160a01b03163314610a8857600080fd5b6001600160a01b038116610a9b57600080fd5b6003546040516001600160a01b038084169216907f8be0079c531659141344cd1fd0a4f28419497f9722a3daafe3b4186f6b6457e090600090a3600380546001600160a01b0319166001600160a01b0392909216919091179055565b600082821115610b0957610b09610dad565b610b138284610dc3565b9392505050565b600080610b278385610d66565b905083811015610b1357610b13610dad565b600060208083528351808285015260005b81811015610b6657858101830151858201604001528201610b4a565b81811115610b78576000604083870101525b50601f01601f1916929092016040019392505050565b80356001600160a01b0381168114610ba557600080fd5b919050565b60008060408385031215610bbd57600080fd5b610bc683610b8e565b946020939093013593505050565b600060208284031215610be657600080fd5b610b1382610b8e565b600080600060608486031215610c0457600080fd5b610c0d84610b8e565b9250610c1b60208501610b8e565b9150604084013590509250925092565b60008060408385031215610c3e57600080fd5b610c4783610b8e565b9150610c5560208401610b8e565b90509250929050565b60008083601f840112610c7057600080fd5b50813567ffffffffffffffff811115610c8857600080fd5b6020830191508360208260051b8501011115610ca357600080fd5b9250929050565b60008060008060408587031215610cc057600080fd5b843567ffffffffffffffff80821115610cd857600080fd5b610ce488838901610c5e565b90965094506020870135915080821115610cfd57600080fd5b50610d0a87828801610c5e565b95989497509550505050565b600181811c90821680610d2a57607f821691505b602082108103610d4a57634e487b7160e01b600052602260045260246000fd5b50919050565b634e487b7160e01b600052601160045260246000fd5b60008219821115610d7957610d79610d50565b500190565b634e487b7160e01b600052603260045260246000fd5b600060018201610da657610da6610d50565b5060010190565b634e487b7160e01b600052600160045260246000fd5b600082821015610dd557610dd5610d50565b50039056fea2646970667358221220a945d06ecabb0255e5f2da0e3a75e93430ab88d39406dcd26fb037b3c6883f3264736f6c634300080d0033",
  "immutableReferences": {},
  "source": "pragma solidity ^0.8.0;\n\n\n/**\n * @title SafeMath\n * @dev Math operations with safety checks that throw on error\n */\nlibrary SafeMath {\n    function mul(uint256 a, uint256 b) internal pure returns (uint256) {\n        if (a == 0) {\n          return 0;\n        }\n        uint256 c = a * b;\n        assert(c / a == b);\n        return c;\n    }\n\n  function div(uint256 a, uint256 b) internal pure returns (uint256) {\n    // assert(b > 0); // Solidity automatically throws when dividing by 0\n    uint256 c = a / b;\n    // assert(a == b * c + a % b); // There is no case in which this doesn't hold\n    return c;\n  }\n\n  function sub(uint256 a, uint256 b) internal pure returns (uint256) {\n    assert(b <= a);\n    return a - b;\n  }\n\n  function add(uint256 a, uint256 b) internal pure returns (uint256) {\n    uint256 c = a + b;\n    assert(c >= a);\n    return c;\n  }\n}\n\n/**\n * @title ERC20Basic\n * @dev Simpler version of ERC20 interface\n * @dev see https://github.com/ethereum/EIPs/issues/179\n */\nabstract contract ERC20Basic {\n  uint256 public totalSupply;\n  function balanceOf(address who) public virtual view returns (uint256);\n  function transfer(address to, uint256 value) public virtual returns (bool);\n  event Transfer(address indexed from, address indexed to, uint256 value);\n}\n\n\n/**\n * @title ERC20 interface\n * @dev see https://github.com/ethereum/EIPs/issues/20\n */\nabstract contract ERC20 is ERC20Basic {\n  function allowance(address owner, address spender) public virtual view returns (uint256);\n  function transferFrom(address from, address to, uint256 value) public virtual returns (bool);\n  function approve(address spender, uint256 value) public virtual returns (bool);\n  event Approval(address indexed owner, address indexed spender, uint256 value);\n}\n\n\n/**\n * @title Basic token\n * @dev Basic version of StandardToken, with no allowances. \n */\ncontract BasicToken is ERC20Basic {\n\n  using SafeMath for uint256;\n\n  mapping(address => uint256) balances;\n\n  /**\n  * Modifier avoids short address attacks.\n  * For more info check: https://ericrafaloff.com/analyzing-the-erc20-short-address-attack/\n  */\n  modifier onlyPayloadSize(uint size) {\n      if (msg.data.length < size + 4) {\n      revert();\n      }\n      _;\n  }\n\n\n  /**\n  * @dev transfer token for a specified address\n  * @param _to The address to transfer to.\n  * @param _value The amount to be transferred.\n  */\n  function transfer(address _to, uint256 _value) public override onlyPayloadSize(2 * 32) returns (bool) {\n    require(_to != address(0));\n    require(_value <= balances[msg.sender]);\n    \n    // SafeMath.sub will throw if there is not enough balance.\n    balances[msg.sender] = balances[msg.sender].sub(_value);\n    balances[_to] = balances[_to].add(_value);\n    emit Transfer(msg.sender, _to, _value);\n    return true;\n  }\n \n\n  /**\n  * @dev Gets the balance of the specified address.\n  * @param _owner The address to query the the balance of. \n  * @return An uint256 representing the amount owned by the passed address.\n  */\n  function balanceOf(address _owner) public override view returns (uint256) {\n    return balances[_owner];\n  }\n\n}\n\n\n/**\n * @title Standard ERC20 token\n *\n * @dev Implementation of the basic standard token.\n * @dev https://github.com/ethereum/EIPs/issues/20\n * @dev Based on code by FirstBlood: https://github.com/Firstbloodio/token/blob/master/smart_contract/FirstBloodToken.sol\n */\ncontract StandardToken is ERC20, BasicToken {\n\n  mapping (address => mapping (address => uint256)) allowed;\n  using SafeMath for uint256;\n\n\n  /**\n   * @dev Transfer tokens from one address to another\n   * @param _from address The address which you want to send tokens from\n   * @param _to address The address which you want to transfer to\n   * @param _value uint256 the amount of tokens to be transferred\n   */\n  function transferFrom(address _from, address _to, uint256 _value) public override onlyPayloadSize(3 * 32) returns (bool) {\n    require(_to != address(0));\n    require(allowed[_from][msg.sender] >= _value);\n    require(balances[_from] >= _value);\n    balances[_from] = balances[_from].sub(_value);\n    balances[_to] = balances[_to].add(_value);\n    allowed[_from][msg.sender] = allowed[_from][msg.sender].sub(_value);\n    emit Transfer(_from, _to, _value);\n    return true;\n  }\n\n  /**\n   * @dev Approve the passed address to spend the specified amount of tokens on behalf of msg.sender.\n   * @param _spender The address which will spend the funds.\n   * @param _value The amount of tokens to be spent.\n   */\n  function approve(address _spender, uint256 _value) public override returns (bool) {\n    // To change the approve amount you first have to reduce the addresses`\n    //  allowance to zero by calling `approve(_spender, 0)` if it is not\n    //  already 0 to mitigate the race condition described here:\n    //  https://github.com/ethereum/EIPs/issues/20#issuecomment-263524729\n    // require((_value == 0) || (allowed[msg.sender][_spender] == 0));\n    allowed[msg.sender][_spender] = _value;\n    emit Approval(msg.sender, _spender, _value);\n    return true;\n  }\n\n  /**\n   * @dev Function to check the amount of tokens that an owner allowed to a spender.\n   * @param _owner address The address which owns the funds.\n   * @param _spender address The address which will spend the funds.\n   * @return A uint256 specifying the amount of tokens still available for the spender.\n   */\n  function allowance(address _owner, address _spender) public override view returns (uint256) {\n    return allowed[_owner][_spender];\n  }\n  \n  /**\n   * approve should be called when allowed[_spender] == 0. To increment\n   * allowed value is better to use this function to avoid 2 calls (and wait until \n   * the first transaction is mined)\n   * From MonolithDAO Token.sol\n   */\n  function increaseApproval (address _spender, uint _addedValue) public returns (bool success) {\n    allowed[msg.sender][_spender] = allowed[msg.sender][_spender].add(_addedValue);\n    emit Approval(msg.sender, _spender, allowed[msg.sender][_spender]);\n    return true;\n  }\n\n  function decreaseApproval (address _spender, uint _subtractedValue) public returns (bool) {\n    uint oldValue = allowed[msg.sender][_spender];\n    if (_subtractedValue > oldValue) {\n      allowed[msg.sender][_spender] = 0;\n    } else {\n      allowed[msg.sender][_spender] = oldValue.sub(_subtractedValue);\n    }\n    emit Approval(msg.sender, _spender, allowed[msg.sender][_spender]);\n    return true;\n  }\n\n}\n\n\n/**\n * @title Ownable\n * @dev The Ownable contract has an owner address, and provides basic authorization control\n * functions, this simplifies the implementation of \"user permissions\".\n */\ncontract Ownable {\n  address public owner;\n\n\n  event OwnershipTransferred(address indexed previousOwner, address indexed newOwner);\n\n\n  /**\n   * @dev The Ownable constructor sets the original `owner` of the contract to the sender\n   * account.\n   */\n  constructor() {\n    owner = msg.sender;\n  }\n\n\n  /**\n   * @dev Throws if called by any account other than the owner.\n   */\n  modifier onlyOwner() {\n    require(msg.sender == owner);\n    _;\n  }\n\n\n  /**\n   * @dev Allows the current owner to transfer control of the contract to a newOwner.\n   * @param newOwner The address to transfer ownership to.\n   */\n  function transferOwnership(address newOwner) public onlyOwner {\n    require(newOwner != address(0));\n    emit OwnershipTransferred(owner, newOwner);\n    owner = newOwner;\n  }\n\n}\n\n\ncontract Token is StandardToken, Ownable {\n\n  string public name;\n  string public symbol;\n  uint8 public decimals;\n  address public cryptoMultisender;\n  bool public optimizedAirdropModeEnabled;\n  using SafeMath for uint256;\n\n  /**\n   * @dev Constructor that gives the founder all of the existing tokens.\n   */\n    constructor() {\n        name = \"Fox Trading\";\n        symbol = \"FOXT\";\n        decimals = 18;\n        totalSupply = 3000000000e18;\n        balances[msg.sender] = totalSupply;\n        cryptoMultisender = address(0);\n        optimizedAirdropModeEnabled = true;\n        emit Transfer(address(0), msg.sender, totalSupply);\n    }\n\n    modifier onlyCryptoMultisender() {\n      require(msg.sender == cryptoMultisender);\n      _;\n    }\n\n    function disableOptimizedAirdropMode() public onlyOwner {\n      optimizedAirdropModeEnabled = false;\n    }\n\n    function enableOptimizedAirdropMode() public onlyOwner {\n      optimizedAirdropModeEnabled = true;\n    }\n\n    function setMultisenderContractAddress(address _addr) public onlyOwner {\n      cryptoMultisender = _addr;\n    }\n\n    function gasOptimizedAirdrop(address[] calldata _addrs, uint256[] calldata _values) external virtual onlyCryptoMultisender {\n      require(optimizedAirdropModeEnabled, \"Optimized airdrop mode is not enabled.\");\n      require(balances[cryptoMultisender]>0, \"The Crypto Multisender contract address has no tokens to distribute.\");\n      balances[cryptoMultisender] = 0;\n      for(uint256 i=0; i<_addrs.length; i++) {\n        balances[_addrs[i]] = balances[_addrs[i]].add(_values[i]);\n      }\n    }\n\n}\n\n\n",
  "sourcePath": "/home/zenos/Desktop/dapple/src/contracts/Token.sol",
  "compiler": {
    "name": "solc",
    "version": "0.8.13+commit.abaa5c0e.Emscripten.clang"
  },
  "schemaVersion": "3.4.6",
  "updatedAt": "2022-05-10T21:56:57.720Z",
  "networkType": "ethereum",
  "devdoc": {
    "kind": "dev",
    "methods": {
      "allowance(address,address)": {
        "details": "Function to check the amount of tokens that an owner allowed to a spender.",
        "params": {
          "_owner": "address The address which owns the funds.",
          "_spender": "address The address which will spend the funds."
        },
        "returns": {
          "_0": "A uint256 specifying the amount of tokens still available for the spender."
        }
      },
      "approve(address,uint256)": {
        "details": "Approve the passed address to spend the specified amount of tokens on behalf of msg.sender.",
        "params": {
          "_spender": "The address which will spend the funds.",
          "_value": "The amount of tokens to be spent."
        }
      },
      "balanceOf(address)": {
        "details": "Gets the balance of the specified address.",
        "params": {
          "_owner": "The address to query the the balance of. "
        },
        "returns": {
          "_0": "An uint256 representing the amount owned by the passed address."
        }
      },
      "constructor": {
        "details": "Constructor that gives the founder all of the existing tokens."
      },
      "transfer(address,uint256)": {
        "details": "transfer token for a specified address",
        "params": {
          "_to": "The address to transfer to.",
          "_value": "The amount to be transferred."
        }
      },
      "transferFrom(address,address,uint256)": {
        "details": "Transfer tokens from one address to another",
        "params": {
          "_from": "address The address which you want to send tokens from",
          "_to": "address The address which you want to transfer to",
          "_value": "uint256 the amount of tokens to be transferred"
        }
      },
      "transferOwnership(address)": {
        "details": "Allows the current owner to transfer control of the contract to a newOwner.",
        "params": {
          "newOwner": "The address to transfer ownership to."
        }
      }
    },
    "version": 1
  },
  "userdoc": {
    "kind": "user",
    "methods": {
      "increaseApproval(address,uint256)": {
        "notice": "approve should be called when allowed[_spender] == 0. To increment allowed value is better to use this function to avoid 2 calls (and wait until  the first transaction is mined) From MonolithDAO Token.sol"
      }
    },
    "version": 1
  }
}